{
  "contractName": "Doctor",
  "abi": [
    {
      "inputs": [
        {
          "internalType": "string",
          "name": "_firstName",
          "type": "string"
        },
        {
          "internalType": "string",
          "name": "_lastName",
          "type": "string"
        },
        {
          "internalType": "string",
          "name": "_id",
          "type": "string"
        },
        {
          "internalType": "uint256",
          "name": "_dateOfBirth",
          "type": "uint256"
        },
        {
          "internalType": "enum Library.Sex",
          "name": "_sex",
          "type": "uint8"
        }
      ],
      "stateMutability": "nonpayable",
      "type": "constructor"
    },
    {
      "inputs": [],
      "name": "hospital",
      "outputs": [
        {
          "internalType": "address",
          "name": "",
          "type": "address"
        }
      ],
      "stateMutability": "view",
      "type": "function"
    },
    {
      "inputs": [],
      "name": "getBiodata",
      "outputs": [
        {
          "internalType": "string",
          "name": "",
          "type": "string"
        },
        {
          "internalType": "string",
          "name": "",
          "type": "string"
        },
        {
          "internalType": "string",
          "name": "",
          "type": "string"
        },
        {
          "internalType": "uint256",
          "name": "",
          "type": "uint256"
        },
        {
          "internalType": "enum Library.Sex",
          "name": "",
          "type": "uint8"
        }
      ],
      "stateMutability": "view",
      "type": "function"
    },
    {
      "inputs": [
        {
          "internalType": "string",
          "name": "_firstName",
          "type": "string"
        },
        {
          "internalType": "string",
          "name": "_lastName",
          "type": "string"
        },
        {
          "internalType": "string",
          "name": "_id",
          "type": "string"
        },
        {
          "internalType": "uint256",
          "name": "_dateOfBirth",
          "type": "uint256"
        },
        {
          "internalType": "enum Library.Sex",
          "name": "_sex",
          "type": "uint8"
        }
      ],
      "name": "setBiodata",
      "outputs": [],
      "stateMutability": "nonpayable",
      "type": "function"
    },
    {
      "inputs": [
        {
          "internalType": "address",
          "name": "_hospital",
          "type": "address"
        }
      ],
      "name": "setHospital",
      "outputs": [],
      "stateMutability": "payable",
      "type": "function"
    },
    {
      "inputs": [],
      "name": "getPatients",
      "outputs": [
        {
          "internalType": "address[]",
          "name": "",
          "type": "address[]"
        },
        {
          "internalType": "uint256",
          "name": "",
          "type": "uint256"
        }
      ],
      "stateMutability": "view",
      "type": "function"
    },
    {
      "inputs": [],
      "name": "addPatient",
      "outputs": [],
      "stateMutability": "nonpayable",
      "type": "function"
    },
    {
      "inputs": [],
      "name": "removePatient",
      "outputs": [],
      "stateMutability": "nonpayable",
      "type": "function"
    },
    {
      "inputs": [
        {
          "internalType": "address",
          "name": "_patient",
          "type": "address"
        },
        {
          "internalType": "string",
          "name": "_diagnostic",
          "type": "string"
        },
        {
          "internalType": "string[]",
          "name": "_medicine",
          "type": "string[]"
        },
        {
          "internalType": "uint256[]",
          "name": "_numDays",
          "type": "uint256[]"
        },
        {
          "internalType": "uint256[]",
          "name": "_perDay",
          "type": "uint256[]"
        }
      ],
      "name": "addMedicalReport",
      "outputs": [
        {
          "internalType": "address",
          "name": "",
          "type": "address"
        }
      ],
      "stateMutability": "payable",
      "type": "function"
    },
    {
      "inputs": [
        {
          "internalType": "address",
          "name": "_patient",
          "type": "address"
        }
      ],
      "name": "getPatientMedicalReports",
      "outputs": [
        {
          "internalType": "address[]",
          "name": "",
          "type": "address[]"
        }
      ],
      "stateMutability": "view",
      "type": "function"
    },
    {
      "inputs": [
        {
          "internalType": "address",
          "name": "_medicalReport",
          "type": "address"
        }
      ],
      "name": "getMedicalReportDetails",
      "outputs": [
        {
          "internalType": "uint256",
          "name": "",
          "type": "uint256"
        },
        {
          "internalType": "string",
          "name": "",
          "type": "string"
        },
        {
          "components": [
            {
              "internalType": "string",
              "name": "medicine",
              "type": "string"
            },
            {
              "internalType": "uint256",
              "name": "numDays",
              "type": "uint256"
            },
            {
              "internalType": "uint256",
              "name": "perDay",
              "type": "uint256"
            }
          ],
          "internalType": "struct Library.Prescription[]",
          "name": "",
          "type": "tuple[]"
        }
      ],
      "stateMutability": "view",
      "type": "function"
    },
    {
      "inputs": [
        {
          "internalType": "address",
          "name": "_patient",
          "type": "address"
        }
      ],
      "name": "getHealthData",
      "outputs": [
        {
          "internalType": "uint256",
          "name": "",
          "type": "uint256"
        },
        {
          "internalType": "uint256",
          "name": "",
          "type": "uint256"
        },
        {
          "internalType": "enum Library.BloodType",
          "name": "",
          "type": "uint8"
        },
        {
          "internalType": "bool",
          "name": "",
          "type": "bool"
        },
        {
          "internalType": "bool",
          "name": "",
          "type": "bool"
        }
      ],
      "stateMutability": "view",
      "type": "function"
    },
    {
      "inputs": [
        {
          "internalType": "address",
          "name": "_patient",
          "type": "address"
        },
        {
          "internalType": "uint256",
          "name": "_height",
          "type": "uint256"
        },
        {
          "internalType": "uint256",
          "name": "_weight",
          "type": "uint256"
        },
        {
          "internalType": "enum Library.BloodType",
          "name": "_bloodType",
          "type": "uint8"
        },
        {
          "internalType": "bool",
          "name": "_isSmoker",
          "type": "bool"
        },
        {
          "internalType": "bool",
          "name": "_hasAllergy",
          "type": "bool"
        }
      ],
      "name": "setHealthData",
      "outputs": [],
      "stateMutability": "nonpayable",
      "type": "function"
    }
  ],
  "bytecode": "0x60806040523480156200001157600080fd5b50604051620029533803806200295383398101604081905262000034916200024f565b600080546001600160a01b0319163217905584516200005b906001906020880190620000dc565b50835162000071906002906020870190620000dc565b50825162000087906003906020860190620000dc565b5060048290556005805482919060ff191660018381811115620000ae57620000ae62000304565b0217905550506005805461ff00191690555050600880546001600160a01b0319163317905550620003579050565b828054620000ea906200031a565b90600052602060002090601f0160209004810192826200010e576000855562000159565b82601f106200012957805160ff191683800117855562000159565b8280016001018555821562000159579182015b82811115620001595782518255916020019190600101906200013c565b50620001679291506200016b565b5090565b5b808211156200016757600081556001016200016c565b634e487b7160e01b600052604160045260246000fd5b600082601f830112620001aa57600080fd5b81516001600160401b0380821115620001c757620001c762000182565b604051601f8301601f19908116603f01168101908282118183101715620001f257620001f262000182565b816040528381526020925086838588010111156200020f57600080fd5b600091505b8382101562000233578582018301518183018401529082019062000214565b83821115620002455760008385830101525b9695505050505050565b600080600080600060a086880312156200026857600080fd5b85516001600160401b03808211156200028057600080fd5b6200028e89838a0162000198565b96506020880151915080821115620002a557600080fd5b620002b389838a0162000198565b95506040880151915080821115620002ca57600080fd5b50620002d98882890162000198565b93505060608601519150608086015160028110620002f657600080fd5b809150509295509295909350565b634e487b7160e01b600052602160045260246000fd5b600181811c908216806200032f57607f821691505b602082108114156200035157634e487b7160e01b600052602260045260246000fd5b50919050565b6125ec80620003676000396000f3fe608060405260043610620000b55760003560e01c8063aa2fedde116200006c578063aa2fedde14620001bb578063b9b89f5914620001f2578063dec1c9041462000228578063e4025203146200023f578063f59f16031462000256578063fcc8c203146200028157600080fd5b806312ad1c3714620000ba57806357a5369714620000eb5780636ceb79cd146200011f5780638908e67f14620001575780639be1d2e4146200017e578063a505612b14620001a3575b600080fd5b348015620000c757600080fd5b50620000d262000299565b604051620000e292919062001008565b60405180910390f35b348015620000f857600080fd5b50620001106200010a36600462001045565b62000406565b604051620000e2919062001065565b3480156200012c57600080fd5b50620001446200013e36600462001045565b620004b8565b604051620000e295949392919062001090565b3480156200016457600080fd5b506200017c62000176366004620011c9565b620005ef565b005b3480156200018b57600080fd5b506200017c6200019d3660046200129b565b62000690565b348015620001b057600080fd5b506200017c620007aa565b348015620001c857600080fd5b50600554620001e3906201000090046001600160a01b031681565b604051620000e2919062001314565b348015620001ff57600080fd5b50620002176200021136600462001045565b620008b5565b604051620000e29392919062001389565b6200017c6200023936600462001045565b62000976565b620001e362000250366004620014b9565b62000aba565b3480156200026357600080fd5b506200026e62000c2a565b604051620000e295949392919062001601565b3480156200028e57600080fd5b506200017c62000e48565b60008054606091906001600160a01b03163214620002d45760405162461bcd60e51b8152600401620002cb906200166c565b60405180910390fd5b6007546000906001600160401b03811115620002f457620002f4620010cf565b6040519080825280602002602001820160405280156200031e578160200160208202803683370190505b5090506000805b600754811015620003fc5760066000600783815481106200034a576200034a6200169b565b60009182526020808320909101546001600160a01b0316835282019290925260400190205460ff1615620003e957600781815481106200038e576200038e6200169b565b9060005260206000200160009054906101000a90046001600160a01b0316838381518110620003c157620003c16200169b565b6001600160a01b039092166020928302919091019091015281620003e581620016b1565b9250505b620003f481620016b1565b905062000325565b5090925090509091565b6000546060906001600160a01b03163214620004365760405162461bcd60e51b8152600401620002cb906200166c565b6000826001600160a01b031663c682f5d46040518163ffffffff1660e01b815260040160006040518083038186803b1580156200047257600080fd5b505afa15801562000487573d6000803e3d6000fd5b505050506040513d6000823e601f3d908101601f19168201604052620004b19190810190620016db565b9392505050565b6000805481908190819081906001600160a01b03163214620004ee5760405162461bcd60e51b8152600401620002cb906200166c565b6000866001600160a01b031663d9ef76c26040518163ffffffff1660e01b815260040160206040518083038186803b1580156200052a57600080fd5b505afa1580156200053f573d6000803e3d6000fd5b505050506040513d601f19601f820116820180604052508101906200056591906200177f565b9050806001600160a01b031663919932d26040518163ffffffff1660e01b815260040160a06040518083038186803b158015620005a157600080fd5b505afa158015620005b6573d6000803e3d6000fd5b505050506040513d601f19601f82011682018060405250810190620005dc91906200179f565b939b929a50909850965090945092505050565b6000546001600160a01b031632146200061c5760405162461bcd60e51b8152600401620002cb906200166c565b84516200063190600190602088019062000f0e565b5083516200064790600290602087019062000f0e565b5082516200065d90600390602086019062000f0e565b5060048290556005805482919060ff1916600183818111156200068457620006846200107a565b02179055505050505050565b6000546001600160a01b03163214620006bd5760405162461bcd60e51b8152600401620002cb906200166c565b6000866001600160a01b031663d9ef76c26040518163ffffffff1660e01b815260040160206040518083038186803b158015620006f957600080fd5b505afa1580156200070e573d6000803e3d6000fd5b505050506040513d601f19601f820116820180604052508101906200073491906200177f565b604051633b942b6960e21b81529091506001600160a01b0382169063ee50ada4906200076d908990899089908990899060040162001090565b600060405180830381600087803b1580156200078857600080fd5b505af11580156200079d573d6000803e3d6000fd5b5050505050505050505050565b6008546040516314dfd8a160e01b81526001600160a01b039091169081906314dfd8a190620007de90329060040162001314565b60206040518083038186803b158015620007f757600080fd5b505afa1580156200080c573d6000803e3d6000fd5b505050506040513d601f19601f82011682018060405250810190620008329190620017f9565b1515600114620008565760405162461bcd60e51b8152600401620002cb9062001819565b50336000818152600660205260408120805460ff191660019081179091556007805491820181559091527fa66cc928b5edb82af9bd49922954155ab7b0942694bea4ce44661d9a8736c6880180546001600160a01b0319169091179055565b6000805460609081906001600160a01b03163214620008e85760405162461bcd60e51b8152600401620002cb906200166c565b6000806000866001600160a01b031663cc797fd56040518163ffffffff1660e01b815260040160006040518083038186803b1580156200092757600080fd5b505afa1580156200093c573d6000803e3d6000fd5b505050506040513d6000823e601f3d908101601f191682016040526200096691908101906200189c565b9199909850909650945050505050565b6000546001600160a01b03163214620009a35760405162461bcd60e51b8152600401620002cb906200166c565b6005546201000090046001600160a01b03161562000a2657600560029054906101000a90046001600160a01b03166001600160a01b031663c48722386040518163ffffffff1660e01b8152600401600060405180830381600087803b15801562000a0c57600080fd5b505af115801562000a21573d6000803e3d6000fd5b505050505b80600560026101000a8154816001600160a01b0302191690836001600160a01b03160217905550600560029054906101000a90046001600160a01b03166001600160a01b03166375a3f4e36040518163ffffffff1660e01b8152600401600060405180830381600087803b15801562000a9e57600080fd5b505af115801562000ab3573d6000803e3d6000fd5b5050505050565b600080546001600160a01b0316321462000ae85760405162461bcd60e51b8152600401620002cb906200166c565b6001600160a01b038616600090815260066020526040902054869060ff16151560011462000b735760405162461bcd60e51b815260206004820152603160248201527f596f7520646f6e277420686176652061636365737320746f2070617469656e7460448201527009dcc81b59591a58d85b081c995c1bdc9d607a1b6064820152608401620002cb565b6000878787878760405162000b889062000f9d565b62000b9895949392919062001a0b565b604051809103906000f08015801562000bb5573d6000803e3d6000fd5b50604051631de7604160e31b815290915081906001600160a01b038a169063ef3b02089062000be990849060040162001314565b600060405180830381600087803b15801562000c0457600080fd5b505af115801562000c19573d6000803e3d6000fd5b50929b9a5050505050505050505050565b60008054606091829182919081906001600160a01b0316321462000c625760405162461bcd60e51b8152600401620002cb906200166c565b600160026003600454600560009054906101000a900460ff1684805462000c899062001ac0565b80601f016020809104026020016040519081016040528092919081815260200182805462000cb79062001ac0565b801562000d085780601f1062000cdc5761010080835404028352916020019162000d08565b820191906000526020600020905b81548152906001019060200180831162000cea57829003601f168201915b5050505050945083805462000d1d9062001ac0565b80601f016020809104026020016040519081016040528092919081815260200182805462000d4b9062001ac0565b801562000d9c5780601f1062000d705761010080835404028352916020019162000d9c565b820191906000526020600020905b81548152906001019060200180831162000d7e57829003601f168201915b5050505050935082805462000db19062001ac0565b80601f016020809104026020016040519081016040528092919081815260200182805462000ddf9062001ac0565b801562000e305780601f1062000e045761010080835404028352916020019162000e30565b820191906000526020600020905b81548152906001019060200180831162000e1257829003601f168201915b50505050509250945094509450945094509091929394565b6008546040516314dfd8a160e01b81526001600160a01b039091169081906314dfd8a19062000e7c90329060040162001314565b60206040518083038186803b15801562000e9557600080fd5b505afa15801562000eaa573d6000803e3d6000fd5b505050506040513d601f19601f8201168201806040525081019062000ed09190620017f9565b151560011462000ef45760405162461bcd60e51b8152600401620002cb9062001819565b50336000908152600660205260409020805460ff19169055565b82805462000f1c9062001ac0565b90600052602060002090601f01602090048101928262000f40576000855562000f8b565b82601f1062000f5b57805160ff191683800117855562000f8b565b8280016001018555821562000f8b579182015b8281111562000f8b57825182559160200191906001019062000f6e565b5062000f9992915062000fab565b5090565b610ab98062001afe83390190565b5b8082111562000f99576000815560010162000fac565b600081518084526020808501945080840160005b8381101562000ffd5781516001600160a01b03168752958201959082019060010162000fd6565b509495945050505050565b6040815260006200101d604083018562000fc2565b90508260208301529392505050565b6001600160a01b03811681146200104257600080fd5b50565b6000602082840312156200105857600080fd5b8135620004b1816200102c565b602081526000620004b1602083018462000fc2565b634e487b7160e01b600052602160045260246000fd5b8581526020810185905260a0810160048510620010b157620010b16200107a565b60408201949094529115156060830152151560809091015292915050565b634e487b7160e01b600052604160045260246000fd5b604051606081016001600160401b03811182821017156200110a576200110a620010cf565b60405290565b604051601f8201601f191681016001600160401b03811182821017156200113b576200113b620010cf565b604052919050565b60006001600160401b038211156200115f576200115f620010cf565b50601f01601f191660200190565b600082601f8301126200117f57600080fd5b813562001196620011908262001143565b62001110565b818152846020838601011115620011ac57600080fd5b816020850160208301376000918101602001919091529392505050565b600080600080600060a08688031215620011e257600080fd5b85356001600160401b0380821115620011fa57600080fd5b6200120889838a016200116d565b965060208801359150808211156200121f57600080fd5b6200122d89838a016200116d565b955060408801359150808211156200124457600080fd5b5062001253888289016200116d565b935050606086013591506080860135600281106200127057600080fd5b809150509295509295909350565b600481106200104257600080fd5b80151581146200104257600080fd5b60008060008060008060c08789031215620012b557600080fd5b8635620012c2816200102c565b955060208701359450604087013593506060870135620012e2816200127e565b92506080870135620012f4816200128c565b915060a087013562001306816200128c565b809150509295509295509295565b6001600160a01b0391909116815260200190565b60005b83811015620013455781810151838201526020016200132b565b8381111562001355576000848401525b50505050565b600081518084526200137581602086016020860162001328565b601f01601f19169290920160200192915050565b6000606085835260208181850152620013a5828501876200135b565b6040858203818701528187518084528484019150848160051b850101858a0160005b838110156200141457868303601f19018552815180518a8552620013ee8b8601826200135b565b828b0151868c0152918801519488019490945294880194925090870190600101620013c7565b50909c9b505050505050505050505050565b60006001600160401b03821115620014425762001442620010cf565b5060051b60200190565b600082601f8301126200145e57600080fd5b8135602062001471620011908362001426565b82815260059290921b840181019181810190868411156200149157600080fd5b8286015b84811015620014ae578035835291830191830162001495565b509695505050505050565b600080600080600060a08688031215620014d257600080fd5b8535620014df816200102c565b94506020868101356001600160401b0380821115620014fd57600080fd5b6200150b8a838b016200116d565b965060408901359150808211156200152257600080fd5b818901915089601f8301126200153757600080fd5b813562001548620011908262001426565b81815260059190911b8301840190848101908c8311156200156857600080fd5b8585015b83811015620015a557803585811115620015865760008081fd5b620015968f89838a01016200116d565b8452509186019186016200156c565b50975050506060890135925080831115620015bf57600080fd5b620015cd8a848b016200144c565b94506080890135925080831115620015e457600080fd5b5050620015f4888289016200144c565b9150509295509295909350565b60a0815260006200161660a08301886200135b565b82810360208401526200162a81886200135b565b905082810360408401526200164081876200135b565b915050836060830152600283106200165c576200165c6200107a565b8260808301529695505050505050565b6020808252601590820152742cb7ba9030b932903737ba103a34329037bbb732b960591b604082015260600190565b634e487b7160e01b600052603260045260246000fd5b6000600019821415620016d457634e487b7160e01b600052601160045260246000fd5b5060010190565b60006020808385031215620016ef57600080fd5b82516001600160401b038111156200170657600080fd5b8301601f810185136200171857600080fd5b805162001729620011908262001426565b81815260059190911b820183019083810190878311156200174957600080fd5b928401925b828410156200177457835162001764816200102c565b825292840192908401906200174e565b979650505050505050565b6000602082840312156200179257600080fd5b8151620004b1816200102c565b600080600080600060a08688031215620017b857600080fd5b85519450602086015193506040860151620017d3816200127e565b6060870151909350620017e6816200128c565b608087015190925062001270816200128c565b6000602082840312156200180c57600080fd5b8151620004b1816200128c565b602080825260159082015274165bdd48185c99481b9bdd0818481c185d1a595b9d605a1b604082015260600190565b600082601f8301126200185a57600080fd5b81516200186b620011908262001143565b8181528460208386010111156200188157600080fd5b6200189482602083016020870162001328565b949350505050565b600080600060608486031215620018b257600080fd5b835192506020808501516001600160401b0380821115620018d257600080fd5b620018e08883890162001848565b94506040870151915080821115620018f757600080fd5b818701915087601f8301126200190c57600080fd5b81516200191d620011908262001426565b81815260059190911b8301840190848101908a8311156200193d57600080fd5b8585015b83811015620019c8578051858111156200195b5760008081fd5b86016060818e03601f19011215620019735760008081fd5b6200197d620010e5565b8882015187811115620019905760008081fd5b620019a08f8b8386010162001848565b8252506040828101518a83015260609092015191810191909152835291860191860162001941565b508096505050505050509250925092565b600081518084526020808501945080840160005b8381101562000ffd57815187529582019590820190600101620019ed565b6001600160a01b038616815260a0602080830182905260009162001a32908401886200135b565b8381036040850152865180825282820190600581901b83018401848a0160005b8381101562001a8457601f1986840301855262001a718383516200135b565b9487019492509086019060010162001a52565b5050868103606088015262001a9a818a620019d9565b945050505050828103608084015262001ab48185620019d9565b98975050505050505050565b600181811c9082168062001ad557607f821691505b6020821081141562001af757634e487b7160e01b600052602260045260246000fd5b5091905056fe60806040523480156200001157600080fd5b5060405162000ab938038062000ab9833981016040819052620000349162000442565b60008054336001600160a01b031991821617909155600180549091166001600160a01b038716179055426002558351620000769060039060208701906200019c565b50815183511480156200008a575080518351145b15620001915760005b83518110156200018f5760006040518060600160405280868481518110620000bf57620000bf6200051c565b60200260200101518152602001858481518110620000e157620000e16200051c565b602002602001015181526020018484815181106200010357620001036200051c565b6020908102919091018101519091526004805460018101825560009190915282518051939450849360039092027f8a35acfbc15ff81a39ae7d344fd709f28e8600b4aa8c65c6b64bfe7fe36bd19b019262000164928492909101906200019c565b506020820151600182015560409091015160029091015550620001878162000532565b905062000093565b505b505050505062000599565b828054620001aa906200055c565b90600052602060002090601f016020900481019282620001ce576000855562000219565b82601f10620001e957805160ff191683800117855562000219565b8280016001018555821562000219579182015b8281111562000219578251825591602001919060010190620001fc565b50620002279291506200022b565b5090565b5b808211156200022757600081556001016200022c565b634e487b7160e01b600052604160045260246000fd5b604051601f8201601f191681016001600160401b038111828210171562000283576200028362000242565b604052919050565b600082601f8301126200029d57600080fd5b81516001600160401b03811115620002b957620002b962000242565b6020620002cf601f8301601f1916820162000258565b8281528582848701011115620002e457600080fd5b60005b8381101562000304578581018301518282018401528201620002e7565b83811115620003165760008385840101525b5095945050505050565b60006001600160401b038211156200033c576200033c62000242565b5060051b60200190565b600082601f8301126200035857600080fd5b81516020620003716200036b8362000320565b62000258565b82815260059290921b840181019181810190868411156200039157600080fd5b8286015b84811015620003d55780516001600160401b03811115620003b65760008081fd5b620003c68986838b01016200028b565b84525091830191830162000395565b509695505050505050565b600082601f830112620003f257600080fd5b81516020620004056200036b8362000320565b82815260059290921b840181019181810190868411156200042557600080fd5b8286015b84811015620003d5578051835291830191830162000429565b600080600080600060a086880312156200045b57600080fd5b85516001600160a01b03811681146200047357600080fd5b60208701519095506001600160401b03808211156200049157600080fd5b6200049f89838a016200028b565b95506040880151915080821115620004b657600080fd5b620004c489838a0162000346565b94506060880151915080821115620004db57600080fd5b620004e989838a01620003e0565b935060808801519150808211156200050057600080fd5b506200050f88828901620003e0565b9150509295509295909350565b634e487b7160e01b600052603260045260246000fd5b60006000198214156200055557634e487b7160e01b600052601160045260246000fd5b5060010190565b600181811c908216806200057157607f821691505b602082108114156200059357634e487b7160e01b600052602260045260246000fd5b50919050565b61051080620005a96000396000f3fe608060405234801561001057600080fd5b506004361061002b5760003560e01c8063cc797fd514610030575b600080fd5b610038610050565b604051610047939291906103b6565b60405180910390f35b60006060806000600160009054906101000a90046001600160a01b03166001600160a01b031663ab8c71c06040518163ffffffff1660e01b815260040160206040518083038186803b1580156100a557600080fd5b505afa1580156100b9573d6000803e3d6000fd5b505050506040513d601f19601f820116820180604052508101906100dd919061044d565b604051623d104160e31b81523360048201529091506001600160a01b038216906301e882089060240160206040518083038186803b15801561011e57600080fd5b505afa158015610132573d6000803e3d6000fd5b505050506040513d601f19601f82011682018060405250810190610156919061047d565b15156001146101cb5760405162461bcd60e51b815260206004820152603760248201527f596f7520646f6e27742068617665207065726d697373696f6e20746f20616363604482015276195cdcc81d1a1a5cc81b59591a58d85b081c995c1bdc9d604a1b606482015260840160405180910390fd5b600254600360048180546101de9061049f565b80601f016020809104026020016040519081016040528092919081815260200182805461020a9061049f565b80156102575780601f1061022c57610100808354040283529160200191610257565b820191906000526020600020905b81548152906001019060200180831161023a57829003601f168201915b5050505050915080805480602002602001604051908101604052809291908181526020016000905b8282101561035757838290600052602060002090600302016040518060600160405290816000820180546102b29061049f565b80601f01602080910402602001604051908101604052809291908181526020018280546102de9061049f565b801561032b5780601f106103005761010080835404028352916020019161032b565b820191906000526020600020905b81548152906001019060200180831161030e57829003601f168201915b50505050508152602001600182015481526020016002820154815250508152602001906001019061027f565b50505050905093509350935050909192565b6000815180845260005b8181101561038f57602081850181015186830182015201610373565b818111156103a1576000602083870101525b50601f01601f19169290920160200192915050565b60006060858352602081818501526103d082850187610369565b6040858203818701528187518084528484019150848160051b850101858a0160005b8381101561043b57868303601f19018552815180518a85526104168b860182610369565b828b0151868c01529188015194880194909452948801949250908701906001016103f2565b50909c9b505050505050505050505050565b60006020828403121561045f57600080fd5b81516001600160a01b038116811461047657600080fd5b9392505050565b60006020828403121561048f57600080fd5b8151801515811461047657600080fd5b600181811c908216806104b357607f821691505b602082108114156104d457634e487b7160e01b600052602260045260246000fd5b5091905056fea26469706673582212206b20f49c08a51a4a4a379e70c94f3f667231aa5799135889bef0cc4229ed12f264736f6c63430008090033a2646970667358221220c879afec6507be7e19b33c6ac6704fd0a1126f2c4d98ad81b15b982c165768f164736f6c63430008090033",
  "immutableReferences": {},
  "source": "// SPDX-License-Identifier: MIT\r\npragma solidity ^0.8.0;\r\nimport \"./1_Library.sol\";\r\nimport \"./2_Ownable.sol\";\r\nimport \"./3_EHR.sol\";\r\nimport \"./4_Hospital.sol\";\r\nimport \"./7_HealthData.sol\";\r\nimport \"./8_MedicalReport.sol\";\r\n\r\ncontract Doctor is Ownable {\r\n    // STATE VARIABLES\r\n    // biodata\r\n    string firstName;\r\n    string lastName;\r\n    string id; // iqama, passport\r\n    uint dateOfBirth;\r\n    Library.Sex sex;\r\n    Library.User user;\r\n\r\n    // connected smart contracts & values\r\n    address public hospital;\r\n    mapping(address => bool) patients; // true if patient grants permission\r\n    address[] patientsAddress;\r\n    address ehr;\r\n\r\n\r\n    // CONSTRUCTOR\r\n    constructor(\r\n        string memory _firstName,\r\n        string memory _lastName,\r\n        string memory _id,\r\n        uint _dateOfBirth,\r\n        Library.Sex _sex\r\n    ) {\r\n        // biodata\r\n        firstName = _firstName;\r\n        lastName = _lastName;\r\n        id = _id;\r\n        dateOfBirth = _dateOfBirth;\r\n        sex = _sex;\r\n        user = Library.User.Patient;\r\n        ehr = msg.sender;\r\n    }\r\n\r\n    // MODIFIERS\r\n    modifier isPatient() {\r\n        address contractAddress = ehr; // ! assign after deploying EHR \r\n        require(EHR(contractAddress).hasPatientRecord(tx.origin) == true, \"You are not a patient\");\r\n        _;\r\n    }\r\n\r\n    modifier permittedAccess(address _patient) {\r\n        require(patients[_patient] == true, \"You don't have access to patient's medical report\");\r\n        _;\r\n    }\r\n\r\n    // FUNCTIONS\r\n    function getBiodata() public view isOwner returns(\r\n        string memory, \r\n        string memory, \r\n        string memory, \r\n        uint, \r\n        Library.Sex\r\n    ) {\r\n        return (firstName, lastName, id, dateOfBirth, sex);\r\n    }\r\n\r\n    function setBiodata(\r\n        string memory _firstName,\r\n        string memory _lastName,\r\n        string memory _id,\r\n        uint _dateOfBirth,\r\n        Library.Sex _sex\r\n    ) public isOwner {\r\n        // if (firstName != _firstName) \r\n        firstName = _firstName;\r\n        // if (lastName != _lastName) \r\n        lastName = _lastName;\r\n        // if (id != _id) \r\n        id = _id;\r\n        // if (dateOfBirth != _dateOfBirth) \r\n        dateOfBirth = _dateOfBirth;\r\n        // if (sex != _sex) \r\n        sex = _sex;\r\n    }\r\n\r\n    function setHospital (address _hospital) public payable isOwner {\r\n        if(hospital != address(0)) {\r\n            // remove from old Hospital\r\n            Hospital(hospital).removeDoctor();\r\n        }\r\n\r\n        // add to Hospital\r\n        hospital = _hospital;\r\n        Hospital(hospital).addDoctor();\r\n    }\r\n\r\n    function getPatients() public view isOwner returns(address[] memory, uint) {\r\n        address[] memory _patients = new address[](patientsAddress.length);\r\n        uint count = 0;\r\n        for (uint i = 0; i < patientsAddress.length; ++i) {\r\n            if (patients[patientsAddress[i]]) {\r\n                _patients[count] = patientsAddress[i];\r\n                count++;\r\n            }\r\n        }\r\n        return (_patients, count);\r\n    }\r\n\r\n    function addPatient() public isPatient {\r\n        patients[msg.sender] = true;\r\n        patientsAddress.push(msg.sender);\r\n    }\r\n\r\n    function removePatient() public isPatient {\r\n        patients[msg.sender] = false;\r\n    }\r\n\r\n    function addMedicalReport(\r\n        address _patient,\r\n        string memory _diagnostic,\r\n        string[] memory _medicine, \r\n        uint[] memory _numDays, \r\n        uint[] memory _perDay\r\n    ) public payable isOwner permittedAccess(_patient) returns(address) {\r\n        MedicalReport _medicalReport = new MedicalReport(_patient, _diagnostic, _medicine, _numDays, _perDay);\r\n        address _medicalReportAddress = address(_medicalReport);\r\n        \r\n        Patient(_patient).addMedicalReport(_medicalReportAddress);\r\n        \r\n        return _medicalReportAddress;\r\n    }\r\n\r\n    function getPatientMedicalReports(address _patient) public view isOwner returns(address[] memory) {\r\n        address[] memory _medicalReports = Patient(_patient).getMedicalReports();\r\n        return _medicalReports;\r\n    }\r\n\r\n    function getMedicalReportDetails(address _medicalReport) public view isOwner returns(\r\n        uint,\r\n        string memory,\r\n        Library.Prescription[] memory\r\n    ) {\r\n        (uint _dateTime, string memory _diagnostic, Library.Prescription[] memory _prescriptions) = MedicalReport(_medicalReport).getMedicalReportDetails();\r\n        return (_dateTime, _diagnostic, _prescriptions);\r\n    }\r\n\r\n    function getHealthData(address _patient) public view isOwner returns(\r\n        uint, \r\n        uint, \r\n        Library.BloodType, \r\n        bool, \r\n        bool\r\n    ) {\r\n        address _healthData = Patient(_patient).healthData();\r\n        return HealthData(_healthData).getHealthData();\r\n    }\r\n\r\n    function setHealthData(\r\n        address _patient,\r\n        uint _height, \r\n        uint _weight, \r\n        Library.BloodType _bloodType, \r\n        bool _isSmoker, \r\n        bool _hasAllergy\r\n    ) public isOwner {\r\n        address _healthData = Patient(_patient).healthData();\r\n        HealthData(_healthData).setHealthData(_height, _weight, _bloodType, _isSmoker, _hasAllergy);\r\n    }\r\n}\r\n",
  "sourcePath": "D:\\Blockchain\\dapp_ehr_1\\truffle\\contracts\\5_Doctor.sol",
  "compiler": {
    "name": "solc",
    "version": "0.8.9+commit.e5eed63a.Emscripten.clang"
  },
  "schemaVersion": "3.4.3",
  "updatedAt": "2023-01-31T02:46:14.134Z",
  "devdoc": {
    "kind": "dev",
    "methods": {},
    "version": 1
  },
  "userdoc": {
    "kind": "user",
    "methods": {},
    "version": 1
  }
}