{
  "contractName": "EHR",
  "abi": [
    {
      "inputs": [],
      "name": "count",
      "outputs": [
        {
          "internalType": "uint256",
          "name": "",
          "type": "uint256"
        }
      ],
      "stateMutability": "view",
      "type": "function"
    },
    {
      "inputs": [
        {
          "internalType": "address",
          "name": "",
          "type": "address"
        }
      ],
      "name": "doctorRecord",
      "outputs": [
        {
          "internalType": "address",
          "name": "",
          "type": "address"
        }
      ],
      "stateMutability": "view",
      "type": "function"
    },
    {
      "inputs": [
        {
          "internalType": "address",
          "name": "",
          "type": "address"
        }
      ],
      "name": "hasDoctorRecord",
      "outputs": [
        {
          "internalType": "bool",
          "name": "",
          "type": "bool"
        }
      ],
      "stateMutability": "view",
      "type": "function"
    },
    {
      "inputs": [
        {
          "internalType": "address",
          "name": "",
          "type": "address"
        }
      ],
      "name": "hasHospitalRecord",
      "outputs": [
        {
          "internalType": "bool",
          "name": "",
          "type": "bool"
        }
      ],
      "stateMutability": "view",
      "type": "function"
    },
    {
      "inputs": [
        {
          "internalType": "address",
          "name": "",
          "type": "address"
        }
      ],
      "name": "hasPatientRecord",
      "outputs": [
        {
          "internalType": "bool",
          "name": "",
          "type": "bool"
        }
      ],
      "stateMutability": "view",
      "type": "function"
    },
    {
      "inputs": [
        {
          "internalType": "address",
          "name": "",
          "type": "address"
        }
      ],
      "name": "hospitalRecord",
      "outputs": [
        {
          "internalType": "address",
          "name": "",
          "type": "address"
        }
      ],
      "stateMutability": "view",
      "type": "function"
    },
    {
      "inputs": [
        {
          "internalType": "uint256",
          "name": "",
          "type": "uint256"
        }
      ],
      "name": "hospitalRecords",
      "outputs": [
        {
          "internalType": "address",
          "name": "",
          "type": "address"
        }
      ],
      "stateMutability": "view",
      "type": "function"
    },
    {
      "inputs": [
        {
          "internalType": "address",
          "name": "",
          "type": "address"
        }
      ],
      "name": "patientRecord",
      "outputs": [
        {
          "internalType": "address",
          "name": "",
          "type": "address"
        }
      ],
      "stateMutability": "view",
      "type": "function"
    },
    {
      "inputs": [
        {
          "internalType": "string",
          "name": "_name",
          "type": "string"
        },
        {
          "internalType": "string",
          "name": "_location",
          "type": "string"
        },
        {
          "internalType": "string",
          "name": "_id",
          "type": "string"
        }
      ],
      "name": "addHospitalRecord",
      "outputs": [
        {
          "internalType": "address",
          "name": "",
          "type": "address"
        }
      ],
      "stateMutability": "payable",
      "type": "function"
    },
    {
      "inputs": [
        {
          "internalType": "string",
          "name": "_firstName",
          "type": "string"
        },
        {
          "internalType": "string",
          "name": "_lastName",
          "type": "string"
        },
        {
          "internalType": "string",
          "name": "_id",
          "type": "string"
        },
        {
          "internalType": "uint256",
          "name": "_dateOfBirth",
          "type": "uint256"
        },
        {
          "internalType": "enum Library.Sex",
          "name": "_sex",
          "type": "uint8"
        }
      ],
      "name": "addDoctorRecord",
      "outputs": [
        {
          "internalType": "address",
          "name": "",
          "type": "address"
        }
      ],
      "stateMutability": "payable",
      "type": "function"
    },
    {
      "inputs": [
        {
          "internalType": "string",
          "name": "_firstName",
          "type": "string"
        },
        {
          "internalType": "string",
          "name": "_lastName",
          "type": "string"
        },
        {
          "internalType": "string",
          "name": "_id",
          "type": "string"
        },
        {
          "internalType": "uint256",
          "name": "_dateOfBirth",
          "type": "uint256"
        },
        {
          "internalType": "enum Library.Sex",
          "name": "_sex",
          "type": "uint8"
        }
      ],
      "name": "addPatientRecord",
      "outputs": [
        {
          "internalType": "address",
          "name": "",
          "type": "address"
        }
      ],
      "stateMutability": "payable",
      "type": "function"
    }
  ],
  "bytecode": "0x608060405234801561001057600080fd5b5061601b806100206000396000f3fe608060405260043610620000a95760003560e01c80634a931a0c116200006c5780634a931a0c14620001df5780635d9db49514620001f65780638973604914620002305780639840e1e51462000247578063b416a2c6146200027b578063d8639fbf146200029257600080fd5b806306661abd14620000ae57806314dfd8a114620000d9578063194578d0146200011e57806332138b1014620001715780633bfb78a414620001a5575b600080fd5b348015620000bb57600080fd5b50620000c660075481565b6040519081526020015b60405180910390f35b348015620000e657600080fd5b506200010d620000f8366004620005e9565b60026020526000908152604090205460ff1681565b6040519015158152602001620000d0565b3480156200012b57600080fd5b50620001586200013d366004620005e9565b6004602052600090815260409020546001600160a01b031681565b6040516001600160a01b039091168152602001620000d0565b3480156200017e57600080fd5b506200010d62000190366004620005e9565b60006020819052908152604090205460ff1681565b348015620001b257600080fd5b5062000158620001c4366004620005e9565b6005602052600090815260409020546001600160a01b031681565b62000158620001f0366004620006c6565b620002cc565b3480156200020357600080fd5b5062000158620002153660046200077c565b6006602052600090815260409020546001600160a01b031681565b620001586200024136600462000796565b620003c6565b3480156200025457600080fd5b506200010d62000266366004620005e9565b60016020526000908152604090205460ff1681565b620001586200028c366004620006c6565b620004cc565b3480156200029f57600080fd5b5062000158620002b1366004620005e9565b6003602052600090815260409020546001600160a01b031681565b3260009081526001602052604081205460ff1615620003085760405162461bcd60e51b8152600401620002ff9062000828565b60405180910390fd5b3260009081526020819052604090205460ff16156200033b5760405162461bcd60e51b8152600401620002ff906200085d565b600086868686866040516200035090620005bf565b62000360959493929190620008ef565b604051809103906000f0801580156200037d573d6000803e3d6000fd5b50326000908152600160208181526040808420805460ff191690931790925560049052902080546001600160a01b0319166001600160a01b038316179055979650505050505050565b3260009081526002602052604081205460ff1615620003f95760405162461bcd60e51b8152600401620002ff9062000966565b3260009081526001602052604090205460ff16156200042c5760405162461bcd60e51b8152600401620002ff9062000828565b60008484846040516200043f90620005cd565b6200044d93929190620009a7565b604051809103906000f0801580156200046a573d6000803e3d6000fd5b5032600090815260208181526040808320805460ff191660011790556003909152812080546001600160a01b0384166001600160a01b031990911617905560078054929350839291620004bd83620009f0565b90915550909695505050505050565b3260009081526002602052604081205460ff1615620004ff5760405162461bcd60e51b8152600401620002ff9062000966565b3260009081526020819052604090205460ff1615620005325760405162461bcd60e51b8152600401620002ff906200085d565b600086868686866040516200054790620005db565b62000557959493929190620008ef565b604051809103906000f08015801562000574573d6000803e3d6000fd5b503260009081526002602090815260408083208054600160ff199091161790556005909152902080546001600160a01b0319166001600160a01b038316179055979650505050505050565b6129538062000a1b83390190565b610f7d806200336e83390190565b611cfb80620042eb83390190565b600060208284031215620005fc57600080fd5b81356001600160a01b03811681146200061457600080fd5b9392505050565b634e487b7160e01b600052604160045260246000fd5b600082601f8301126200064357600080fd5b813567ffffffffffffffff808211156200066157620006616200061b565b604051601f8301601f19908116603f011681019082821181831017156200068c576200068c6200061b565b81604052838152866020858801011115620006a657600080fd5b836020870160208301376000602085830101528094505050505092915050565b600080600080600060a08688031215620006df57600080fd5b853567ffffffffffffffff80821115620006f857600080fd5b6200070689838a0162000631565b965060208801359150808211156200071d57600080fd5b6200072b89838a0162000631565b955060408801359150808211156200074257600080fd5b50620007518882890162000631565b935050606086013591506080860135600281106200076e57600080fd5b809150509295509295909350565b6000602082840312156200078f57600080fd5b5035919050565b600080600060608486031215620007ac57600080fd5b833567ffffffffffffffff80821115620007c557600080fd5b620007d38783880162000631565b94506020860135915080821115620007ea57600080fd5b620007f88783880162000631565b935060408601359150808211156200080f57600080fd5b506200081e8682870162000631565b9150509250925092565b6020808252818101527f596f7520616c72656164792068617665206120646f63746f72207265636f7264604082015260600190565b60208082526022908201527f596f7520616c72656164792068617665206120686f73706974616c207265636f6040820152611c9960f21b606082015260800190565b6000815180845260005b81811015620008c757602081850181015186830182015201620008a9565b81811115620008da576000602083870101525b50601f01601f19169290920160200192915050565b60a0815260006200090460a08301886200089f565b82810360208401526200091881886200089f565b905082810360408401526200092e81876200089f565b915050836060830152600283106200095657634e487b7160e01b600052602160045260246000fd5b8260808301529695505050505050565b60208082526021908201527f596f7520616c7265616479206861766520612070617469656e74207265636f726040820152601960fa1b606082015260800190565b606081526000620009bc60608301866200089f565b8281036020840152620009d081866200089f565b90508281036040840152620009e681856200089f565b9695505050505050565b600060001982141562000a1357634e487b7160e01b600052601160045260246000fd5b506001019056fe60806040523480156200001157600080fd5b50604051620029533803806200295383398101604081905262000034916200024f565b600080546001600160a01b0319163217905584516200005b906001906020880190620000dc565b50835162000071906002906020870190620000dc565b50825162000087906003906020860190620000dc565b5060048290556005805482919060ff191660018381811115620000ae57620000ae62000304565b0217905550506005805461ff00191690555050600880546001600160a01b0319163317905550620003579050565b828054620000ea906200031a565b90600052602060002090601f0160209004810192826200010e576000855562000159565b82601f106200012957805160ff191683800117855562000159565b8280016001018555821562000159579182015b82811115620001595782518255916020019190600101906200013c565b50620001679291506200016b565b5090565b5b808211156200016757600081556001016200016c565b634e487b7160e01b600052604160045260246000fd5b600082601f830112620001aa57600080fd5b81516001600160401b0380821115620001c757620001c762000182565b604051601f8301601f19908116603f01168101908282118183101715620001f257620001f262000182565b816040528381526020925086838588010111156200020f57600080fd5b600091505b8382101562000233578582018301518183018401529082019062000214565b83821115620002455760008385830101525b9695505050505050565b600080600080600060a086880312156200026857600080fd5b85516001600160401b03808211156200028057600080fd5b6200028e89838a0162000198565b96506020880151915080821115620002a557600080fd5b620002b389838a0162000198565b95506040880151915080821115620002ca57600080fd5b50620002d98882890162000198565b93505060608601519150608086015160028110620002f657600080fd5b809150509295509295909350565b634e487b7160e01b600052602160045260246000fd5b600181811c908216806200032f57607f821691505b602082108114156200035157634e487b7160e01b600052602260045260246000fd5b50919050565b6125ec80620003676000396000f3fe608060405260043610620000b55760003560e01c8063aa2fedde116200006c578063aa2fedde14620001bb578063b9b89f5914620001f2578063dec1c9041462000228578063e4025203146200023f578063f59f16031462000256578063fcc8c203146200028157600080fd5b806312ad1c3714620000ba57806357a5369714620000eb5780636ceb79cd146200011f5780638908e67f14620001575780639be1d2e4146200017e578063a505612b14620001a3575b600080fd5b348015620000c757600080fd5b50620000d262000299565b604051620000e292919062001008565b60405180910390f35b348015620000f857600080fd5b50620001106200010a36600462001045565b62000406565b604051620000e2919062001065565b3480156200012c57600080fd5b50620001446200013e36600462001045565b620004b8565b604051620000e295949392919062001090565b3480156200016457600080fd5b506200017c62000176366004620011c9565b620005ef565b005b3480156200018b57600080fd5b506200017c6200019d3660046200129b565b62000690565b348015620001b057600080fd5b506200017c620007aa565b348015620001c857600080fd5b50600554620001e3906201000090046001600160a01b031681565b604051620000e2919062001314565b348015620001ff57600080fd5b50620002176200021136600462001045565b620008b5565b604051620000e29392919062001389565b6200017c6200023936600462001045565b62000976565b620001e362000250366004620014b9565b62000aba565b3480156200026357600080fd5b506200026e62000c2a565b604051620000e295949392919062001601565b3480156200028e57600080fd5b506200017c62000e48565b60008054606091906001600160a01b03163214620002d45760405162461bcd60e51b8152600401620002cb906200166c565b60405180910390fd5b6007546000906001600160401b03811115620002f457620002f4620010cf565b6040519080825280602002602001820160405280156200031e578160200160208202803683370190505b5090506000805b600754811015620003fc5760066000600783815481106200034a576200034a6200169b565b60009182526020808320909101546001600160a01b0316835282019290925260400190205460ff1615620003e957600781815481106200038e576200038e6200169b565b9060005260206000200160009054906101000a90046001600160a01b0316838381518110620003c157620003c16200169b565b6001600160a01b039092166020928302919091019091015281620003e581620016b1565b9250505b620003f481620016b1565b905062000325565b5090925090509091565b6000546060906001600160a01b03163214620004365760405162461bcd60e51b8152600401620002cb906200166c565b6000826001600160a01b031663c682f5d46040518163ffffffff1660e01b815260040160006040518083038186803b1580156200047257600080fd5b505afa15801562000487573d6000803e3d6000fd5b505050506040513d6000823e601f3d908101601f19168201604052620004b19190810190620016db565b9392505050565b6000805481908190819081906001600160a01b03163214620004ee5760405162461bcd60e51b8152600401620002cb906200166c565b6000866001600160a01b031663d9ef76c26040518163ffffffff1660e01b815260040160206040518083038186803b1580156200052a57600080fd5b505afa1580156200053f573d6000803e3d6000fd5b505050506040513d601f19601f820116820180604052508101906200056591906200177f565b9050806001600160a01b031663919932d26040518163ffffffff1660e01b815260040160a06040518083038186803b158015620005a157600080fd5b505afa158015620005b6573d6000803e3d6000fd5b505050506040513d601f19601f82011682018060405250810190620005dc91906200179f565b939b929a50909850965090945092505050565b6000546001600160a01b031632146200061c5760405162461bcd60e51b8152600401620002cb906200166c565b84516200063190600190602088019062000f0e565b5083516200064790600290602087019062000f0e565b5082516200065d90600390602086019062000f0e565b5060048290556005805482919060ff1916600183818111156200068457620006846200107a565b02179055505050505050565b6000546001600160a01b03163214620006bd5760405162461bcd60e51b8152600401620002cb906200166c565b6000866001600160a01b031663d9ef76c26040518163ffffffff1660e01b815260040160206040518083038186803b158015620006f957600080fd5b505afa1580156200070e573d6000803e3d6000fd5b505050506040513d601f19601f820116820180604052508101906200073491906200177f565b604051633b942b6960e21b81529091506001600160a01b0382169063ee50ada4906200076d908990899089908990899060040162001090565b600060405180830381600087803b1580156200078857600080fd5b505af11580156200079d573d6000803e3d6000fd5b5050505050505050505050565b6008546040516314dfd8a160e01b81526001600160a01b039091169081906314dfd8a190620007de90329060040162001314565b60206040518083038186803b158015620007f757600080fd5b505afa1580156200080c573d6000803e3d6000fd5b505050506040513d601f19601f82011682018060405250810190620008329190620017f9565b1515600114620008565760405162461bcd60e51b8152600401620002cb9062001819565b50336000818152600660205260408120805460ff191660019081179091556007805491820181559091527fa66cc928b5edb82af9bd49922954155ab7b0942694bea4ce44661d9a8736c6880180546001600160a01b0319169091179055565b6000805460609081906001600160a01b03163214620008e85760405162461bcd60e51b8152600401620002cb906200166c565b6000806000866001600160a01b031663cc797fd56040518163ffffffff1660e01b815260040160006040518083038186803b1580156200092757600080fd5b505afa1580156200093c573d6000803e3d6000fd5b505050506040513d6000823e601f3d908101601f191682016040526200096691908101906200189c565b9199909850909650945050505050565b6000546001600160a01b03163214620009a35760405162461bcd60e51b8152600401620002cb906200166c565b6005546201000090046001600160a01b03161562000a2657600560029054906101000a90046001600160a01b03166001600160a01b031663c48722386040518163ffffffff1660e01b8152600401600060405180830381600087803b15801562000a0c57600080fd5b505af115801562000a21573d6000803e3d6000fd5b505050505b80600560026101000a8154816001600160a01b0302191690836001600160a01b03160217905550600560029054906101000a90046001600160a01b03166001600160a01b03166375a3f4e36040518163ffffffff1660e01b8152600401600060405180830381600087803b15801562000a9e57600080fd5b505af115801562000ab3573d6000803e3d6000fd5b5050505050565b600080546001600160a01b0316321462000ae85760405162461bcd60e51b8152600401620002cb906200166c565b6001600160a01b038616600090815260066020526040902054869060ff16151560011462000b735760405162461bcd60e51b815260206004820152603160248201527f596f7520646f6e277420686176652061636365737320746f2070617469656e7460448201527009dcc81b59591a58d85b081c995c1bdc9d607a1b6064820152608401620002cb565b6000878787878760405162000b889062000f9d565b62000b9895949392919062001a0b565b604051809103906000f08015801562000bb5573d6000803e3d6000fd5b50604051631de7604160e31b815290915081906001600160a01b038a169063ef3b02089062000be990849060040162001314565b600060405180830381600087803b15801562000c0457600080fd5b505af115801562000c19573d6000803e3d6000fd5b50929b9a5050505050505050505050565b60008054606091829182919081906001600160a01b0316321462000c625760405162461bcd60e51b8152600401620002cb906200166c565b600160026003600454600560009054906101000a900460ff1684805462000c899062001ac0565b80601f016020809104026020016040519081016040528092919081815260200182805462000cb79062001ac0565b801562000d085780601f1062000cdc5761010080835404028352916020019162000d08565b820191906000526020600020905b81548152906001019060200180831162000cea57829003601f168201915b5050505050945083805462000d1d9062001ac0565b80601f016020809104026020016040519081016040528092919081815260200182805462000d4b9062001ac0565b801562000d9c5780601f1062000d705761010080835404028352916020019162000d9c565b820191906000526020600020905b81548152906001019060200180831162000d7e57829003601f168201915b5050505050935082805462000db19062001ac0565b80601f016020809104026020016040519081016040528092919081815260200182805462000ddf9062001ac0565b801562000e305780601f1062000e045761010080835404028352916020019162000e30565b820191906000526020600020905b81548152906001019060200180831162000e1257829003601f168201915b50505050509250945094509450945094509091929394565b6008546040516314dfd8a160e01b81526001600160a01b039091169081906314dfd8a19062000e7c90329060040162001314565b60206040518083038186803b15801562000e9557600080fd5b505afa15801562000eaa573d6000803e3d6000fd5b505050506040513d601f19601f8201168201806040525081019062000ed09190620017f9565b151560011462000ef45760405162461bcd60e51b8152600401620002cb9062001819565b50336000908152600660205260409020805460ff19169055565b82805462000f1c9062001ac0565b90600052602060002090601f01602090048101928262000f40576000855562000f8b565b82601f1062000f5b57805160ff191683800117855562000f8b565b8280016001018555821562000f8b579182015b8281111562000f8b57825182559160200191906001019062000f6e565b5062000f9992915062000fab565b5090565b610ab98062001afe83390190565b5b8082111562000f99576000815560010162000fac565b600081518084526020808501945080840160005b8381101562000ffd5781516001600160a01b03168752958201959082019060010162000fd6565b509495945050505050565b6040815260006200101d604083018562000fc2565b90508260208301529392505050565b6001600160a01b03811681146200104257600080fd5b50565b6000602082840312156200105857600080fd5b8135620004b1816200102c565b602081526000620004b1602083018462000fc2565b634e487b7160e01b600052602160045260246000fd5b8581526020810185905260a0810160048510620010b157620010b16200107a565b60408201949094529115156060830152151560809091015292915050565b634e487b7160e01b600052604160045260246000fd5b604051606081016001600160401b03811182821017156200110a576200110a620010cf565b60405290565b604051601f8201601f191681016001600160401b03811182821017156200113b576200113b620010cf565b604052919050565b60006001600160401b038211156200115f576200115f620010cf565b50601f01601f191660200190565b600082601f8301126200117f57600080fd5b813562001196620011908262001143565b62001110565b818152846020838601011115620011ac57600080fd5b816020850160208301376000918101602001919091529392505050565b600080600080600060a08688031215620011e257600080fd5b85356001600160401b0380821115620011fa57600080fd5b6200120889838a016200116d565b965060208801359150808211156200121f57600080fd5b6200122d89838a016200116d565b955060408801359150808211156200124457600080fd5b5062001253888289016200116d565b935050606086013591506080860135600281106200127057600080fd5b809150509295509295909350565b600481106200104257600080fd5b80151581146200104257600080fd5b60008060008060008060c08789031215620012b557600080fd5b8635620012c2816200102c565b955060208701359450604087013593506060870135620012e2816200127e565b92506080870135620012f4816200128c565b915060a087013562001306816200128c565b809150509295509295509295565b6001600160a01b0391909116815260200190565b60005b83811015620013455781810151838201526020016200132b565b8381111562001355576000848401525b50505050565b600081518084526200137581602086016020860162001328565b601f01601f19169290920160200192915050565b6000606085835260208181850152620013a5828501876200135b565b6040858203818701528187518084528484019150848160051b850101858a0160005b838110156200141457868303601f19018552815180518a8552620013ee8b8601826200135b565b828b0151868c0152918801519488019490945294880194925090870190600101620013c7565b50909c9b505050505050505050505050565b60006001600160401b03821115620014425762001442620010cf565b5060051b60200190565b600082601f8301126200145e57600080fd5b8135602062001471620011908362001426565b82815260059290921b840181019181810190868411156200149157600080fd5b8286015b84811015620014ae578035835291830191830162001495565b509695505050505050565b600080600080600060a08688031215620014d257600080fd5b8535620014df816200102c565b94506020868101356001600160401b0380821115620014fd57600080fd5b6200150b8a838b016200116d565b965060408901359150808211156200152257600080fd5b818901915089601f8301126200153757600080fd5b813562001548620011908262001426565b81815260059190911b8301840190848101908c8311156200156857600080fd5b8585015b83811015620015a557803585811115620015865760008081fd5b620015968f89838a01016200116d565b8452509186019186016200156c565b50975050506060890135925080831115620015bf57600080fd5b620015cd8a848b016200144c565b94506080890135925080831115620015e457600080fd5b5050620015f4888289016200144c565b9150509295509295909350565b60a0815260006200161660a08301886200135b565b82810360208401526200162a81886200135b565b905082810360408401526200164081876200135b565b915050836060830152600283106200165c576200165c6200107a565b8260808301529695505050505050565b6020808252601590820152742cb7ba9030b932903737ba103a34329037bbb732b960591b604082015260600190565b634e487b7160e01b600052603260045260246000fd5b6000600019821415620016d457634e487b7160e01b600052601160045260246000fd5b5060010190565b60006020808385031215620016ef57600080fd5b82516001600160401b038111156200170657600080fd5b8301601f810185136200171857600080fd5b805162001729620011908262001426565b81815260059190911b820183019083810190878311156200174957600080fd5b928401925b828410156200177457835162001764816200102c565b825292840192908401906200174e565b979650505050505050565b6000602082840312156200179257600080fd5b8151620004b1816200102c565b600080600080600060a08688031215620017b857600080fd5b85519450602086015193506040860151620017d3816200127e565b6060870151909350620017e6816200128c565b608087015190925062001270816200128c565b6000602082840312156200180c57600080fd5b8151620004b1816200128c565b602080825260159082015274165bdd48185c99481b9bdd0818481c185d1a595b9d605a1b604082015260600190565b600082601f8301126200185a57600080fd5b81516200186b620011908262001143565b8181528460208386010111156200188157600080fd5b6200189482602083016020870162001328565b949350505050565b600080600060608486031215620018b257600080fd5b835192506020808501516001600160401b0380821115620018d257600080fd5b620018e08883890162001848565b94506040870151915080821115620018f757600080fd5b818701915087601f8301126200190c57600080fd5b81516200191d620011908262001426565b81815260059190911b8301840190848101908a8311156200193d57600080fd5b8585015b83811015620019c8578051858111156200195b5760008081fd5b86016060818e03601f19011215620019735760008081fd5b6200197d620010e5565b8882015187811115620019905760008081fd5b620019a08f8b8386010162001848565b8252506040828101518a83015260609092015191810191909152835291860191860162001941565b508096505050505050509250925092565b600081518084526020808501945080840160005b8381101562000ffd57815187529582019590820190600101620019ed565b6001600160a01b038616815260a0602080830182905260009162001a32908401886200135b565b8381036040850152865180825282820190600581901b83018401848a0160005b8381101562001a8457601f1986840301855262001a718383516200135b565b9487019492509086019060010162001a52565b5050868103606088015262001a9a818a620019d9565b945050505050828103608084015262001ab48185620019d9565b98975050505050505050565b600181811c9082168062001ad557607f821691505b6020821081141562001af757634e487b7160e01b600052602260045260246000fd5b5091905056fe60806040523480156200001157600080fd5b5060405162000ab938038062000ab9833981016040819052620000349162000442565b60008054336001600160a01b031991821617909155600180549091166001600160a01b038716179055426002558351620000769060039060208701906200019c565b50815183511480156200008a575080518351145b15620001915760005b83518110156200018f5760006040518060600160405280868481518110620000bf57620000bf6200051c565b60200260200101518152602001858481518110620000e157620000e16200051c565b602002602001015181526020018484815181106200010357620001036200051c565b6020908102919091018101519091526004805460018101825560009190915282518051939450849360039092027f8a35acfbc15ff81a39ae7d344fd709f28e8600b4aa8c65c6b64bfe7fe36bd19b019262000164928492909101906200019c565b506020820151600182015560409091015160029091015550620001878162000532565b905062000093565b505b505050505062000599565b828054620001aa906200055c565b90600052602060002090601f016020900481019282620001ce576000855562000219565b82601f10620001e957805160ff191683800117855562000219565b8280016001018555821562000219579182015b8281111562000219578251825591602001919060010190620001fc565b50620002279291506200022b565b5090565b5b808211156200022757600081556001016200022c565b634e487b7160e01b600052604160045260246000fd5b604051601f8201601f191681016001600160401b038111828210171562000283576200028362000242565b604052919050565b600082601f8301126200029d57600080fd5b81516001600160401b03811115620002b957620002b962000242565b6020620002cf601f8301601f1916820162000258565b8281528582848701011115620002e457600080fd5b60005b8381101562000304578581018301518282018401528201620002e7565b83811115620003165760008385840101525b5095945050505050565b60006001600160401b038211156200033c576200033c62000242565b5060051b60200190565b600082601f8301126200035857600080fd5b81516020620003716200036b8362000320565b62000258565b82815260059290921b840181019181810190868411156200039157600080fd5b8286015b84811015620003d55780516001600160401b03811115620003b65760008081fd5b620003c68986838b01016200028b565b84525091830191830162000395565b509695505050505050565b600082601f830112620003f257600080fd5b81516020620004056200036b8362000320565b82815260059290921b840181019181810190868411156200042557600080fd5b8286015b84811015620003d5578051835291830191830162000429565b600080600080600060a086880312156200045b57600080fd5b85516001600160a01b03811681146200047357600080fd5b60208701519095506001600160401b03808211156200049157600080fd5b6200049f89838a016200028b565b95506040880151915080821115620004b657600080fd5b620004c489838a0162000346565b94506060880151915080821115620004db57600080fd5b620004e989838a01620003e0565b935060808801519150808211156200050057600080fd5b506200050f88828901620003e0565b9150509295509295909350565b634e487b7160e01b600052603260045260246000fd5b60006000198214156200055557634e487b7160e01b600052601160045260246000fd5b5060010190565b600181811c908216806200057157607f821691505b602082108114156200059357634e487b7160e01b600052602260045260246000fd5b50919050565b61051080620005a96000396000f3fe608060405234801561001057600080fd5b506004361061002b5760003560e01c8063cc797fd514610030575b600080fd5b610038610050565b604051610047939291906103b6565b60405180910390f35b60006060806000600160009054906101000a90046001600160a01b03166001600160a01b031663ab8c71c06040518163ffffffff1660e01b815260040160206040518083038186803b1580156100a557600080fd5b505afa1580156100b9573d6000803e3d6000fd5b505050506040513d601f19601f820116820180604052508101906100dd919061044d565b604051623d104160e31b81523360048201529091506001600160a01b038216906301e882089060240160206040518083038186803b15801561011e57600080fd5b505afa158015610132573d6000803e3d6000fd5b505050506040513d601f19601f82011682018060405250810190610156919061047d565b15156001146101cb5760405162461bcd60e51b815260206004820152603760248201527f596f7520646f6e27742068617665207065726d697373696f6e20746f20616363604482015276195cdcc81d1a1a5cc81b59591a58d85b081c995c1bdc9d604a1b606482015260840160405180910390fd5b600254600360048180546101de9061049f565b80601f016020809104026020016040519081016040528092919081815260200182805461020a9061049f565b80156102575780601f1061022c57610100808354040283529160200191610257565b820191906000526020600020905b81548152906001019060200180831161023a57829003601f168201915b5050505050915080805480602002602001604051908101604052809291908181526020016000905b8282101561035757838290600052602060002090600302016040518060600160405290816000820180546102b29061049f565b80601f01602080910402602001604051908101604052809291908181526020018280546102de9061049f565b801561032b5780601f106103005761010080835404028352916020019161032b565b820191906000526020600020905b81548152906001019060200180831161030e57829003601f168201915b50505050508152602001600182015481526020016002820154815250508152602001906001019061027f565b50505050905093509350935050909192565b6000815180845260005b8181101561038f57602081850181015186830182015201610373565b818111156103a1576000602083870101525b50601f01601f19169290920160200192915050565b60006060858352602081818501526103d082850187610369565b6040858203818701528187518084528484019150848160051b850101858a0160005b8381101561043b57868303601f19018552815180518a85526104168b860182610369565b828b0151868c01529188015194880194909452948801949250908701906001016103f2565b50909c9b505050505050505050505050565b60006020828403121561045f57600080fd5b81516001600160a01b038116811461047657600080fd5b9392505050565b60006020828403121561048f57600080fd5b8151801515811461047657600080fd5b600181811c908216806104b357607f821691505b602082108114156104d457634e487b7160e01b600052602260045260246000fd5b5091905056fea26469706673582212206b20f49c08a51a4a4a379e70c94f3f667231aa5799135889bef0cc4229ed12f264736f6c63430008090033a2646970667358221220c879afec6507be7e19b33c6ac6704fd0a1126f2c4d98ad81b15b982c165768f164736f6c6343000809003360806040523480156200001157600080fd5b5060405162000f7d38038062000f7d833981016040819052620000349162000217565b600080546001600160a01b0319163217905582516200005b906001906020860190620000a4565b50815162000071906002906020850190620000a4565b50805162000087906003906020840190620000a4565b5050600680546001600160a01b0319163317905550620002e59050565b828054620000b290620002a8565b90600052602060002090601f016020900481019282620000d6576000855562000121565b82601f10620000f157805160ff191683800117855562000121565b8280016001018555821562000121579182015b828111156200012157825182559160200191906001019062000104565b506200012f92915062000133565b5090565b5b808211156200012f576000815560010162000134565b634e487b7160e01b600052604160045260246000fd5b600082601f8301126200017257600080fd5b81516001600160401b03808211156200018f576200018f6200014a565b604051601f8301601f19908116603f01168101908282118183101715620001ba57620001ba6200014a565b81604052838152602092508683858801011115620001d757600080fd5b600091505b83821015620001fb5785820183015181830184015290820190620001dc565b838211156200020d5760008385830101525b9695505050505050565b6000806000606084860312156200022d57600080fd5b83516001600160401b03808211156200024557600080fd5b620002538783880162000160565b945060208601519150808211156200026a57600080fd5b620002788783880162000160565b935060408601519150808211156200028f57600080fd5b506200029e8682870162000160565b9150509250925092565b600181811c90821680620002bd57607f821691505b60208210811415620002df57634e487b7160e01b600052602260045260246000fd5b50919050565b610c8880620002f56000396000f3fe608060405234801561001057600080fd5b506004361061006d5760003560e01c80636160a5c21461007257806375a3f4e31461008757806399faaa481461008f578063c4872238146100ae578063e4977440146100b6578063eb056845146100c9578063f59f1603146100d1575b600080fd5b610085610080366004610907565b6100e8565b005b610085610148565b610097610242565b6040516100a5929190610937565b60405180910390f35b61008561037a565b6100856100c4366004610a2b565b61051b565b610097610586565b6100d96106b4565b6040516100a593929190610b00565b6000546001600160a01b0316321461011b5760405162461bcd60e51b815260040161011290610b43565b60405180910390fd5b6001600160a01b038116600090815260046020526040902080546001919060ff191682805b021790555050565b600654604051639840e1e560e01b81523260048201526001600160a01b03909116908190639840e1e59060240160206040518083038186803b15801561018d57600080fd5b505afa1580156101a1573d6000803e3d6000fd5b505050506040513d601f19601f820116820180604052508101906101c59190610b88565b15156001146101e65760405162461bcd60e51b815260040161011290610baa565b50336000818152600460205260408120805460ff191660021790556005805460018101825591527f036b6384b5eca791c62761152d0c79bb0604c104a5fb6f4eb0703f3154bb3db00180546001600160a01b0319169091179055565b606060008060058054905067ffffffffffffffff81111561026557610265610988565b60405190808252806020026020018201604052801561028e578160200160208202803683370190505b5090506000805b60055481101561037057600260046000600584815481106102b8576102b8610bd8565b60009182526020808320909101546001600160a01b0316835282019290925260400190205460ff1660038111156102f1576102f1610b72565b1415610360576005818154811061030a5761030a610bd8565b9060005260206000200160009054906101000a90046001600160a01b031683838151811061033a5761033a610bd8565b6001600160a01b03909216602092830291909101909101528161035c81610bee565b9250505b61036981610bee565b9050610295565b5090939092509050565b600654604051639840e1e560e01b81523260048201526001600160a01b03909116908190639840e1e59060240160206040518083038186803b1580156103bf57600080fd5b505afa1580156103d3573d6000803e3d6000fd5b505050506040513d601f19601f820116820180604052508101906103f79190610b88565b15156001146104185760405162461bcd60e51b815260040161011290610baa565b3360009081526004602052604081205460ff16600381111561043c5761043c610b72565b141561048a5760405162461bcd60e51b815260206004820152601e60248201527f446f63746f72206973206e6f742061646465642070726576696f75736c7900006044820152606401610112565b60033360009081526004602052604090205460ff1660038111156104b0576104b0610b72565b14156104fa5760405162461bcd60e51b8152602060048201526019602482015278111bd8dd1bdc881a5cc8185b1c9958591e481c995b5bdd9959603a1b6044820152606401610112565b33600090815260046020526040902080546003919060ff1916600183610140565b6000546001600160a01b031632146105455760405162461bcd60e51b815260040161011290610b43565b825161055890600190602086019061086e565b50815161056c90600290602085019061086e565b50805161058090600390602084019061086e565b50505050565b606060008060058054905067ffffffffffffffff8111156105a9576105a9610988565b6040519080825280602002602001820160405280156105d2578160200160208202803683370190505b5090506000805b60055481101561037057600160046000600584815481106105fc576105fc610bd8565b60009182526020808320909101546001600160a01b0316835282019290925260400190205460ff16600381111561063557610635610b72565b14156106a4576005818154811061064e5761064e610bd8565b9060005260206000200160009054906101000a90046001600160a01b031683838151811061067e5761067e610bd8565b6001600160a01b0390921660209283029190910190910152816106a081610bee565b9250505b6106ad81610bee565b90506105d9565b60608060606001600260038280546106cb90610c17565b80601f01602080910402602001604051908101604052809291908181526020018280546106f790610c17565b80156107445780601f1061071957610100808354040283529160200191610744565b820191906000526020600020905b81548152906001019060200180831161072757829003601f168201915b5050505050925081805461075790610c17565b80601f016020809104026020016040519081016040528092919081815260200182805461078390610c17565b80156107d05780601f106107a5576101008083540402835291602001916107d0565b820191906000526020600020905b8154815290600101906020018083116107b357829003601f168201915b505050505091508080546107e390610c17565b80601f016020809104026020016040519081016040528092919081815260200182805461080f90610c17565b801561085c5780601f106108315761010080835404028352916020019161085c565b820191906000526020600020905b81548152906001019060200180831161083f57829003601f168201915b50505050509050925092509250909192565b82805461087a90610c17565b90600052602060002090601f01602090048101928261089c57600085556108e2565b82601f106108b557805160ff19168380011785556108e2565b828001600101855582156108e2579182015b828111156108e25782518255916020019190600101906108c7565b506108ee9291506108f2565b5090565b5b808211156108ee57600081556001016108f3565b60006020828403121561091957600080fd5b81356001600160a01b038116811461093057600080fd5b9392505050565b604080825283519082018190526000906020906060840190828701845b828110156109795781516001600160a01b031684529284019290840190600101610954565b50505092019290925292915050565b634e487b7160e01b600052604160045260246000fd5b600082601f8301126109af57600080fd5b813567ffffffffffffffff808211156109ca576109ca610988565b604051601f8301601f19908116603f011681019082821181831017156109f2576109f2610988565b81604052838152866020858801011115610a0b57600080fd5b836020870160208301376000602085830101528094505050505092915050565b600080600060608486031215610a4057600080fd5b833567ffffffffffffffff80821115610a5857600080fd5b610a648783880161099e565b94506020860135915080821115610a7a57600080fd5b610a868783880161099e565b93506040860135915080821115610a9c57600080fd5b50610aa98682870161099e565b9150509250925092565b6000815180845260005b81811015610ad957602081850181015186830182015201610abd565b81811115610aeb576000602083870101525b50601f01601f19169290920160200192915050565b606081526000610b136060830186610ab3565b8281036020840152610b258186610ab3565b90508281036040840152610b398185610ab3565b9695505050505050565b6020808252601590820152742cb7ba9030b932903737ba103a34329037bbb732b960591b604082015260600190565b634e487b7160e01b600052602160045260246000fd5b600060208284031215610b9a57600080fd5b8151801515811461093057600080fd5b6020808252601490820152732cb7ba9030b932903737ba1030903237b1ba37b960611b604082015260600190565b634e487b7160e01b600052603260045260246000fd5b6000600019821415610c1057634e487b7160e01b600052601160045260246000fd5b5060010190565b600181811c90821680610c2b57607f821691505b60208210811415610c4c57634e487b7160e01b600052602260045260246000fd5b5091905056fea26469706673582212209218e70fb9314b09c29a4af790a01cf7a53341f9e1db09618324bbf66aeb81db64736f6c6343000809003360806040523480156200001157600080fd5b5060405162001cfb38038062001cfb833981016040819052620000349162000307565b600080546001600160a01b0319163217905584516200005b90600190602088019062000178565b5083516200007190600290602087019062000178565b5082516200008790600390602086019062000178565b5060048290556005805482919060ff191660018381811115620000ae57620000ae620003bc565b02179055506005805461ff0019169055604051600090620000cf9062000207565b604051809103906000f080158015620000ec573d6000803e3d6000fd5b506005805462010000600160b01b031916620100006001600160a01b03841602179055604051909150600090620001239062000215565b604051809103906000f08015801562000140573d6000803e3d6000fd5b50600780546001600160a01b039092166001600160a01b03199283161790556008805490911633179055506200040f95505050505050565b8280546200018690620003d2565b90600052602060002090601f016020900481019282620001aa5760008555620001f5565b82601f10620001c557805160ff1916838001178555620001f5565b82800160010185558215620001f5579182015b82811115620001f5578251825591602001919060010190620001d8565b506200020392915062000223565b5090565b610560806200157083390190565b61022b8062001ad083390190565b5b8082111562000203576000815560010162000224565b634e487b7160e01b600052604160045260246000fd5b600082601f8301126200026257600080fd5b81516001600160401b03808211156200027f576200027f6200023a565b604051601f8301601f19908116603f01168101908282118183101715620002aa57620002aa6200023a565b81604052838152602092508683858801011115620002c757600080fd5b600091505b83821015620002eb5785820183015181830184015290820190620002cc565b83821115620002fd5760008385830101525b9695505050505050565b600080600080600060a086880312156200032057600080fd5b85516001600160401b03808211156200033857600080fd5b6200034689838a0162000250565b965060208801519150808211156200035d57600080fd5b6200036b89838a0162000250565b955060408801519150808211156200038257600080fd5b50620003918882890162000250565b93505060608601519150608086015160028110620003ae57600080fd5b809150509295509295909350565b634e487b7160e01b600052602160045260246000fd5b600181811c90821680620003e757607f821691505b602082108114156200040957634e487b7160e01b600052602260045260246000fd5b50919050565b611151806200041f6000396000f3fe6080604052600436106100915760003560e01c8063b9b89f5911610059578063b9b89f591461013a578063c682f5d414610169578063d9ef76c21461018b578063ef3b0208146101b1578063f59f1603146101c457600080fd5b80634780468f146100965780638908e67f146100ab578063919932d2146100cb57806398fc90e9146100fa578063ab8c71c01461010d575b600080fd5b6100a96100a4366004610ac8565b6101ea565b005b3480156100b757600080fd5b506100a96100c6366004610be6565b6102d5565b3480156100d757600080fd5b506100e061036a565b6040516100f1959493929190610ca7565b60405180910390f35b6100a9610108366004610ac8565b610434565b34801561011957600080fd5b5060075461012d906001600160a01b031681565b6040516100f19190610ce3565b34801561014657600080fd5b5061015a610155366004610ac8565b6104fb565b6040516100f193929190610d53565b34801561017557600080fd5b5061017e6105b5565b6040516100f19190610dea565b34801561019757600080fd5b5060055461012d906201000090046001600160a01b031681565b6100a96101bf366004610ac8565b610617565b3480156101d057600080fd5b506101d961082c565b6040516100f1959493929190610e37565b6000546001600160a01b0316321461021d5760405162461bcd60e51b815260040161021490610e99565b60405180910390fd5b6007546040516305b1c64f60e31b81526001600160a01b0390911690632d8e32789061024d908490600401610ce3565b600060405180830381600087803b15801561026757600080fd5b505af115801561027b573d6000803e3d6000fd5b50505050806001600160a01b031663a505612b6040518163ffffffff1660e01b8152600401600060405180830381600087803b1580156102ba57600080fd5b505af11580156102ce573d6000803e3d6000fd5b5050505050565b6000546001600160a01b031632146102ff5760405162461bcd60e51b815260040161021490610e99565b8451610312906001906020880190610a2f565b508351610326906002906020870190610a2f565b50825161033a906003906020860190610a2f565b5060048290556005805482919060ff19166001838181111561035e5761035e610c91565b02179055505050505050565b6000805481908190819081906001600160a01b0316321461039d5760405162461bcd60e51b815260040161021490610e99565b600560029054906101000a90046001600160a01b03166001600160a01b031663919932d26040518163ffffffff1660e01b815260040160a06040518083038186803b1580156103eb57600080fd5b505afa1580156103ff573d6000803e3d6000fd5b505050506040513d601f19601f820116820180604052508101906104239190610edd565b945094509450945094509091929394565b6000546001600160a01b0316321461045e5760405162461bcd60e51b815260040161021490610e99565b60075460405163e074bb4760e01b81526001600160a01b039091169063e074bb479061048e908490600401610ce3565b600060405180830381600087803b1580156104a857600080fd5b505af11580156104bc573d6000803e3d6000fd5b50505050806001600160a01b031663fcc8c2036040518163ffffffff1660e01b8152600401600060405180830381600087803b1580156102ba57600080fd5b6000805460609081906001600160a01b0316321461052b5760405162461bcd60e51b815260040161021490610e99565b6000806000866001600160a01b031663cc797fd56040518163ffffffff1660e01b815260040160006040518083038186803b15801561056957600080fd5b505afa15801561057d573d6000803e3d6000fd5b505050506040513d6000823e601f3d908101601f191682016040526105a59190810190610f87565b9199909850909650945050505050565b6060600680548060200260200160405190810160405280929190818152602001828054801561060d57602002820191906000526020600020905b81546001600160a01b031681526001909101906020018083116105ef575b5050505050905090565b600754604051623d104160e31b81526001600160a01b03909116906301e8820890610646903390600401610ce3565b60206040518083038186803b15801561065e57600080fd5b505afa158015610672573d6000803e3d6000fd5b505050506040513d601f19601f8201168201806040525081019061069691906110c5565b151560011461070f576040805162461bcd60e51b81526020600482015260248101919091527f596f7520646f6e27742068617665207065726d697373696f6e20746f2061636360448201527f657373206865616c746820646174612026206d65646963616c207265706f72746064820152608401610214565b600854604051639840e1e560e01b81526001600160a01b03909116908190639840e1e590610741903290600401610ce3565b60206040518083038186803b15801561075957600080fd5b505afa15801561076d573d6000803e3d6000fd5b505050506040513d601f19601f8201168201806040525081019061079191906110c5565b15156001146107d95760405162461bcd60e51b81526020600482015260146024820152732cb7ba9030b932903737ba1030903237b1ba37b960611b6044820152606401610214565b50600680546001810182556000919091527ff652222313e28459528d920b65115c16c04f3efc82aaedc97be59f3f377c0d3f0180546001600160a01b0319166001600160a01b0392909216919091179055565b60008054606091829182919081906001600160a01b031632146108615760405162461bcd60e51b815260040161021490610e99565b600160026003600454600560009054906101000a900460ff16848054610886906110e0565b80601f01602080910402602001604051908101604052809291908181526020018280546108b2906110e0565b80156108ff5780601f106108d4576101008083540402835291602001916108ff565b820191906000526020600020905b8154815290600101906020018083116108e257829003601f168201915b50505050509450838054610912906110e0565b80601f016020809104026020016040519081016040528092919081815260200182805461093e906110e0565b801561098b5780601f106109605761010080835404028352916020019161098b565b820191906000526020600020905b81548152906001019060200180831161096e57829003601f168201915b5050505050935082805461099e906110e0565b80601f01602080910402602001604051908101604052809291908181526020018280546109ca906110e0565b8015610a175780601f106109ec57610100808354040283529160200191610a17565b820191906000526020600020905b8154815290600101906020018083116109fa57829003601f168201915b50505050509250945094509450945094509091929394565b828054610a3b906110e0565b90600052602060002090601f016020900481019282610a5d5760008555610aa3565b82601f10610a7657805160ff1916838001178555610aa3565b82800160010185558215610aa3579182015b82811115610aa3578251825591602001919060010190610a88565b50610aaf929150610ab3565b5090565b5b80821115610aaf5760008155600101610ab4565b600060208284031215610ada57600080fd5b81356001600160a01b0381168114610af157600080fd5b9392505050565b634e487b7160e01b600052604160045260246000fd5b6040516060810167ffffffffffffffff81118282101715610b3157610b31610af8565b60405290565b604051601f8201601f1916810167ffffffffffffffff81118282101715610b6057610b60610af8565b604052919050565b600067ffffffffffffffff821115610b8257610b82610af8565b50601f01601f191660200190565b600082601f830112610ba157600080fd5b8135610bb4610baf82610b68565b610b37565b818152846020838601011115610bc957600080fd5b816020850160208301376000918101602001919091529392505050565b600080600080600060a08688031215610bfe57600080fd5b853567ffffffffffffffff80821115610c1657600080fd5b610c2289838a01610b90565b96506020880135915080821115610c3857600080fd5b610c4489838a01610b90565b95506040880135915080821115610c5a57600080fd5b50610c6788828901610b90565b93505060608601359150608086013560028110610c8357600080fd5b809150509295509295909350565b634e487b7160e01b600052602160045260246000fd5b8581526020810185905260a0810160048510610cc557610cc5610c91565b60408201949094529115156060830152151560809091015292915050565b6001600160a01b0391909116815260200190565b60005b83811015610d12578181015183820152602001610cfa565b83811115610d21576000848401525b50505050565b60008151808452610d3f816020860160208601610cf7565b601f01601f19169290920160200192915050565b6000606085835260208181850152610d6d82850187610d27565b6040858203818701528187518084528484019150848160051b850101858a0160005b83811015610dd857868303601f19018552815180518a8552610db38b860182610d27565b828b0151868c0152918801519488019490945294880194925090870190600101610d8f565b50909c9b505050505050505050505050565b6020808252825182820181905260009190848201906040850190845b81811015610e2b5783516001600160a01b031683529284019291840191600101610e06565b50909695505050505050565b60a081526000610e4a60a0830188610d27565b8281036020840152610e5c8188610d27565b90508281036040840152610e708187610d27565b91505083606083015260028310610e8957610e89610c91565b8260808301529695505050505050565b6020808252601590820152742cb7ba9030b932903737ba103a34329037bbb732b960591b604082015260600190565b80518015158114610ed857600080fd5b919050565b600080600080600060a08688031215610ef557600080fd5b8551945060208601519350604086015160048110610f1257600080fd5b9250610f2060608701610ec8565b9150610f2e60808701610ec8565b90509295509295909350565b600082601f830112610f4b57600080fd5b8151610f59610baf82610b68565b818152846020838601011115610f6e57600080fd5b610f7f826020830160208701610cf7565b949350505050565b600080600060608486031215610f9c57600080fd5b8351925060208085015167ffffffffffffffff80821115610fbc57600080fd5b610fc888838901610f3a565b94506040870151915080821115610fde57600080fd5b818701915087601f830112610ff257600080fd5b81518181111561100457611004610af8565b8060051b611013858201610b37565b918252838101850191858101908b84111561102d57600080fd5b86860192505b838310156110b45782518581111561104b5760008081fd5b86016060818e03601f190112156110625760008081fd5b61106a610b0e565b888201518781111561107c5760008081fd5b61108a8f8b83860101610f3a565b82525060408201518982015260608201516040820152808452505086820191508683019250611033565b809750505050505050509250925092565b6000602082840312156110d757600080fd5b610af182610ec8565b600181811c908216806110f457607f821691505b6020821081141561111557634e487b7160e01b600052602260045260246000fd5b5091905056fea2646970667358221220b9e07b3f23fa2913ba23a771d51ad97fc38f8bffc861005e160fbc556d92867364736f6c63430008090033608060405234801561001057600080fd5b50600080546001600160a01b0319163217905560038054630100000033026301000000600160b81b03199091161790556105118061004f6000396000f3fe608060405234801561001057600080fd5b50600436106100365760003560e01c8063919932d21461003b578063ee50ada41461005d575b600080fd5b610043610072565b604051610054959493929190610365565b60405180910390f35b61007061006b3660046103c0565b6101d0565b005b60008060008060008060038054906101000a90046001600160a01b03166001600160a01b031663ab8c71c06040518163ffffffff1660e01b815260040160206040518083038186803b1580156100c757600080fd5b505afa1580156100db573d6000803e3d6000fd5b505050506040513d601f19601f820116820180604052508101906100ff9190610423565b604051623d104160e31b81523360048201529091506001600160a01b038216906301e882089060240160206040518083038186803b15801561014057600080fd5b505afa158015610154573d6000803e3d6000fd5b505050506040513d601f19601f820116820180604052508101906101789190610453565b15156001146101a25760405162461bcd60e51b815260040161019990610470565b60405180910390fd5b5050600154600254600354919690955060ff8083169550610100830481169450620100009092049091169150565b600060038054906101000a90046001600160a01b03166001600160a01b031663ab8c71c06040518163ffffffff1660e01b815260040160206040518083038186803b15801561021e57600080fd5b505afa158015610232573d6000803e3d6000fd5b505050506040513d601f19601f820116820180604052508101906102569190610423565b604051623d104160e31b81523360048201529091506001600160a01b038216906301e882089060240160206040518083038186803b15801561029757600080fd5b505afa1580156102ab573d6000803e3d6000fd5b505050506040513d601f19601f820116820180604052508101906102cf9190610453565b15156001146102f05760405162461bcd60e51b815260040161019990610470565b6001868155600286905560038054869260ff199091169083838111156103185761031861034f565b0217905550506003805462ffff0019166101009315159390930262ff00001916929092176201000091151591909102179055505050565b634e487b7160e01b600052602160045260246000fd5b8581526020810185905260a081016004851061039157634e487b7160e01b600052602160045260246000fd5b60408201949094529115156060830152151560809091015292915050565b80151581146103bd57600080fd5b50565b600080600080600060a086880312156103d857600080fd5b85359450602086013593506040860135600481106103f557600080fd5b92506060860135610405816103af565b91506080860135610415816103af565b809150509295509295909350565b60006020828403121561043557600080fd5b81516001600160a01b038116811461044c57600080fd5b9392505050565b60006020828403121561046557600080fd5b815161044c816103af565b60208082526045908201527f596f7520646f6e27742068617665207065726d697373696f6e20746f2061646460408201527f206f722076696577206865616c746820646174612026206d65646963616c2072606082015264195c1bdc9d60da1b608082015260a0019056fea2646970667358221220081f097f0349c1e52de35c9f4dce97eba728ab7b136c7e32196c48418683ce0664736f6c63430008090033608060405234801561001057600080fd5b50600080546001600160a01b03191632178155338152600160208190526040909120805460ff191690911790556101df8061004c6000396000f3fe608060405234801561001057600080fd5b50600436106100415760003560e01c806301e88208146100465780632d8e32781461007d578063e074bb4714610092575b600080fd5b61006961005436600461014a565b60016020526000908152604090205460ff1681565b604051901515815260200160405180910390f35b61009061008b36600461014a565b6100a5565b005b6100906100a036600461014a565b6100ff565b6000546001600160a01b031632146100d85760405162461bcd60e51b81526004016100cf9061017a565b60405180910390fd5b6001600160a01b03166000908152600160208190526040909120805460ff19169091179055565b6000546001600160a01b031632146101295760405162461bcd60e51b81526004016100cf9061017a565b6001600160a01b03166000908152600160205260409020805460ff19169055565b60006020828403121561015c57600080fd5b81356001600160a01b038116811461017357600080fd5b9392505050565b6020808252601590820152742cb7ba9030b932903737ba103a34329037bbb732b960591b60408201526060019056fea2646970667358221220e7742af932bc8626e11561331df8d6e9d2e49a94326f28e4c8497c0930cc7ec864736f6c63430008090033a26469706673582212204c922f060ed87c9d61f83e566adcf5d70f9f34116c782ce28885f37207ff4fc864736f6c63430008090033",
  "immutableReferences": {},
  "source": "// SPDX-License-Identifier: MIT\r\npragma solidity ^0.8.0;\r\nimport \"./1_Library.sol\";\r\nimport \"./4_Hospital.sol\";\r\nimport \"./5_Doctor.sol\";\r\nimport \"./6_Patient.sol\";\r\n\r\ncontract EHR {\r\n    // STATE VARIABLES\r\n    mapping(address => bool) public hasHospitalRecord;\r\n    mapping(address => bool) public hasDoctorRecord;\r\n    mapping(address => bool) public hasPatientRecord;\r\n    mapping(address => address) public hospitalRecord;\r\n    mapping(address => address) public doctorRecord;\r\n    mapping(address => address) public patientRecord;\r\n    mapping(uint => address) public hospitalRecords;\r\n    uint public count;\r\n\r\n    // CONSTRUCTOR\r\n\r\n    // MODIFIERS\r\n    modifier notHospital() {\r\n        require(hasHospitalRecord[tx.origin] == false, \r\n            \"You already have a hospital record\");\r\n        _;\r\n    }\r\n\r\n    modifier notDoctor() {\r\n        require(hasDoctorRecord[tx.origin] == false, \r\n            \"You already have a doctor record\");\r\n        _;\r\n    }\r\n\r\n     modifier notPatient() {\r\n        require(hasPatientRecord[tx.origin] == false, \r\n            \"You already have a patient record\");\r\n        _;\r\n    }\r\n\r\n    // FUNCTIONS\r\n    function addHospitalRecord(\r\n        string memory _name,\r\n        string memory _location,\r\n        string memory _id\r\n    ) public payable notPatient notDoctor returns(address) {\r\n        Hospital _hospital = new Hospital(_name, _location, _id);\r\n        address hospitalAddress = address(_hospital);\r\n\r\n        hasHospitalRecord[tx.origin] = true;\r\n        hospitalRecord[tx.origin] = hospitalAddress;\r\n\r\n        // hospitalRecords[count] = hospitalAddress;\r\n        count++;\r\n\r\n        return hospitalAddress;\r\n    }\r\n\r\n    function addDoctorRecord(\r\n        string memory _firstName, \r\n        string memory _lastName, \r\n        string memory _id, \r\n        uint _dateOfBirth, \r\n        Library.Sex _sex\r\n    ) public payable notDoctor notHospital returns(address) {\r\n        Doctor _doctor = new Doctor(_firstName, _lastName, _id, _dateOfBirth, _sex);\r\n        address doctorAddress = address(_doctor);\r\n\r\n        hasDoctorRecord[tx.origin] = true;\r\n        doctorRecord[tx.origin] = doctorAddress;\r\n\r\n        return doctorAddress;\r\n    }\r\n    \r\n    function addPatientRecord(\r\n        string memory _firstName, \r\n        string memory _lastName, \r\n        string memory _id, \r\n        uint _dateOfBirth, \r\n        Library.Sex _sex\r\n    ) public payable notPatient notHospital returns(address) {\r\n        Patient _patient = new Patient(_firstName, _lastName, _id, _dateOfBirth, _sex);\r\n        address patientAddress = address(_patient);\r\n\r\n        hasPatientRecord[tx.origin] = true;\r\n        patientRecord[tx.origin] = patientAddress;\r\n\r\n        return patientAddress;\r\n    }\r\n\r\n}\r\n",
  "sourcePath": "D:\\Blockchain\\dapp_ehr_1\\truffle\\contracts\\3_EHR.sol",
  "compiler": {
    "name": "solc",
    "version": "0.8.9+commit.e5eed63a.Emscripten.clang"
  },
  "schemaVersion": "3.4.3",
  "updatedAt": "2023-01-31T02:46:14.038Z",
  "devdoc": {
    "kind": "dev",
    "methods": {},
    "version": 1
  },
  "userdoc": {
    "kind": "user",
    "methods": {},
    "version": 1
  }
}