{
  "contractName": "HealthData",
  "abi": [
    {
      "inputs": [],
      "stateMutability": "nonpayable",
      "type": "constructor"
    },
    {
      "inputs": [],
      "name": "getHealthData",
      "outputs": [
        {
          "internalType": "uint256",
          "name": "",
          "type": "uint256"
        },
        {
          "internalType": "uint256",
          "name": "",
          "type": "uint256"
        },
        {
          "internalType": "enum Library.BloodType",
          "name": "",
          "type": "uint8"
        },
        {
          "internalType": "bool",
          "name": "",
          "type": "bool"
        },
        {
          "internalType": "bool",
          "name": "",
          "type": "bool"
        }
      ],
      "stateMutability": "view",
      "type": "function"
    },
    {
      "inputs": [
        {
          "internalType": "uint256",
          "name": "_height",
          "type": "uint256"
        },
        {
          "internalType": "uint256",
          "name": "_weight",
          "type": "uint256"
        },
        {
          "internalType": "enum Library.BloodType",
          "name": "_bloodType",
          "type": "uint8"
        },
        {
          "internalType": "bool",
          "name": "_isSmoker",
          "type": "bool"
        },
        {
          "internalType": "bool",
          "name": "_hasAllergy",
          "type": "bool"
        }
      ],
      "name": "setHealthData",
      "outputs": [],
      "stateMutability": "nonpayable",
      "type": "function"
    }
  ],
  "bytecode": "0x608060405234801561001057600080fd5b50600080546001600160a01b0319163217905560038054630100000033026301000000600160b81b03199091161790556105118061004f6000396000f3fe608060405234801561001057600080fd5b50600436106100365760003560e01c8063919932d21461003b578063ee50ada41461005d575b600080fd5b610043610072565b604051610054959493929190610365565b60405180910390f35b61007061006b3660046103c0565b6101d0565b005b60008060008060008060038054906101000a90046001600160a01b03166001600160a01b031663ab8c71c06040518163ffffffff1660e01b815260040160206040518083038186803b1580156100c757600080fd5b505afa1580156100db573d6000803e3d6000fd5b505050506040513d601f19601f820116820180604052508101906100ff9190610423565b604051623d104160e31b81523360048201529091506001600160a01b038216906301e882089060240160206040518083038186803b15801561014057600080fd5b505afa158015610154573d6000803e3d6000fd5b505050506040513d601f19601f820116820180604052508101906101789190610453565b15156001146101a25760405162461bcd60e51b815260040161019990610470565b60405180910390fd5b5050600154600254600354919690955060ff8083169550610100830481169450620100009092049091169150565b600060038054906101000a90046001600160a01b03166001600160a01b031663ab8c71c06040518163ffffffff1660e01b815260040160206040518083038186803b15801561021e57600080fd5b505afa158015610232573d6000803e3d6000fd5b505050506040513d601f19601f820116820180604052508101906102569190610423565b604051623d104160e31b81523360048201529091506001600160a01b038216906301e882089060240160206040518083038186803b15801561029757600080fd5b505afa1580156102ab573d6000803e3d6000fd5b505050506040513d601f19601f820116820180604052508101906102cf9190610453565b15156001146102f05760405162461bcd60e51b815260040161019990610470565b6001868155600286905560038054869260ff199091169083838111156103185761031861034f565b0217905550506003805462ffff0019166101009315159390930262ff00001916929092176201000091151591909102179055505050565b634e487b7160e01b600052602160045260246000fd5b8581526020810185905260a081016004851061039157634e487b7160e01b600052602160045260246000fd5b60408201949094529115156060830152151560809091015292915050565b80151581146103bd57600080fd5b50565b600080600080600060a086880312156103d857600080fd5b85359450602086013593506040860135600481106103f557600080fd5b92506060860135610405816103af565b91506080860135610415816103af565b809150509295509295909350565b60006020828403121561043557600080fd5b81516001600160a01b038116811461044c57600080fd5b9392505050565b60006020828403121561046557600080fd5b815161044c816103af565b60208082526045908201527f596f7520646f6e27742068617665207065726d697373696f6e20746f2061646460408201527f206f722076696577206865616c746820646174612026206d65646963616c2072606082015264195c1bdc9d60da1b608082015260a0019056fea2646970667358221220081f097f0349c1e52de35c9f4dce97eba728ab7b136c7e32196c48418683ce0664736f6c63430008090033",
  "immutableReferences": {},
  "source": "// SPDX-License-Identifier: MIT\r\npragma solidity ^0.8.0;\r\nimport \"./1_Library.sol\";\r\nimport \"./2_Ownable.sol\";\r\nimport \"./6_Patient.sol\";\r\nimport \"./9_Permissions.sol\";\r\n\r\ncontract HealthData is Ownable {\r\n    // STATE VARIABLES\r\n    uint height; // in cm\r\n    uint weight; // in grams\r\n    Library.BloodType bloodType;\r\n    bool isSmoker;\r\n    bool hasAllergy;\r\n    address patient;\r\n\r\n    // CONSTRUCTOR\r\n    constructor() {\r\n        patient = msg.sender;\r\n    }\r\n\r\n    // MODIFIERS\r\n    modifier permittedAccess() {\r\n        address permissions = Patient(patient).permissions();\r\n        // msg.sender -> doctor & patient contracts\r\n        require(Permissions(permissions).permissions(msg.sender) == true, \r\n            \"You don't have permission to add or view health data & medical report\");\r\n        _;\r\n    }\r\n\r\n    // FUNCTIONS\r\n    function getHealthData() public view permittedAccess returns(\r\n        uint, \r\n        uint, \r\n        Library.BloodType, \r\n        bool, \r\n        bool\r\n    ) {\r\n        return (height, weight, bloodType, isSmoker, hasAllergy);\r\n    }\r\n\r\n    function setHealthData(\r\n        uint _height, \r\n        uint _weight, \r\n        Library.BloodType _bloodType, \r\n        bool _isSmoker, \r\n        bool _hasAllergy\r\n    ) public permittedAccess {\r\n        // if (height != _height) \r\n        height = _height;\r\n        // if (weight != _weight) \r\n        weight = _weight;\r\n        // if (bloodType != _bloodType) \r\n        bloodType = _bloodType;\r\n        // if (isSmoker != _isSmoker) \r\n        isSmoker = _isSmoker;\r\n        // if (hasAllergy != _hasAllergy) \r\n        hasAllergy = _hasAllergy;\r\n    }\r\n\r\n}\r\n",
  "sourcePath": "D:\\Blockchain\\dapp_ehr_1\\truffle\\contracts\\7_HealthData.sol",
  "compiler": {
    "name": "solc",
    "version": "0.8.9+commit.e5eed63a.Emscripten.clang"
  },
  "schemaVersion": "3.4.3",
  "updatedAt": "2023-01-31T02:46:14.223Z",
  "devdoc": {
    "kind": "dev",
    "methods": {},
    "version": 1
  },
  "userdoc": {
    "kind": "user",
    "methods": {},
    "version": 1
  }
}