{
  "contractName": "Hospital",
  "abi": [
    {
      "inputs": [
        {
          "internalType": "string",
          "name": "_name",
          "type": "string"
        },
        {
          "internalType": "string",
          "name": "_location",
          "type": "string"
        },
        {
          "internalType": "string",
          "name": "_id",
          "type": "string"
        }
      ],
      "stateMutability": "nonpayable",
      "type": "constructor"
    },
    {
      "inputs": [],
      "name": "getBiodata",
      "outputs": [
        {
          "internalType": "string",
          "name": "",
          "type": "string"
        },
        {
          "internalType": "string",
          "name": "",
          "type": "string"
        },
        {
          "internalType": "string",
          "name": "",
          "type": "string"
        }
      ],
      "stateMutability": "view",
      "type": "function"
    },
    {
      "inputs": [
        {
          "internalType": "string",
          "name": "_name",
          "type": "string"
        },
        {
          "internalType": "string",
          "name": "_location",
          "type": "string"
        },
        {
          "internalType": "string",
          "name": "_id",
          "type": "string"
        }
      ],
      "name": "setBiodata",
      "outputs": [],
      "stateMutability": "nonpayable",
      "type": "function"
    },
    {
      "inputs": [],
      "name": "getApprovedDoctors",
      "outputs": [
        {
          "internalType": "address[]",
          "name": "",
          "type": "address[]"
        },
        {
          "internalType": "uint256",
          "name": "",
          "type": "uint256"
        }
      ],
      "stateMutability": "view",
      "type": "function"
    },
    {
      "inputs": [],
      "name": "getPendingDoctors",
      "outputs": [
        {
          "internalType": "address[]",
          "name": "",
          "type": "address[]"
        },
        {
          "internalType": "uint256",
          "name": "",
          "type": "uint256"
        }
      ],
      "stateMutability": "view",
      "type": "function"
    },
    {
      "inputs": [],
      "name": "addDoctor",
      "outputs": [],
      "stateMutability": "nonpayable",
      "type": "function"
    },
    {
      "inputs": [],
      "name": "removeDoctor",
      "outputs": [],
      "stateMutability": "nonpayable",
      "type": "function"
    },
    {
      "inputs": [
        {
          "internalType": "address",
          "name": "_doctor",
          "type": "address"
        }
      ],
      "name": "approveDoctor",
      "outputs": [],
      "stateMutability": "nonpayable",
      "type": "function"
    }
  ],
  "bytecode": "0x60806040523480156200001157600080fd5b5060405162000f7d38038062000f7d833981016040819052620000349162000217565b600080546001600160a01b0319163217905582516200005b906001906020860190620000a4565b50815162000071906002906020850190620000a4565b50805162000087906003906020840190620000a4565b5050600680546001600160a01b0319163317905550620002e59050565b828054620000b290620002a8565b90600052602060002090601f016020900481019282620000d6576000855562000121565b82601f10620000f157805160ff191683800117855562000121565b8280016001018555821562000121579182015b828111156200012157825182559160200191906001019062000104565b506200012f92915062000133565b5090565b5b808211156200012f576000815560010162000134565b634e487b7160e01b600052604160045260246000fd5b600082601f8301126200017257600080fd5b81516001600160401b03808211156200018f576200018f6200014a565b604051601f8301601f19908116603f01168101908282118183101715620001ba57620001ba6200014a565b81604052838152602092508683858801011115620001d757600080fd5b600091505b83821015620001fb5785820183015181830184015290820190620001dc565b838211156200020d5760008385830101525b9695505050505050565b6000806000606084860312156200022d57600080fd5b83516001600160401b03808211156200024557600080fd5b620002538783880162000160565b945060208601519150808211156200026a57600080fd5b620002788783880162000160565b935060408601519150808211156200028f57600080fd5b506200029e8682870162000160565b9150509250925092565b600181811c90821680620002bd57607f821691505b60208210811415620002df57634e487b7160e01b600052602260045260246000fd5b50919050565b610c8880620002f56000396000f3fe608060405234801561001057600080fd5b506004361061006d5760003560e01c80636160a5c21461007257806375a3f4e31461008757806399faaa481461008f578063c4872238146100ae578063e4977440146100b6578063eb056845146100c9578063f59f1603146100d1575b600080fd5b610085610080366004610907565b6100e8565b005b610085610148565b610097610242565b6040516100a5929190610937565b60405180910390f35b61008561037a565b6100856100c4366004610a2b565b61051b565b610097610586565b6100d96106b4565b6040516100a593929190610b00565b6000546001600160a01b0316321461011b5760405162461bcd60e51b815260040161011290610b43565b60405180910390fd5b6001600160a01b038116600090815260046020526040902080546001919060ff191682805b021790555050565b600654604051639840e1e560e01b81523260048201526001600160a01b03909116908190639840e1e59060240160206040518083038186803b15801561018d57600080fd5b505afa1580156101a1573d6000803e3d6000fd5b505050506040513d601f19601f820116820180604052508101906101c59190610b88565b15156001146101e65760405162461bcd60e51b815260040161011290610baa565b50336000818152600460205260408120805460ff191660021790556005805460018101825591527f036b6384b5eca791c62761152d0c79bb0604c104a5fb6f4eb0703f3154bb3db00180546001600160a01b0319169091179055565b606060008060058054905067ffffffffffffffff81111561026557610265610988565b60405190808252806020026020018201604052801561028e578160200160208202803683370190505b5090506000805b60055481101561037057600260046000600584815481106102b8576102b8610bd8565b60009182526020808320909101546001600160a01b0316835282019290925260400190205460ff1660038111156102f1576102f1610b72565b1415610360576005818154811061030a5761030a610bd8565b9060005260206000200160009054906101000a90046001600160a01b031683838151811061033a5761033a610bd8565b6001600160a01b03909216602092830291909101909101528161035c81610bee565b9250505b61036981610bee565b9050610295565b5090939092509050565b600654604051639840e1e560e01b81523260048201526001600160a01b03909116908190639840e1e59060240160206040518083038186803b1580156103bf57600080fd5b505afa1580156103d3573d6000803e3d6000fd5b505050506040513d601f19601f820116820180604052508101906103f79190610b88565b15156001146104185760405162461bcd60e51b815260040161011290610baa565b3360009081526004602052604081205460ff16600381111561043c5761043c610b72565b141561048a5760405162461bcd60e51b815260206004820152601e60248201527f446f63746f72206973206e6f742061646465642070726576696f75736c7900006044820152606401610112565b60033360009081526004602052604090205460ff1660038111156104b0576104b0610b72565b14156104fa5760405162461bcd60e51b8152602060048201526019602482015278111bd8dd1bdc881a5cc8185b1c9958591e481c995b5bdd9959603a1b6044820152606401610112565b33600090815260046020526040902080546003919060ff1916600183610140565b6000546001600160a01b031632146105455760405162461bcd60e51b815260040161011290610b43565b825161055890600190602086019061086e565b50815161056c90600290602085019061086e565b50805161058090600390602084019061086e565b50505050565b606060008060058054905067ffffffffffffffff8111156105a9576105a9610988565b6040519080825280602002602001820160405280156105d2578160200160208202803683370190505b5090506000805b60055481101561037057600160046000600584815481106105fc576105fc610bd8565b60009182526020808320909101546001600160a01b0316835282019290925260400190205460ff16600381111561063557610635610b72565b14156106a4576005818154811061064e5761064e610bd8565b9060005260206000200160009054906101000a90046001600160a01b031683838151811061067e5761067e610bd8565b6001600160a01b0390921660209283029190910190910152816106a081610bee565b9250505b6106ad81610bee565b90506105d9565b60608060606001600260038280546106cb90610c17565b80601f01602080910402602001604051908101604052809291908181526020018280546106f790610c17565b80156107445780601f1061071957610100808354040283529160200191610744565b820191906000526020600020905b81548152906001019060200180831161072757829003601f168201915b5050505050925081805461075790610c17565b80601f016020809104026020016040519081016040528092919081815260200182805461078390610c17565b80156107d05780601f106107a5576101008083540402835291602001916107d0565b820191906000526020600020905b8154815290600101906020018083116107b357829003601f168201915b505050505091508080546107e390610c17565b80601f016020809104026020016040519081016040528092919081815260200182805461080f90610c17565b801561085c5780601f106108315761010080835404028352916020019161085c565b820191906000526020600020905b81548152906001019060200180831161083f57829003601f168201915b50505050509050925092509250909192565b82805461087a90610c17565b90600052602060002090601f01602090048101928261089c57600085556108e2565b82601f106108b557805160ff19168380011785556108e2565b828001600101855582156108e2579182015b828111156108e25782518255916020019190600101906108c7565b506108ee9291506108f2565b5090565b5b808211156108ee57600081556001016108f3565b60006020828403121561091957600080fd5b81356001600160a01b038116811461093057600080fd5b9392505050565b604080825283519082018190526000906020906060840190828701845b828110156109795781516001600160a01b031684529284019290840190600101610954565b50505092019290925292915050565b634e487b7160e01b600052604160045260246000fd5b600082601f8301126109af57600080fd5b813567ffffffffffffffff808211156109ca576109ca610988565b604051601f8301601f19908116603f011681019082821181831017156109f2576109f2610988565b81604052838152866020858801011115610a0b57600080fd5b836020870160208301376000602085830101528094505050505092915050565b600080600060608486031215610a4057600080fd5b833567ffffffffffffffff80821115610a5857600080fd5b610a648783880161099e565b94506020860135915080821115610a7a57600080fd5b610a868783880161099e565b93506040860135915080821115610a9c57600080fd5b50610aa98682870161099e565b9150509250925092565b6000815180845260005b81811015610ad957602081850181015186830182015201610abd565b81811115610aeb576000602083870101525b50601f01601f19169290920160200192915050565b606081526000610b136060830186610ab3565b8281036020840152610b258186610ab3565b90508281036040840152610b398185610ab3565b9695505050505050565b6020808252601590820152742cb7ba9030b932903737ba103a34329037bbb732b960591b604082015260600190565b634e487b7160e01b600052602160045260246000fd5b600060208284031215610b9a57600080fd5b8151801515811461093057600080fd5b6020808252601490820152732cb7ba9030b932903737ba1030903237b1ba37b960611b604082015260600190565b634e487b7160e01b600052603260045260246000fd5b6000600019821415610c1057634e487b7160e01b600052601160045260246000fd5b5060010190565b600181811c90821680610c2b57607f821691505b60208210811415610c4c57634e487b7160e01b600052602260045260246000fd5b5091905056fea26469706673582212209218e70fb9314b09c29a4af790a01cf7a53341f9e1db09618324bbf66aeb81db64736f6c63430008090033",
  "immutableReferences": {},
  "source": "// SPDX-License-Identifier: MIT\r\npragma solidity ^0.8.0;\r\nimport \"./1_Library.sol\";\r\nimport \"./2_Ownable.sol\";\r\nimport \"./3_EHR.sol\";\r\n\r\ncontract Hospital is Ownable {\r\n    // STATE VARIABLES\r\n    // biodata\r\n    string name;\r\n    string location;\r\n    string id;\r\n    // connected values\r\n    mapping(address => Library.DoctorStatus) doctors; // Pending -> Approved -> Removed\r\n    address[] doctorsAddress;\r\n    address ehr;\r\n\r\n    // CONSTRUCTOR\r\n    constructor(\r\n        string memory _name,\r\n        string memory _location,\r\n        string memory _id\r\n    ) {\r\n        // biodata\r\n        name = _name;\r\n        location = _location;\r\n        id = _id;\r\n        ehr = msg.sender;\r\n    }\r\n\r\n    // MODIFIERS\r\n    modifier isDoctor() {\r\n        address contractAddress = ehr; // ! assign after deploying EHR \r\n        require(EHR(contractAddress).hasDoctorRecord(tx.origin) == true, \"You are not a doctor\");\r\n        _;\r\n    }\r\n\r\n    modifier addedDoctor() {\r\n        // msg.sender -> doctor contract\r\n        require(doctors[msg.sender] != Library.DoctorStatus.Unknown, \"Doctor is not added previously\");\r\n        require(doctors[msg.sender] != Library.DoctorStatus.Removed, \"Doctor is already removed\");\r\n        _;\r\n    }\r\n\r\n    // FUNCTIONS\r\n    function getBiodata() public view returns(\r\n        string memory, \r\n        string memory, \r\n        string memory\r\n    ) {\r\n        return (name, location, id);\r\n    }\r\n\r\n    function setBiodata(\r\n        string memory _name,\r\n        string memory _location,\r\n        string memory _id\r\n    ) public isOwner {\r\n        // if (name != _name) \r\n        name = _name;\r\n        // if (location != location) \r\n        location = _location;\r\n        // if (id != _id) \r\n        id = _id;\r\n    }\r\n\r\n    function getApprovedDoctors() public view returns(address[] memory, uint) {\r\n        address[] memory _doctors = new address[](doctorsAddress.length);\r\n        uint count = 0;\r\n        for (uint i = 0; i < doctorsAddress.length; ++i) {\r\n            if (doctors[doctorsAddress[i]] == Library.DoctorStatus.Approved) {\r\n                _doctors[count] = doctorsAddress[i];\r\n                count++;\r\n            }\r\n        }\r\n        return (_doctors, count);\r\n    }\r\n\r\n    function getPendingDoctors() public view returns(address[] memory, uint) {\r\n        address[] memory _doctors = new address[](doctorsAddress.length);\r\n        uint count = 0;\r\n        for (uint i = 0; i < doctorsAddress.length; ++i) {\r\n            if (doctors[doctorsAddress[i]] == Library.DoctorStatus.Pending) {\r\n                _doctors[count] = doctorsAddress[i];\r\n                count++;\r\n            }\r\n        }\r\n        return (_doctors, count);\r\n    }\r\n\r\n    function addDoctor() public isDoctor {\r\n        // msg.sender -> doctor contract\r\n        doctors[msg.sender] = Library.DoctorStatus.Pending;\r\n        doctorsAddress.push(msg.sender);\r\n    }\r\n\r\n    function removeDoctor() public isDoctor addedDoctor {\r\n        // msg.sender -> doctor contract\r\n        doctors[msg.sender] = Library.DoctorStatus.Removed;\r\n    }\r\n\r\n    function approveDoctor(address _doctor) public isOwner {\r\n        doctors[_doctor] = Library.DoctorStatus.Approved;\r\n    }\r\n}\r\n",
  "sourcePath": "D:\\Blockchain\\dapp_ehr_1\\truffle\\contracts\\4_Hospital.sol",
  "compiler": {
    "name": "solc",
    "version": "0.8.9+commit.e5eed63a.Emscripten.clang"
  },
  "schemaVersion": "3.4.3",
  "updatedAt": "2023-01-31T02:46:14.069Z",
  "devdoc": {
    "kind": "dev",
    "methods": {},
    "version": 1
  },
  "userdoc": {
    "kind": "user",
    "methods": {},
    "version": 1
  }
}