{
  "contractName": "Patient",
  "abi": [
    {
      "inputs": [
        {
          "internalType": "string",
          "name": "_firstName",
          "type": "string"
        },
        {
          "internalType": "string",
          "name": "_lastName",
          "type": "string"
        },
        {
          "internalType": "string",
          "name": "_id",
          "type": "string"
        },
        {
          "internalType": "uint256",
          "name": "_dateOfBirth",
          "type": "uint256"
        },
        {
          "internalType": "enum Library.Sex",
          "name": "_sex",
          "type": "uint8"
        }
      ],
      "stateMutability": "nonpayable",
      "type": "constructor"
    },
    {
      "inputs": [],
      "name": "healthData",
      "outputs": [
        {
          "internalType": "address",
          "name": "",
          "type": "address"
        }
      ],
      "stateMutability": "view",
      "type": "function"
    },
    {
      "inputs": [],
      "name": "permissions",
      "outputs": [
        {
          "internalType": "address",
          "name": "",
          "type": "address"
        }
      ],
      "stateMutability": "view",
      "type": "function"
    },
    {
      "inputs": [],
      "name": "getMedicalReports",
      "outputs": [
        {
          "internalType": "address[]",
          "name": "",
          "type": "address[]"
        }
      ],
      "stateMutability": "view",
      "type": "function"
    },
    {
      "inputs": [
        {
          "internalType": "address",
          "name": "_medicalReportAddress",
          "type": "address"
        }
      ],
      "name": "addMedicalReport",
      "outputs": [],
      "stateMutability": "payable",
      "type": "function"
    },
    {
      "inputs": [],
      "name": "getBiodata",
      "outputs": [
        {
          "internalType": "string",
          "name": "",
          "type": "string"
        },
        {
          "internalType": "string",
          "name": "",
          "type": "string"
        },
        {
          "internalType": "string",
          "name": "",
          "type": "string"
        },
        {
          "internalType": "uint256",
          "name": "",
          "type": "uint256"
        },
        {
          "internalType": "enum Library.Sex",
          "name": "",
          "type": "uint8"
        }
      ],
      "stateMutability": "view",
      "type": "function"
    },
    {
      "inputs": [
        {
          "internalType": "string",
          "name": "_firstName",
          "type": "string"
        },
        {
          "internalType": "string",
          "name": "_lastName",
          "type": "string"
        },
        {
          "internalType": "string",
          "name": "_id",
          "type": "string"
        },
        {
          "internalType": "uint256",
          "name": "_dateOfBirth",
          "type": "uint256"
        },
        {
          "internalType": "enum Library.Sex",
          "name": "_sex",
          "type": "uint8"
        }
      ],
      "name": "setBiodata",
      "outputs": [],
      "stateMutability": "nonpayable",
      "type": "function"
    },
    {
      "inputs": [
        {
          "internalType": "address",
          "name": "_doctor",
          "type": "address"
        }
      ],
      "name": "addDoctor",
      "outputs": [],
      "stateMutability": "payable",
      "type": "function"
    },
    {
      "inputs": [
        {
          "internalType": "address",
          "name": "_doctor",
          "type": "address"
        }
      ],
      "name": "removeDoctor",
      "outputs": [],
      "stateMutability": "payable",
      "type": "function"
    },
    {
      "inputs": [
        {
          "internalType": "address",
          "name": "_medicalReport",
          "type": "address"
        }
      ],
      "name": "getMedicalReportDetails",
      "outputs": [
        {
          "internalType": "uint256",
          "name": "",
          "type": "uint256"
        },
        {
          "internalType": "string",
          "name": "",
          "type": "string"
        },
        {
          "components": [
            {
              "internalType": "string",
              "name": "medicine",
              "type": "string"
            },
            {
              "internalType": "uint256",
              "name": "numDays",
              "type": "uint256"
            },
            {
              "internalType": "uint256",
              "name": "perDay",
              "type": "uint256"
            }
          ],
          "internalType": "struct Library.Prescription[]",
          "name": "",
          "type": "tuple[]"
        }
      ],
      "stateMutability": "view",
      "type": "function"
    },
    {
      "inputs": [],
      "name": "getHealthData",
      "outputs": [
        {
          "internalType": "uint256",
          "name": "",
          "type": "uint256"
        },
        {
          "internalType": "uint256",
          "name": "",
          "type": "uint256"
        },
        {
          "internalType": "enum Library.BloodType",
          "name": "",
          "type": "uint8"
        },
        {
          "internalType": "bool",
          "name": "",
          "type": "bool"
        },
        {
          "internalType": "bool",
          "name": "",
          "type": "bool"
        }
      ],
      "stateMutability": "view",
      "type": "function"
    }
  ],
  "bytecode": "0x60806040523480156200001157600080fd5b5060405162001cfb38038062001cfb833981016040819052620000349162000307565b600080546001600160a01b0319163217905584516200005b90600190602088019062000178565b5083516200007190600290602087019062000178565b5082516200008790600390602086019062000178565b5060048290556005805482919060ff191660018381811115620000ae57620000ae620003bc565b02179055506005805461ff0019169055604051600090620000cf9062000207565b604051809103906000f080158015620000ec573d6000803e3d6000fd5b506005805462010000600160b01b031916620100006001600160a01b03841602179055604051909150600090620001239062000215565b604051809103906000f08015801562000140573d6000803e3d6000fd5b50600780546001600160a01b039092166001600160a01b03199283161790556008805490911633179055506200040f95505050505050565b8280546200018690620003d2565b90600052602060002090601f016020900481019282620001aa5760008555620001f5565b82601f10620001c557805160ff1916838001178555620001f5565b82800160010185558215620001f5579182015b82811115620001f5578251825591602001919060010190620001d8565b506200020392915062000223565b5090565b610560806200157083390190565b61022b8062001ad083390190565b5b8082111562000203576000815560010162000224565b634e487b7160e01b600052604160045260246000fd5b600082601f8301126200026257600080fd5b81516001600160401b03808211156200027f576200027f6200023a565b604051601f8301601f19908116603f01168101908282118183101715620002aa57620002aa6200023a565b81604052838152602092508683858801011115620002c757600080fd5b600091505b83821015620002eb5785820183015181830184015290820190620002cc565b83821115620002fd5760008385830101525b9695505050505050565b600080600080600060a086880312156200032057600080fd5b85516001600160401b03808211156200033857600080fd5b6200034689838a0162000250565b965060208801519150808211156200035d57600080fd5b6200036b89838a0162000250565b955060408801519150808211156200038257600080fd5b50620003918882890162000250565b93505060608601519150608086015160028110620003ae57600080fd5b809150509295509295909350565b634e487b7160e01b600052602160045260246000fd5b600181811c90821680620003e757607f821691505b602082108114156200040957634e487b7160e01b600052602260045260246000fd5b50919050565b611151806200041f6000396000f3fe6080604052600436106100915760003560e01c8063b9b89f5911610059578063b9b89f591461013a578063c682f5d414610169578063d9ef76c21461018b578063ef3b0208146101b1578063f59f1603146101c457600080fd5b80634780468f146100965780638908e67f146100ab578063919932d2146100cb57806398fc90e9146100fa578063ab8c71c01461010d575b600080fd5b6100a96100a4366004610ac8565b6101ea565b005b3480156100b757600080fd5b506100a96100c6366004610be6565b6102d5565b3480156100d757600080fd5b506100e061036a565b6040516100f1959493929190610ca7565b60405180910390f35b6100a9610108366004610ac8565b610434565b34801561011957600080fd5b5060075461012d906001600160a01b031681565b6040516100f19190610ce3565b34801561014657600080fd5b5061015a610155366004610ac8565b6104fb565b6040516100f193929190610d53565b34801561017557600080fd5b5061017e6105b5565b6040516100f19190610dea565b34801561019757600080fd5b5060055461012d906201000090046001600160a01b031681565b6100a96101bf366004610ac8565b610617565b3480156101d057600080fd5b506101d961082c565b6040516100f1959493929190610e37565b6000546001600160a01b0316321461021d5760405162461bcd60e51b815260040161021490610e99565b60405180910390fd5b6007546040516305b1c64f60e31b81526001600160a01b0390911690632d8e32789061024d908490600401610ce3565b600060405180830381600087803b15801561026757600080fd5b505af115801561027b573d6000803e3d6000fd5b50505050806001600160a01b031663a505612b6040518163ffffffff1660e01b8152600401600060405180830381600087803b1580156102ba57600080fd5b505af11580156102ce573d6000803e3d6000fd5b5050505050565b6000546001600160a01b031632146102ff5760405162461bcd60e51b815260040161021490610e99565b8451610312906001906020880190610a2f565b508351610326906002906020870190610a2f565b50825161033a906003906020860190610a2f565b5060048290556005805482919060ff19166001838181111561035e5761035e610c91565b02179055505050505050565b6000805481908190819081906001600160a01b0316321461039d5760405162461bcd60e51b815260040161021490610e99565b600560029054906101000a90046001600160a01b03166001600160a01b031663919932d26040518163ffffffff1660e01b815260040160a06040518083038186803b1580156103eb57600080fd5b505afa1580156103ff573d6000803e3d6000fd5b505050506040513d601f19601f820116820180604052508101906104239190610edd565b945094509450945094509091929394565b6000546001600160a01b0316321461045e5760405162461bcd60e51b815260040161021490610e99565b60075460405163e074bb4760e01b81526001600160a01b039091169063e074bb479061048e908490600401610ce3565b600060405180830381600087803b1580156104a857600080fd5b505af11580156104bc573d6000803e3d6000fd5b50505050806001600160a01b031663fcc8c2036040518163ffffffff1660e01b8152600401600060405180830381600087803b1580156102ba57600080fd5b6000805460609081906001600160a01b0316321461052b5760405162461bcd60e51b815260040161021490610e99565b6000806000866001600160a01b031663cc797fd56040518163ffffffff1660e01b815260040160006040518083038186803b15801561056957600080fd5b505afa15801561057d573d6000803e3d6000fd5b505050506040513d6000823e601f3d908101601f191682016040526105a59190810190610f87565b9199909850909650945050505050565b6060600680548060200260200160405190810160405280929190818152602001828054801561060d57602002820191906000526020600020905b81546001600160a01b031681526001909101906020018083116105ef575b5050505050905090565b600754604051623d104160e31b81526001600160a01b03909116906301e8820890610646903390600401610ce3565b60206040518083038186803b15801561065e57600080fd5b505afa158015610672573d6000803e3d6000fd5b505050506040513d601f19601f8201168201806040525081019061069691906110c5565b151560011461070f576040805162461bcd60e51b81526020600482015260248101919091527f596f7520646f6e27742068617665207065726d697373696f6e20746f2061636360448201527f657373206865616c746820646174612026206d65646963616c207265706f72746064820152608401610214565b600854604051639840e1e560e01b81526001600160a01b03909116908190639840e1e590610741903290600401610ce3565b60206040518083038186803b15801561075957600080fd5b505afa15801561076d573d6000803e3d6000fd5b505050506040513d601f19601f8201168201806040525081019061079191906110c5565b15156001146107d95760405162461bcd60e51b81526020600482015260146024820152732cb7ba9030b932903737ba1030903237b1ba37b960611b6044820152606401610214565b50600680546001810182556000919091527ff652222313e28459528d920b65115c16c04f3efc82aaedc97be59f3f377c0d3f0180546001600160a01b0319166001600160a01b0392909216919091179055565b60008054606091829182919081906001600160a01b031632146108615760405162461bcd60e51b815260040161021490610e99565b600160026003600454600560009054906101000a900460ff16848054610886906110e0565b80601f01602080910402602001604051908101604052809291908181526020018280546108b2906110e0565b80156108ff5780601f106108d4576101008083540402835291602001916108ff565b820191906000526020600020905b8154815290600101906020018083116108e257829003601f168201915b50505050509450838054610912906110e0565b80601f016020809104026020016040519081016040528092919081815260200182805461093e906110e0565b801561098b5780601f106109605761010080835404028352916020019161098b565b820191906000526020600020905b81548152906001019060200180831161096e57829003601f168201915b5050505050935082805461099e906110e0565b80601f01602080910402602001604051908101604052809291908181526020018280546109ca906110e0565b8015610a175780601f106109ec57610100808354040283529160200191610a17565b820191906000526020600020905b8154815290600101906020018083116109fa57829003601f168201915b50505050509250945094509450945094509091929394565b828054610a3b906110e0565b90600052602060002090601f016020900481019282610a5d5760008555610aa3565b82601f10610a7657805160ff1916838001178555610aa3565b82800160010185558215610aa3579182015b82811115610aa3578251825591602001919060010190610a88565b50610aaf929150610ab3565b5090565b5b80821115610aaf5760008155600101610ab4565b600060208284031215610ada57600080fd5b81356001600160a01b0381168114610af157600080fd5b9392505050565b634e487b7160e01b600052604160045260246000fd5b6040516060810167ffffffffffffffff81118282101715610b3157610b31610af8565b60405290565b604051601f8201601f1916810167ffffffffffffffff81118282101715610b6057610b60610af8565b604052919050565b600067ffffffffffffffff821115610b8257610b82610af8565b50601f01601f191660200190565b600082601f830112610ba157600080fd5b8135610bb4610baf82610b68565b610b37565b818152846020838601011115610bc957600080fd5b816020850160208301376000918101602001919091529392505050565b600080600080600060a08688031215610bfe57600080fd5b853567ffffffffffffffff80821115610c1657600080fd5b610c2289838a01610b90565b96506020880135915080821115610c3857600080fd5b610c4489838a01610b90565b95506040880135915080821115610c5a57600080fd5b50610c6788828901610b90565b93505060608601359150608086013560028110610c8357600080fd5b809150509295509295909350565b634e487b7160e01b600052602160045260246000fd5b8581526020810185905260a0810160048510610cc557610cc5610c91565b60408201949094529115156060830152151560809091015292915050565b6001600160a01b0391909116815260200190565b60005b83811015610d12578181015183820152602001610cfa565b83811115610d21576000848401525b50505050565b60008151808452610d3f816020860160208601610cf7565b601f01601f19169290920160200192915050565b6000606085835260208181850152610d6d82850187610d27565b6040858203818701528187518084528484019150848160051b850101858a0160005b83811015610dd857868303601f19018552815180518a8552610db38b860182610d27565b828b0151868c0152918801519488019490945294880194925090870190600101610d8f565b50909c9b505050505050505050505050565b6020808252825182820181905260009190848201906040850190845b81811015610e2b5783516001600160a01b031683529284019291840191600101610e06565b50909695505050505050565b60a081526000610e4a60a0830188610d27565b8281036020840152610e5c8188610d27565b90508281036040840152610e708187610d27565b91505083606083015260028310610e8957610e89610c91565b8260808301529695505050505050565b6020808252601590820152742cb7ba9030b932903737ba103a34329037bbb732b960591b604082015260600190565b80518015158114610ed857600080fd5b919050565b600080600080600060a08688031215610ef557600080fd5b8551945060208601519350604086015160048110610f1257600080fd5b9250610f2060608701610ec8565b9150610f2e60808701610ec8565b90509295509295909350565b600082601f830112610f4b57600080fd5b8151610f59610baf82610b68565b818152846020838601011115610f6e57600080fd5b610f7f826020830160208701610cf7565b949350505050565b600080600060608486031215610f9c57600080fd5b8351925060208085015167ffffffffffffffff80821115610fbc57600080fd5b610fc888838901610f3a565b94506040870151915080821115610fde57600080fd5b818701915087601f830112610ff257600080fd5b81518181111561100457611004610af8565b8060051b611013858201610b37565b918252838101850191858101908b84111561102d57600080fd5b86860192505b838310156110b45782518581111561104b5760008081fd5b86016060818e03601f190112156110625760008081fd5b61106a610b0e565b888201518781111561107c5760008081fd5b61108a8f8b83860101610f3a565b82525060408201518982015260608201516040820152808452505086820191508683019250611033565b809750505050505050509250925092565b6000602082840312156110d757600080fd5b610af182610ec8565b600181811c908216806110f457607f821691505b6020821081141561111557634e487b7160e01b600052602260045260246000fd5b5091905056fea2646970667358221220b9e07b3f23fa2913ba23a771d51ad97fc38f8bffc861005e160fbc556d92867364736f6c63430008090033608060405234801561001057600080fd5b50600080546001600160a01b0319163217905560038054630100000033026301000000600160b81b03199091161790556105118061004f6000396000f3fe608060405234801561001057600080fd5b50600436106100365760003560e01c8063919932d21461003b578063ee50ada41461005d575b600080fd5b610043610072565b604051610054959493929190610365565b60405180910390f35b61007061006b3660046103c0565b6101d0565b005b60008060008060008060038054906101000a90046001600160a01b03166001600160a01b031663ab8c71c06040518163ffffffff1660e01b815260040160206040518083038186803b1580156100c757600080fd5b505afa1580156100db573d6000803e3d6000fd5b505050506040513d601f19601f820116820180604052508101906100ff9190610423565b604051623d104160e31b81523360048201529091506001600160a01b038216906301e882089060240160206040518083038186803b15801561014057600080fd5b505afa158015610154573d6000803e3d6000fd5b505050506040513d601f19601f820116820180604052508101906101789190610453565b15156001146101a25760405162461bcd60e51b815260040161019990610470565b60405180910390fd5b5050600154600254600354919690955060ff8083169550610100830481169450620100009092049091169150565b600060038054906101000a90046001600160a01b03166001600160a01b031663ab8c71c06040518163ffffffff1660e01b815260040160206040518083038186803b15801561021e57600080fd5b505afa158015610232573d6000803e3d6000fd5b505050506040513d601f19601f820116820180604052508101906102569190610423565b604051623d104160e31b81523360048201529091506001600160a01b038216906301e882089060240160206040518083038186803b15801561029757600080fd5b505afa1580156102ab573d6000803e3d6000fd5b505050506040513d601f19601f820116820180604052508101906102cf9190610453565b15156001146102f05760405162461bcd60e51b815260040161019990610470565b6001868155600286905560038054869260ff199091169083838111156103185761031861034f565b0217905550506003805462ffff0019166101009315159390930262ff00001916929092176201000091151591909102179055505050565b634e487b7160e01b600052602160045260246000fd5b8581526020810185905260a081016004851061039157634e487b7160e01b600052602160045260246000fd5b60408201949094529115156060830152151560809091015292915050565b80151581146103bd57600080fd5b50565b600080600080600060a086880312156103d857600080fd5b85359450602086013593506040860135600481106103f557600080fd5b92506060860135610405816103af565b91506080860135610415816103af565b809150509295509295909350565b60006020828403121561043557600080fd5b81516001600160a01b038116811461044c57600080fd5b9392505050565b60006020828403121561046557600080fd5b815161044c816103af565b60208082526045908201527f596f7520646f6e27742068617665207065726d697373696f6e20746f2061646460408201527f206f722076696577206865616c746820646174612026206d65646963616c2072606082015264195c1bdc9d60da1b608082015260a0019056fea2646970667358221220081f097f0349c1e52de35c9f4dce97eba728ab7b136c7e32196c48418683ce0664736f6c63430008090033608060405234801561001057600080fd5b50600080546001600160a01b03191632178155338152600160208190526040909120805460ff191690911790556101df8061004c6000396000f3fe608060405234801561001057600080fd5b50600436106100415760003560e01c806301e88208146100465780632d8e32781461007d578063e074bb4714610092575b600080fd5b61006961005436600461014a565b60016020526000908152604090205460ff1681565b604051901515815260200160405180910390f35b61009061008b36600461014a565b6100a5565b005b6100906100a036600461014a565b6100ff565b6000546001600160a01b031632146100d85760405162461bcd60e51b81526004016100cf9061017a565b60405180910390fd5b6001600160a01b03166000908152600160208190526040909120805460ff19169091179055565b6000546001600160a01b031632146101295760405162461bcd60e51b81526004016100cf9061017a565b6001600160a01b03166000908152600160205260409020805460ff19169055565b60006020828403121561015c57600080fd5b81356001600160a01b038116811461017357600080fd5b9392505050565b6020808252601590820152742cb7ba9030b932903737ba103a34329037bbb732b960591b60408201526060019056fea2646970667358221220e7742af932bc8626e11561331df8d6e9d2e49a94326f28e4c8497c0930cc7ec864736f6c63430008090033",
  "immutableReferences": {},
  "source": "// SPDX-License-Identifier: MIT\r\npragma solidity ^0.8.0;\r\nimport \"./1_Library.sol\";\r\nimport \"./2_Ownable.sol\";\r\nimport \"./3_EHR.sol\";\r\nimport \"./5_Doctor.sol\";\r\nimport \"./7_HealthData.sol\";\r\nimport \"./8_MedicalReport.sol\";\r\nimport \"./9_Permissions.sol\";\r\n\r\ncontract Patient is Ownable {\r\n    // STATE VARIABLES\r\n    // biodata\r\n    string firstName;\r\n    string lastName;\r\n    string id; // iqama, passport\r\n    uint dateOfBirth;\r\n    Library.Sex sex;\r\n    Library.User user;\r\n\r\n    // connected smart contracts\r\n    address public healthData;\r\n    address[] medicalReports;\r\n    address public permissions;\r\n    address ehr;\r\n\r\n\r\n    // CONSTRUCTOR\r\n    constructor(\r\n        string memory _firstName,\r\n        string memory _lastName,\r\n        string memory _id,\r\n        uint _dateOfBirth,\r\n        Library.Sex _sex\r\n    ) {\r\n        // biodata\r\n        firstName = _firstName;\r\n        lastName = _lastName;\r\n        id = _id;\r\n        dateOfBirth = _dateOfBirth;\r\n        sex = _sex;\r\n        user = Library.User.Patient;\r\n\r\n        // connected smart contracts\r\n        HealthData _healthData = new HealthData();\r\n        healthData = address(_healthData);\r\n\r\n        Permissions _permissions = new Permissions();\r\n        permissions = address(_permissions);\r\n\r\n        ehr = msg.sender;\r\n    }\r\n\r\n\r\n    // MODIFIERS\r\n    modifier permittedAccess() {\r\n        // msg.sender -> doctor or patient contract\r\n        require(Permissions(permissions).permissions(msg.sender) == true, \r\n            \"You don't have permission to access health data & medical report\");\r\n        _;\r\n    }\r\n\r\n    modifier isDoctor() {\r\n        address contractAddress = ehr; // ! assign after deploying EHR \r\n        require(EHR(contractAddress).hasDoctorRecord(tx.origin) == true, \"You are not a doctor\");\r\n        _;\r\n    }\r\n\r\n    // FUNCTIONS\r\n    function getMedicalReports() public view returns(address[] memory) {\r\n        return medicalReports;\r\n    }\r\n\r\n    function addMedicalReport(\r\n        // address _patient,\r\n        // string memory _diagnostic,\r\n        // string[] memory _medicine, \r\n        // uint[] memory _numDays, \r\n        // uint[] memory _perDay\r\n        address _medicalReportAddress\r\n    ) public payable permittedAccess isDoctor {\r\n        // MedicalReport _medicalReport = new MedicalReport(_patient, _diagnostic, _medicine, _numDays, _perDay);\r\n        // address _medicalReportAddress = address(_medicalReport);\r\n        \r\n        medicalReports.push(_medicalReportAddress);\r\n        // return _medicalReportAddress;\r\n    }\r\n\r\n    function getBiodata() public view isOwner returns(\r\n        string memory, \r\n        string memory, \r\n        string memory, \r\n        uint, \r\n        Library.Sex\r\n    ) {\r\n        return (firstName, lastName, id, dateOfBirth, sex);\r\n    }\r\n\r\n    function setBiodata(\r\n        string memory _firstName,\r\n        string memory _lastName,\r\n        string memory _id,\r\n        uint _dateOfBirth,\r\n        Library.Sex _sex\r\n    ) public isOwner {\r\n        // if (firstName != _firstName) \r\n        firstName = _firstName;\r\n        // if (lastName != _lastName) \r\n        lastName = _lastName;\r\n        // if (id != _id) \r\n        id = _id;\r\n        // if (dateOfBirth != _dateOfBirth) \r\n        dateOfBirth = _dateOfBirth;\r\n        // if (sex != _sex) \r\n        sex = _sex;\r\n    }\r\n\r\n    function addDoctor(address _doctor) public payable isOwner {\r\n        // grant permission\r\n        Permissions(permissions).grantPermission(_doctor);\r\n        Doctor(_doctor).addPatient();\r\n    }\r\n\r\n    function removeDoctor(address _doctor) public payable isOwner {\r\n        // remove permission\r\n        Permissions(permissions).removePermission(_doctor);\r\n        Doctor(_doctor).removePatient();\r\n    }\r\n\r\n    function getMedicalReportDetails(address _medicalReport) public view isOwner returns(\r\n        uint,\r\n        string memory,\r\n        Library.Prescription[] memory\r\n    ) {\r\n        (uint _dateTime, string memory _diagnostic, Library.Prescription[] memory _prescriptions) = MedicalReport(_medicalReport).getMedicalReportDetails();\r\n        return (_dateTime, _diagnostic, _prescriptions);\r\n    }\r\n\r\n    function getHealthData() public view isOwner returns(\r\n        uint, \r\n        uint, \r\n        Library.BloodType, \r\n        bool, \r\n        bool\r\n    ) {\r\n        return HealthData(healthData).getHealthData();\r\n    }\r\n\r\n}\r\n",
  "sourcePath": "D:\\Blockchain\\dapp_ehr_1\\truffle\\contracts\\6_Patient.sol",
  "compiler": {
    "name": "solc",
    "version": "0.8.9+commit.e5eed63a.Emscripten.clang"
  },
  "schemaVersion": "3.4.3",
  "updatedAt": "2023-01-31T02:46:14.188Z",
  "devdoc": {
    "kind": "dev",
    "methods": {},
    "version": 1
  },
  "userdoc": {
    "kind": "user",
    "methods": {},
    "version": 1
  }
}