{
  "contractName": "Permissions",
  "abi": [
    {
      "inputs": [],
      "stateMutability": "nonpayable",
      "type": "constructor"
    },
    {
      "inputs": [
        {
          "internalType": "address",
          "name": "",
          "type": "address"
        }
      ],
      "name": "permissions",
      "outputs": [
        {
          "internalType": "bool",
          "name": "",
          "type": "bool"
        }
      ],
      "stateMutability": "view",
      "type": "function"
    },
    {
      "inputs": [
        {
          "internalType": "address",
          "name": "_permitted",
          "type": "address"
        }
      ],
      "name": "grantPermission",
      "outputs": [],
      "stateMutability": "nonpayable",
      "type": "function"
    },
    {
      "inputs": [
        {
          "internalType": "address",
          "name": "_permitted",
          "type": "address"
        }
      ],
      "name": "removePermission",
      "outputs": [],
      "stateMutability": "nonpayable",
      "type": "function"
    }
  ],
  "bytecode": "0x608060405234801561001057600080fd5b50600080546001600160a01b03191632178155338152600160208190526040909120805460ff191690911790556101df8061004c6000396000f3fe608060405234801561001057600080fd5b50600436106100415760003560e01c806301e88208146100465780632d8e32781461007d578063e074bb4714610092575b600080fd5b61006961005436600461014a565b60016020526000908152604090205460ff1681565b604051901515815260200160405180910390f35b61009061008b36600461014a565b6100a5565b005b6100906100a036600461014a565b6100ff565b6000546001600160a01b031632146100d85760405162461bcd60e51b81526004016100cf9061017a565b60405180910390fd5b6001600160a01b03166000908152600160208190526040909120805460ff19169091179055565b6000546001600160a01b031632146101295760405162461bcd60e51b81526004016100cf9061017a565b6001600160a01b03166000908152600160205260409020805460ff19169055565b60006020828403121561015c57600080fd5b81356001600160a01b038116811461017357600080fd5b9392505050565b6020808252601590820152742cb7ba9030b932903737ba103a34329037bbb732b960591b60408201526060019056fea2646970667358221220e7742af932bc8626e11561331df8d6e9d2e49a94326f28e4c8497c0930cc7ec864736f6c63430008090033",
  "immutableReferences": {},
  "source": "// SPDX-License-Identifier: MIT\r\npragma solidity ^0.8.0;\r\nimport \"./2_Ownable.sol\";\r\n\r\ncontract Permissions is Ownable {\r\n    // STATE VARIABLES\r\n    mapping(address => bool) public permissions;\r\n\r\n    // CONSTRUCTOR\r\n    constructor() {\r\n        super;\r\n        permissions[msg.sender] = true;\r\n    }\r\n\r\n    // MODIFIERS\r\n\r\n\r\n    // FUNCTIONS\r\n    function grantPermission(address _permitted) public isOwner {\r\n        permissions[_permitted] = true;\r\n    }\r\n\r\n    function removePermission(address _permitted) public isOwner {\r\n        permissions[_permitted] = false;\r\n    }\r\n\r\n}\r\n",
  "sourcePath": "D:\\Blockchain\\dapp_ehr_1\\truffle\\contracts\\9_Permissions.sol",
  "compiler": {
    "name": "solc",
    "version": "0.8.9+commit.e5eed63a.Emscripten.clang"
  },
  "schemaVersion": "3.4.3",
  "updatedAt": "2023-01-31T02:46:14.253Z",
  "devdoc": {
    "kind": "dev",
    "methods": {},
    "version": 1
  },
  "userdoc": {
    "kind": "user",
    "methods": {},
    "version": 1
  }
}