{
  "contractName": "Doctor",
  "abi": [
    {
      "inputs": [
        {
          "internalType": "string",
          "name": "_firstName",
          "type": "string"
        },
        {
          "internalType": "string",
          "name": "_lastName",
          "type": "string"
        },
        {
          "internalType": "string",
          "name": "_id",
          "type": "string"
        },
        {
          "internalType": "uint256",
          "name": "_dateOfBirth",
          "type": "uint256"
        },
        {
          "internalType": "enum Library.Sex",
          "name": "_sex",
          "type": "uint8"
        }
      ],
      "stateMutability": "nonpayable",
      "type": "constructor"
    },
    {
      "inputs": [],
      "name": "getBiodata",
      "outputs": [
        {
          "internalType": "string",
          "name": "",
          "type": "string"
        },
        {
          "internalType": "string",
          "name": "",
          "type": "string"
        },
        {
          "internalType": "string",
          "name": "",
          "type": "string"
        },
        {
          "internalType": "uint256",
          "name": "",
          "type": "uint256"
        },
        {
          "internalType": "enum Library.Sex",
          "name": "",
          "type": "uint8"
        }
      ],
      "stateMutability": "view",
      "type": "function"
    },
    {
      "inputs": [],
      "name": "hospital",
      "outputs": [
        {
          "internalType": "address",
          "name": "",
          "type": "address"
        }
      ],
      "stateMutability": "view",
      "type": "function"
    },
    {
      "inputs": [
        {
          "internalType": "string",
          "name": "_firstName",
          "type": "string"
        },
        {
          "internalType": "string",
          "name": "_lastName",
          "type": "string"
        },
        {
          "internalType": "string",
          "name": "_id",
          "type": "string"
        },
        {
          "internalType": "uint256",
          "name": "_dateOfBirth",
          "type": "uint256"
        },
        {
          "internalType": "enum Library.Sex",
          "name": "_sex",
          "type": "uint8"
        }
      ],
      "name": "setBiodata",
      "outputs": [],
      "stateMutability": "nonpayable",
      "type": "function"
    },
    {
      "inputs": [
        {
          "internalType": "address",
          "name": "_hospital",
          "type": "address"
        }
      ],
      "name": "setHospital",
      "outputs": [],
      "stateMutability": "payable",
      "type": "function"
    },
    {
      "inputs": [],
      "name": "getPatients",
      "outputs": [
        {
          "internalType": "address[]",
          "name": "",
          "type": "address[]"
        },
        {
          "internalType": "uint256",
          "name": "",
          "type": "uint256"
        }
      ],
      "stateMutability": "view",
      "type": "function"
    },
    {
      "inputs": [],
      "name": "addPatient",
      "outputs": [],
      "stateMutability": "nonpayable",
      "type": "function"
    },
    {
      "inputs": [],
      "name": "removePatient",
      "outputs": [],
      "stateMutability": "nonpayable",
      "type": "function"
    },
    {
      "inputs": [
        {
          "internalType": "address",
          "name": "_patient",
          "type": "address"
        },
        {
          "internalType": "string",
          "name": "_diagnostic",
          "type": "string"
        },
        {
          "internalType": "string[]",
          "name": "_medicine",
          "type": "string[]"
        },
        {
          "internalType": "uint256[]",
          "name": "_numDays",
          "type": "uint256[]"
        },
        {
          "internalType": "uint256[]",
          "name": "_perDay",
          "type": "uint256[]"
        }
      ],
      "name": "addMedicalReport",
      "outputs": [
        {
          "internalType": "address",
          "name": "",
          "type": "address"
        }
      ],
      "stateMutability": "payable",
      "type": "function"
    },
    {
      "inputs": [
        {
          "internalType": "address",
          "name": "_patient",
          "type": "address"
        }
      ],
      "name": "getPatientMedicalReports",
      "outputs": [
        {
          "internalType": "address[]",
          "name": "",
          "type": "address[]"
        }
      ],
      "stateMutability": "view",
      "type": "function"
    },
    {
      "inputs": [
        {
          "internalType": "address",
          "name": "_medicalReport",
          "type": "address"
        }
      ],
      "name": "getMedicalReportDetails",
      "outputs": [
        {
          "internalType": "uint256",
          "name": "",
          "type": "uint256"
        },
        {
          "internalType": "string",
          "name": "",
          "type": "string"
        },
        {
          "components": [
            {
              "internalType": "string",
              "name": "medicine",
              "type": "string"
            },
            {
              "internalType": "uint256",
              "name": "numDays",
              "type": "uint256"
            },
            {
              "internalType": "uint256",
              "name": "perDay",
              "type": "uint256"
            }
          ],
          "internalType": "struct Library.Prescription[]",
          "name": "",
          "type": "tuple[]"
        }
      ],
      "stateMutability": "view",
      "type": "function"
    },
    {
      "inputs": [
        {
          "internalType": "address",
          "name": "_patient",
          "type": "address"
        }
      ],
      "name": "getHealthData",
      "outputs": [
        {
          "internalType": "uint256",
          "name": "",
          "type": "uint256"
        },
        {
          "internalType": "uint256",
          "name": "",
          "type": "uint256"
        },
        {
          "internalType": "enum Library.BloodType",
          "name": "",
          "type": "uint8"
        },
        {
          "internalType": "bool",
          "name": "",
          "type": "bool"
        },
        {
          "internalType": "bool",
          "name": "",
          "type": "bool"
        }
      ],
      "stateMutability": "view",
      "type": "function"
    },
    {
      "inputs": [
        {
          "internalType": "address",
          "name": "_patient",
          "type": "address"
        },
        {
          "internalType": "uint256",
          "name": "_height",
          "type": "uint256"
        },
        {
          "internalType": "uint256",
          "name": "_weight",
          "type": "uint256"
        },
        {
          "internalType": "enum Library.BloodType",
          "name": "_bloodType",
          "type": "uint8"
        },
        {
          "internalType": "bool",
          "name": "_isSmoker",
          "type": "bool"
        },
        {
          "internalType": "bool",
          "name": "_hasAllergy",
          "type": "bool"
        }
      ],
      "name": "setHealthData",
      "outputs": [],
      "stateMutability": "nonpayable",
      "type": "function"
    }
  ],
  "bytecode": "0x60806040523480156200001157600080fd5b5060405162002a6038038062002a6083398101604081905262000034916200027f565b600080546001600160a01b031916321790558451859085908590859085906001906200006790829060208901906200010c565b5084516200007d9060029060208801906200010c565b508351620000939060039060208701906200010c565b5060048390556005805483919060ff191660018381811115620000ba57620000ba62000334565b02179055506005805482919061ff001916610100836002811115620000e357620000e362000334565b021790555050600880546001600160a01b03191633179055506200038798505050505050505050565b8280546200011a906200034a565b90600052602060002090601f0160209004810192826200013e576000855562000189565b82601f106200015957805160ff191683800117855562000189565b8280016001018555821562000189579182015b82811115620001895782518255916020019190600101906200016c565b50620001979291506200019b565b5090565b5b808211156200019757600081556001016200019c565b634e487b7160e01b600052604160045260246000fd5b600082601f830112620001da57600080fd5b81516001600160401b0380821115620001f757620001f7620001b2565b604051601f8301601f19908116603f01168101908282118183101715620002225762000222620001b2565b816040528381526020925086838588010111156200023f57600080fd5b600091505b8382101562000263578582018301518183018401529082019062000244565b83821115620002755760008385830101525b9695505050505050565b600080600080600060a086880312156200029857600080fd5b85516001600160401b0380821115620002b057600080fd5b620002be89838a01620001c8565b96506020880151915080821115620002d557600080fd5b620002e389838a01620001c8565b95506040880151915080821115620002fa57600080fd5b506200030988828901620001c8565b935050606086015191506080860151600281106200032657600080fd5b809150509295509295909350565b634e487b7160e01b600052602160045260246000fd5b600181811c908216806200035f57607f821691505b602082108114156200038157634e487b7160e01b600052602260045260246000fd5b50919050565b6126c980620003976000396000f3fe608060405260043610620000b55760003560e01c8063aa2fedde116200006c578063aa2fedde14620001bb578063b9b89f5914620001fc578063dec1c9041462000232578063e40252031462000249578063f59f16031462000260578063fcc8c203146200028b57600080fd5b806312ad1c3714620000ba57806357a5369714620000eb5780636ceb79cd146200011f5780638908e67f14620001575780639be1d2e4146200017e578063a505612b14620001a3575b600080fd5b348015620000c757600080fd5b50620000d2620002a3565b604051620000e29291906200111a565b60405180910390f35b348015620000f857600080fd5b50620001106200010a36600462001157565b62000411565b604051620000e2919062001177565b3480156200012c57600080fd5b50620001446200013e36600462001157565b620004c3565b604051620000e2959493929190620011a2565b3480156200016457600080fd5b506200017c62000176366004620012de565b620005fa565b005b3480156200018b57600080fd5b506200017c6200019d366004620013b1565b6200069b565b348015620001b057600080fd5b506200017c620007b5565b348015620001c857600080fd5b50600554620001e3906201000090046001600160a01b031681565b6040516001600160a01b039091168152602001620000e2565b3480156200020957600080fd5b50620002216200021b36600462001157565b6200095e565b604051620000e2939291906200148b565b6200017c6200024336600462001157565b62000a1f565b620001e36200025a366004620015bc565b62000b63565b3480156200026d57600080fd5b506200027862000cce565b604051620000e295949392919062001705565b3480156200029857600080fd5b506200017c62000ebc565b60008054606091906001600160a01b03163214620002de5760405162461bcd60e51b8152600401620002d59062001770565b60405180910390fd5b60075460009067ffffffffffffffff811115620002ff57620002ff620011e1565b60405190808252806020026020018201604052801562000329578160200160208202803683370190505b5090506000805b600754811015620004075760066000600783815481106200035557620003556200179f565b60009182526020808320909101546001600160a01b0316835282019290925260400190205460ff1615620003f457600781815481106200039957620003996200179f565b9060005260206000200160009054906101000a90046001600160a01b0316838381518110620003cc57620003cc6200179f565b6001600160a01b039092166020928302919091019091015281620003f081620017b5565b9250505b620003ff81620017b5565b905062000330565b5090925090509091565b6000546060906001600160a01b03163214620004415760405162461bcd60e51b8152600401620002d59062001770565b6000826001600160a01b031663c682f5d46040518163ffffffff1660e01b815260040160006040518083038186803b1580156200047d57600080fd5b505afa15801562000492573d6000803e3d6000fd5b505050506040513d6000823e601f3d908101601f19168201604052620004bc9190810190620017df565b9392505050565b6000805481908190819081906001600160a01b03163214620004f95760405162461bcd60e51b8152600401620002d59062001770565b6000866001600160a01b031663d9ef76c26040518163ffffffff1660e01b815260040160206040518083038186803b1580156200053557600080fd5b505afa1580156200054a573d6000803e3d6000fd5b505050506040513d601f19601f8201168201806040525081019062000570919062001884565b9050806001600160a01b031663919932d26040518163ffffffff1660e01b815260040160a06040518083038186803b158015620005ac57600080fd5b505afa158015620005c1573d6000803e3d6000fd5b505050506040513d601f19601f82011682018060405250810190620005e79190620018a4565b939b929a50909850965090945092505050565b6000546001600160a01b03163214620006275760405162461bcd60e51b8152600401620002d59062001770565b84516200063c90600190602088019062001020565b5083516200065290600290602087019062001020565b5082516200066890600390602086019062001020565b5060048290556005805482919060ff1916600183818111156200068f576200068f6200118c565b02179055505050505050565b6000546001600160a01b03163214620006c85760405162461bcd60e51b8152600401620002d59062001770565b6000866001600160a01b031663d9ef76c26040518163ffffffff1660e01b815260040160206040518083038186803b1580156200070457600080fd5b505afa15801562000719573d6000803e3d6000fd5b505050506040513d601f19601f820116820180604052508101906200073f919062001884565b604051633b942b6960e21b81529091506001600160a01b0382169063ee50ada490620007789089908990899089908990600401620011a2565b600060405180830381600087803b1580156200079357600080fd5b505af1158015620007a8573d6000803e3d6000fd5b5050505050505050505050565b60085460408051639de62ef760e01b815290516000926001600160a01b031691639de62ef7916004808301926020929190829003018186803b158015620007fb57600080fd5b505afa15801562000810573d6000803e3d6000fd5b505050506040513d601f19601f8201168201806040525081019062000836919062001884565b6040516314dfd8a160e01b81523260048201529091506001600160a01b038216906314dfd8a19060240160206040518083038186803b1580156200087957600080fd5b505afa1580156200088e573d6000803e3d6000fd5b505050506040513d601f19601f82011682018060405250810190620008b49190620018fe565b1515600114620008ff5760405162461bcd60e51b8152602060048201526015602482015274165bdd48185c99481b9bdd0818481c185d1a595b9d605a1b6044820152606401620002d5565b50336000818152600660205260408120805460ff191660019081179091556007805491820181559091527fa66cc928b5edb82af9bd49922954155ab7b0942694bea4ce44661d9a8736c6880180546001600160a01b0319169091179055565b6000805460609081906001600160a01b03163214620009915760405162461bcd60e51b8152600401620002d59062001770565b6000806000866001600160a01b031663cc797fd56040518163ffffffff1660e01b815260040160006040518083038186803b158015620009d057600080fd5b505afa158015620009e5573d6000803e3d6000fd5b505050506040513d6000823e601f3d908101601f1916820160405262000a0f919081019062001972565b9199909850909650945050505050565b6000546001600160a01b0316321462000a4c5760405162461bcd60e51b8152600401620002d59062001770565b6005546201000090046001600160a01b03161562000acf57600560029054906101000a90046001600160a01b03166001600160a01b031663c48722386040518163ffffffff1660e01b8152600401600060405180830381600087803b15801562000ab557600080fd5b505af115801562000aca573d6000803e3d6000fd5b505050505b80600560026101000a8154816001600160a01b0302191690836001600160a01b03160217905550600560029054906101000a90046001600160a01b03166001600160a01b03166375a3f4e36040518163ffffffff1660e01b8152600401600060405180830381600087803b15801562000b4757600080fd5b505af115801562000b5c573d6000803e3d6000fd5b5050505050565b600080546001600160a01b0316321462000b915760405162461bcd60e51b8152600401620002d59062001770565b6001600160a01b038616600090815260066020526040902054869060ff16151560011462000c1c5760405162461bcd60e51b815260206004820152603160248201527f596f7520646f6e277420686176652061636365737320746f2070617469656e7460448201527009dcc81b59591a58d85b081c995c1bdc9d607a1b6064820152608401620002d5565b6000878787878760405162000c3190620010af565b62000c4195949392919062001ae2565b604051809103906000f08015801562000c5e573d6000803e3d6000fd5b50604051631de7604160e31b81526001600160a01b03808316600483015291925082918a169063ef3b020890602401600060405180830381600087803b15801562000ca857600080fd5b505af115801562000cbd573d6000803e3d6000fd5b50929b9a5050505050505050505050565b6060806060600080600160026003600454600560009054906101000a900460ff1684805462000cfd9062001b97565b80601f016020809104026020016040519081016040528092919081815260200182805462000d2b9062001b97565b801562000d7c5780601f1062000d505761010080835404028352916020019162000d7c565b820191906000526020600020905b81548152906001019060200180831162000d5e57829003601f168201915b5050505050945083805462000d919062001b97565b80601f016020809104026020016040519081016040528092919081815260200182805462000dbf9062001b97565b801562000e105780601f1062000de45761010080835404028352916020019162000e10565b820191906000526020600020905b81548152906001019060200180831162000df257829003601f168201915b5050505050935082805462000e259062001b97565b80601f016020809104026020016040519081016040528092919081815260200182805462000e539062001b97565b801562000ea45780601f1062000e785761010080835404028352916020019162000ea4565b820191906000526020600020905b81548152906001019060200180831162000e8657829003601f168201915b50505050509250945094509450945094509091929394565b60085460408051639de62ef760e01b815290516000926001600160a01b031691639de62ef7916004808301926020929190829003018186803b15801562000f0257600080fd5b505afa15801562000f17573d6000803e3d6000fd5b505050506040513d601f19601f8201168201806040525081019062000f3d919062001884565b6040516314dfd8a160e01b81523260048201529091506001600160a01b038216906314dfd8a19060240160206040518083038186803b15801562000f8057600080fd5b505afa15801562000f95573d6000803e3d6000fd5b505050506040513d601f19601f8201168201806040525081019062000fbb9190620018fe565b1515600114620010065760405162461bcd60e51b8152602060048201526015602482015274165bdd48185c99481b9bdd0818481c185d1a595b9d605a1b6044820152606401620002d5565b50336000908152600660205260409020805460ff19169055565b8280546200102e9062001b97565b90600052602060002090601f0160209004810192826200105257600085556200109d565b82601f106200106d57805160ff19168380011785556200109d565b828001600101855582156200109d579182015b828111156200109d57825182559160200191906001019062001080565b50620010ab929150620010bd565b5090565b610abf8062001bd583390190565b5b80821115620010ab5760008155600101620010be565b600081518084526020808501945080840160005b838110156200110f5781516001600160a01b031687529582019590820190600101620010e8565b509495945050505050565b6040815260006200112f6040830185620010d4565b90508260208301529392505050565b6001600160a01b03811681146200115457600080fd5b50565b6000602082840312156200116a57600080fd5b8135620004bc816200113e565b602081526000620004bc6020830184620010d4565b634e487b7160e01b600052602160045260246000fd5b8581526020810185905260a0810160048510620011c357620011c36200118c565b60408201949094529115156060830152151560809091015292915050565b634e487b7160e01b600052604160045260246000fd5b6040516060810167ffffffffffffffff811182821017156200121d576200121d620011e1565b60405290565b604051601f8201601f1916810167ffffffffffffffff811182821017156200124f576200124f620011e1565b604052919050565b600067ffffffffffffffff821115620012745762001274620011e1565b50601f01601f191660200190565b600082601f8301126200129457600080fd5b8135620012ab620012a58262001257565b62001223565b818152846020838601011115620012c157600080fd5b816020850160208301376000918101602001919091529392505050565b600080600080600060a08688031215620012f757600080fd5b853567ffffffffffffffff808211156200131057600080fd5b6200131e89838a0162001282565b965060208801359150808211156200133557600080fd5b6200134389838a0162001282565b955060408801359150808211156200135a57600080fd5b50620013698882890162001282565b935050606086013591506080860135600281106200138657600080fd5b809150509295509295909350565b600481106200115457600080fd5b80151581146200115457600080fd5b60008060008060008060c08789031215620013cb57600080fd5b8635620013d8816200113e565b955060208701359450604087013593506060870135620013f88162001394565b925060808701356200140a81620013a2565b915060a08701356200141c81620013a2565b809150509295509295509295565b60005b83811015620014475781810151838201526020016200142d565b8381111562001457576000848401525b50505050565b60008151808452620014778160208601602086016200142a565b601f01601f19169290920160200192915050565b6000606085835260208181850152620014a7828501876200145d565b6040858203818701528187518084528484019150848160051b850101858a0160005b838110156200151657868303601f19018552815180518a8552620014f08b8601826200145d565b828b0151868c0152918801519488019490945294880194925090870190600101620014c9565b50909c9b505050505050505050505050565b600067ffffffffffffffff821115620015455762001545620011e1565b5060051b60200190565b600082601f8301126200156157600080fd5b8135602062001574620012a58362001528565b82815260059290921b840181019181810190868411156200159457600080fd5b8286015b84811015620015b1578035835291830191830162001598565b509695505050505050565b600080600080600060a08688031215620015d557600080fd5b8535620015e2816200113e565b945060208681013567ffffffffffffffff808211156200160157600080fd5b6200160f8a838b0162001282565b965060408901359150808211156200162657600080fd5b818901915089601f8301126200163b57600080fd5b81356200164c620012a58262001528565b81815260059190911b8301840190848101908c8311156200166c57600080fd5b8585015b83811015620016a9578035858111156200168a5760008081fd5b6200169a8f89838a010162001282565b84525091860191860162001670565b50975050506060890135925080831115620016c357600080fd5b620016d18a848b016200154f565b94506080890135925080831115620016e857600080fd5b5050620016f8888289016200154f565b9150509295509295909350565b60a0815260006200171a60a08301886200145d565b82810360208401526200172e81886200145d565b905082810360408401526200174481876200145d565b915050836060830152600283106200176057620017606200118c565b8260808301529695505050505050565b6020808252601590820152742cb7ba9030b932903737ba103a34329037bbb732b960591b604082015260600190565b634e487b7160e01b600052603260045260246000fd5b6000600019821415620017d857634e487b7160e01b600052601160045260246000fd5b5060010190565b60006020808385031215620017f357600080fd5b825167ffffffffffffffff8111156200180b57600080fd5b8301601f810185136200181d57600080fd5b80516200182e620012a58262001528565b81815260059190911b820183019083810190878311156200184e57600080fd5b928401925b828410156200187957835162001869816200113e565b8252928401929084019062001853565b979650505050505050565b6000602082840312156200189757600080fd5b8151620004bc816200113e565b600080600080600060a08688031215620018bd57600080fd5b85519450602086015193506040860151620018d88162001394565b6060870151909350620018eb81620013a2565b60808701519092506200138681620013a2565b6000602082840312156200191157600080fd5b8151620004bc81620013a2565b600082601f8301126200193057600080fd5b815162001941620012a58262001257565b8181528460208386010111156200195757600080fd5b6200196a8260208301602087016200142a565b949350505050565b6000806000606084860312156200198857600080fd5b8351925060208085015167ffffffffffffffff80821115620019a957600080fd5b620019b7888389016200191e565b94506040870151915080821115620019ce57600080fd5b818701915087601f830112620019e357600080fd5b8151620019f4620012a58262001528565b81815260059190911b8301840190848101908a83111562001a1457600080fd5b8585015b8381101562001a9f5780518581111562001a325760008081fd5b86016060818e03601f1901121562001a4a5760008081fd5b62001a54620011f7565b888201518781111562001a675760008081fd5b62001a778f8b838601016200191e565b8252506040828101518a83015260609092015191810191909152835291860191860162001a18565b508096505050505050509250925092565b600081518084526020808501945080840160005b838110156200110f5781518752958201959082019060010162001ac4565b6001600160a01b038616815260a0602080830182905260009162001b09908401886200145d565b8381036040850152865180825282820190600581901b83018401848a0160005b8381101562001b5b57601f1986840301855262001b488383516200145d565b9487019492509086019060010162001b29565b5050868103606088015262001b71818a62001ab0565b945050505050828103608084015262001b8b818562001ab0565b98975050505050505050565b600181811c9082168062001bac57607f821691505b6020821081141562001bce57634e487b7160e01b600052602260045260246000fd5b5091905056fe60806040523480156200001157600080fd5b5060405162000abf38038062000abf833981016040819052620000349162000442565b60008054336001600160a01b031991821617909155600180549091166001600160a01b038716179055426002558351620000769060039060208701906200019c565b50815183511480156200008a575080518351145b15620001915760005b83518110156200018f5760006040518060600160405280868481518110620000bf57620000bf6200051c565b60200260200101518152602001858481518110620000e157620000e16200051c565b602002602001015181526020018484815181106200010357620001036200051c565b6020908102919091018101519091526004805460018101825560009190915282518051939450849360039092027f8a35acfbc15ff81a39ae7d344fd709f28e8600b4aa8c65c6b64bfe7fe36bd19b019262000164928492909101906200019c565b506020820151600182015560409091015160029091015550620001878162000532565b905062000093565b505b505050505062000599565b828054620001aa906200055c565b90600052602060002090601f016020900481019282620001ce576000855562000219565b82601f10620001e957805160ff191683800117855562000219565b8280016001018555821562000219579182015b8281111562000219578251825591602001919060010190620001fc565b50620002279291506200022b565b5090565b5b808211156200022757600081556001016200022c565b634e487b7160e01b600052604160045260246000fd5b604051601f8201601f191681016001600160401b038111828210171562000283576200028362000242565b604052919050565b600082601f8301126200029d57600080fd5b81516001600160401b03811115620002b957620002b962000242565b6020620002cf601f8301601f1916820162000258565b8281528582848701011115620002e457600080fd5b60005b8381101562000304578581018301518282018401528201620002e7565b83811115620003165760008385840101525b5095945050505050565b60006001600160401b038211156200033c576200033c62000242565b5060051b60200190565b600082601f8301126200035857600080fd5b81516020620003716200036b8362000320565b62000258565b82815260059290921b840181019181810190868411156200039157600080fd5b8286015b84811015620003d55780516001600160401b03811115620003b65760008081fd5b620003c68986838b01016200028b565b84525091830191830162000395565b509695505050505050565b600082601f830112620003f257600080fd5b81516020620004056200036b8362000320565b82815260059290921b840181019181810190868411156200042557600080fd5b8286015b84811015620003d5578051835291830191830162000429565b600080600080600060a086880312156200045b57600080fd5b85516001600160a01b03811681146200047357600080fd5b60208701519095506001600160401b03808211156200049157600080fd5b6200049f89838a016200028b565b95506040880151915080821115620004b657600080fd5b620004c489838a0162000346565b94506060880151915080821115620004db57600080fd5b620004e989838a01620003e0565b935060808801519150808211156200050057600080fd5b506200050f88828901620003e0565b9150509295509295909350565b634e487b7160e01b600052603260045260246000fd5b60006000198214156200055557634e487b7160e01b600052601160045260246000fd5b5060010190565b600181811c908216806200057157607f821691505b602082108114156200059357634e487b7160e01b600052602260045260246000fd5b50919050565b61051680620005a96000396000f3fe608060405234801561001057600080fd5b506004361061002b5760003560e01c8063cc797fd514610030575b600080fd5b610038610050565b604051610047939291906103bc565b60405180910390f35b60006060806000600160009054906101000a90046001600160a01b03166001600160a01b031663ab8c71c06040518163ffffffff1660e01b815260040160206040518083038186803b1580156100a557600080fd5b505afa1580156100b9573d6000803e3d6000fd5b505050506040513d601f19601f820116820180604052508101906100dd9190610453565b604051623d104160e31b81523360048201529091506001600160a01b038216906301e882089060240160206040518083038186803b15801561011e57600080fd5b505afa158015610132573d6000803e3d6000fd5b505050506040513d601f19601f820116820180604052508101906101569190610483565b15156001146101d15760405162461bcd60e51b815260206004820152603760248201527f596f7520646f6e27742068617665207065726d697373696f6e20746f2061636360448201527f6573732074686973206d65646963616c207265706f7274000000000000000000606482015260840160405180910390fd5b600254600360048180546101e4906104a5565b80601f0160208091040260200160405190810160405280929190818152602001828054610210906104a5565b801561025d5780601f106102325761010080835404028352916020019161025d565b820191906000526020600020905b81548152906001019060200180831161024057829003601f168201915b5050505050915080805480602002602001604051908101604052809291908181526020016000905b8282101561035d57838290600052602060002090600302016040518060600160405290816000820180546102b8906104a5565b80601f01602080910402602001604051908101604052809291908181526020018280546102e4906104a5565b80156103315780601f1061030657610100808354040283529160200191610331565b820191906000526020600020905b81548152906001019060200180831161031457829003601f168201915b505050505081526020016001820154815260200160028201548152505081526020019060010190610285565b50505050905093509350935050909192565b6000815180845260005b8181101561039557602081850181015186830182015201610379565b818111156103a7576000602083870101525b50601f01601f19169290920160200192915050565b60006060858352602081818501526103d68285018761036f565b6040858203818701528187518084528484019150848160051b850101858a0160005b8381101561044157868303601f19018552815180518a855261041c8b86018261036f565b828b0151868c01529188015194880194909452948801949250908701906001016103f8565b50909c9b505050505050505050505050565b60006020828403121561046557600080fd5b81516001600160a01b038116811461047c57600080fd5b9392505050565b60006020828403121561049557600080fd5b8151801515811461047c57600080fd5b600181811c908216806104b957607f821691505b602082108114156104da57634e487b7160e01b600052602260045260246000fd5b5091905056fea26469706673582212209c4dbddf4bbc49fe1f8f1fb00dbc4557f49c30898ac49174f6e024a84b6b6bed64736f6c63430008090033a26469706673582212205a9b25d30094885deef62213a384193970789a2c78a3c2f1ff6987cd9319b7f364736f6c63430008090033",
  "immutableReferences": {},
  "source": "// SPDX-License-Identifier: MIT\r\npragma solidity ^0.8.0;\r\nimport \"./1_Library.sol\";\r\n// import \"./2_Ownable.sol\";\r\nimport \"./4_Hospital.sol\";\r\nimport \"./7_HealthData.sol\";\r\nimport \"./8_MedicalReport.sol\";\r\nimport \"./13_PatientEHR.sol\";\r\nimport \"./12_DoctorEHR.sol\";\r\nimport \"./10_User.sol\";\r\n\r\ncontract Doctor is User {\r\n    // STATE VARIABLES\r\n    // connected smart contracts & values\r\n    address public hospital;\r\n    mapping(address => bool) patients; // true if patient grants permission\r\n    address[] patientsAddress;\r\n    address doctorEhr;\r\n\r\n\r\n    // CONSTRUCTOR\r\n    constructor(\r\n        string memory _firstName,\r\n        string memory _lastName,\r\n        string memory _id,\r\n        uint _dateOfBirth,\r\n        Library.Sex _sex\r\n    ) User(_firstName, _lastName, _id, _dateOfBirth, _sex, Library.User.Doctor) {\r\n        doctorEhr = msg.sender;\r\n    }\r\n\r\n    // MODIFIERS\r\n    modifier isPatient() {\r\n        address contractAddress = DoctorEHR(doctorEhr).patientEhr(); // ! assign after deploying EHR \r\n        require(PatientEHR(contractAddress).hasPatientRecord(tx.origin) == true, \"You are not a patient\");\r\n        _;\r\n    }\r\n\r\n    modifier permittedAccess(address _patient) {\r\n        require(patients[_patient] == true, \"You don't have access to patient's medical report\");\r\n        _;\r\n    }\r\n\r\n    // FUNCTIONS\r\n    function setHospital (address _hospital) public payable isOwner {\r\n        if(hospital != address(0)) {\r\n            // remove from old Hospital\r\n            Hospital(hospital).removeDoctor();\r\n        }\r\n\r\n        // add to Hospital\r\n        hospital = _hospital;\r\n        Hospital(hospital).addDoctor();\r\n    }\r\n\r\n    function getPatients() public view isOwner returns(address[] memory, uint) {\r\n        address[] memory _patients = new address[](patientsAddress.length);\r\n        uint count = 0;\r\n        for (uint i = 0; i < patientsAddress.length; ++i) {\r\n            if (patients[patientsAddress[i]]) {\r\n                _patients[count] = patientsAddress[i];\r\n                count++;\r\n            }\r\n        }\r\n        return (_patients, count);\r\n    }\r\n\r\n    function addPatient() public isPatient {\r\n        patients[msg.sender] = true;\r\n        patientsAddress.push(msg.sender);\r\n    }\r\n\r\n    function removePatient() public isPatient {\r\n        patients[msg.sender] = false;\r\n    }\r\n\r\n    function addMedicalReport(\r\n        address _patient,\r\n        string memory _diagnostic,\r\n        string[] memory _medicine, \r\n        uint[] memory _numDays, \r\n        uint[] memory _perDay\r\n    ) public payable isOwner permittedAccess(_patient) returns(address) {\r\n        MedicalReport _medicalReport = new MedicalReport(_patient, _diagnostic, _medicine, _numDays, _perDay);\r\n        address _medicalReportAddress = address(_medicalReport);\r\n        \r\n        Patient(_patient).addMedicalReport(_medicalReportAddress);\r\n        \r\n        return _medicalReportAddress;\r\n    }\r\n\r\n    function getPatientMedicalReports(address _patient) public view isOwner returns(address[] memory) {\r\n        address[] memory _medicalReports = Patient(_patient).getMedicalReports();\r\n        return _medicalReports;\r\n    }\r\n\r\n    function getMedicalReportDetails(address _medicalReport) public view isOwner returns(\r\n        uint,\r\n        string memory,\r\n        Library.Prescription[] memory\r\n    ) {\r\n        (uint _dateTime, string memory _diagnostic, Library.Prescription[] memory _prescriptions) = MedicalReport(_medicalReport).getMedicalReportDetails();\r\n        return (_dateTime, _diagnostic, _prescriptions);\r\n    }\r\n\r\n    function getHealthData(address _patient) public view isOwner returns(\r\n        uint, \r\n        uint, \r\n        Library.BloodType, \r\n        bool, \r\n        bool\r\n    ) {\r\n        address _healthData = Patient(_patient).healthData();\r\n        return HealthData(_healthData).getHealthData();\r\n    }\r\n\r\n    function setHealthData(\r\n        address _patient,\r\n        uint _height, \r\n        uint _weight, \r\n        Library.BloodType _bloodType, \r\n        bool _isSmoker, \r\n        bool _hasAllergy\r\n    ) public isOwner {\r\n        address _healthData = Patient(_patient).healthData();\r\n        HealthData(_healthData).setHealthData(_height, _weight, _bloodType, _isSmoker, _hasAllergy);\r\n    }\r\n}\r\n",
  "sourcePath": "D:\\Blockchain\\dapp_ehr_1\\truffle\\contracts\\5_Doctor.sol",
  "compiler": {
    "name": "solc",
    "version": "0.8.9+commit.e5eed63a.Emscripten.clang"
  },
  "schemaVersion": "3.4.3",
  "updatedAt": "2023-02-01T09:12:10.688Z",
  "devdoc": {
    "kind": "dev",
    "methods": {},
    "version": 1
  },
  "userdoc": {
    "kind": "user",
    "methods": {},
    "version": 1
  }
}