{
  "contractName": "EHR",
  "abi": [
    {
      "inputs": [],
      "stateMutability": "nonpayable",
      "type": "constructor"
    },
    {
      "inputs": [],
      "name": "doctorEhr",
      "outputs": [
        {
          "internalType": "address",
          "name": "",
          "type": "address"
        }
      ],
      "stateMutability": "view",
      "type": "function",
      "constant": true
    },
    {
      "inputs": [],
      "name": "hospitalEhr",
      "outputs": [
        {
          "internalType": "address",
          "name": "",
          "type": "address"
        }
      ],
      "stateMutability": "view",
      "type": "function",
      "constant": true
    },
    {
      "inputs": [],
      "name": "patientEhr",
      "outputs": [
        {
          "internalType": "address",
          "name": "",
          "type": "address"
        }
      ],
      "stateMutability": "view",
      "type": "function",
      "constant": true
    }
  ],
  "bytecode": "0x608060405234801561001057600080fd5b50600060405161001f90610426565b604051809103906000f08015801561003b573d6000803e3d6000fd5b509050600060405161004c90610433565b604051809103906000f080158015610068573d6000803e3d6000fd5b509050600060405161007990610440565b604051809103906000f080158015610095573d6000803e3d6000fd5b50600080546001600160a01b03199081166001600160a01b0387811691821790935560028054831687851617905560018054909216928416928317909155604051636aa2b2ed60e11b8152600481019290925291925063d54565da90602401600060405180830381600087803b15801561010e57600080fd5b505af1158015610122573d6000803e3d6000fd5b5050600254604051635221a71f60e01b81526001600160a01b0391821660048201529086169250635221a71f9150602401600060405180830381600087803b15801561016d57600080fd5b505af1158015610181573d6000803e3d6000fd5b505060005460405163736960cd60e01b81526001600160a01b039182166004820152908616925063736960cd9150602401600060405180830381600087803b1580156101cc57600080fd5b505af11580156101e0573d6000803e3d6000fd5b5050600154604051636aa2b2ed60e11b81526001600160a01b039182166004820152908516925063d54565da9150602401600060405180830381600087803b15801561022b57600080fd5b505af115801561023f573d6000803e3d6000fd5b505060005460405163736960cd60e01b81526001600160a01b039182166004820152908516925063736960cd9150602401600060405180830381600087803b15801561028a57600080fd5b505af115801561029e573d6000803e3d6000fd5b5050600254604051635221a71f60e01b81526001600160a01b0391821660048201529085169250635221a71f9150602401600060405180830381600087803b1580156102e957600080fd5b505af11580156102fd573d6000803e3d6000fd5b505060005460405163736960cd60e01b81526001600160a01b039182166004820152908416925063736960cd9150602401600060405180830381600087803b15801561034857600080fd5b505af115801561035c573d6000803e3d6000fd5b5050600254604051635221a71f60e01b81526001600160a01b0391821660048201529084169250635221a71f9150602401600060405180830381600087803b1580156103a757600080fd5b505af11580156103bb573d6000803e3d6000fd5b5050600154604051636aa2b2ed60e11b81526001600160a01b039182166004820152908416925063d54565da9150602401600060405180830381600087803b15801561040657600080fd5b505af115801561041a573d6000803e3d6000fd5b5050505050505061044d565b6130828061052483390190565b6125d1806135a683390190565b6117d280615b7783390190565b60c98061045b6000396000f3fe6080604052348015600f57600080fd5b5060043610603c5760003560e01c80638d95f0641460415780639de62ef714606f578063a3e995cf146081575b600080fd5b6000546053906001600160a01b031681565b6040516001600160a01b03909116815260200160405180910390f35b6002546053906001600160a01b031681565b6001546053906001600160a01b03168156fea26469706673582212204abe0a868b80934db3ea075d04f47405bca64d5c57e60a591a6452115c1e28bb64736f6c63430008090033608060405234801561001057600080fd5b50613062806100206000396000f3fe608060405260043610620000915760003560e01c80638d95f06411620000605780638d95f06414620001885780639840e1e514620001aa5780639de62ef714620001ef578063a3e995cf1462000211578063d54565da146200023357600080fd5b8063194578d014620000965780634a931a0c14620000ed5780635221a71f1462000104578063736960cd1462000147575b600080fd5b348015620000a357600080fd5b50620000d0620000b536600462000372565b6001602052600090815260409020546001600160a01b031681565b6040516001600160a01b0390911681526020015b60405180910390f35b620000d0620000fe3660046200044f565b62000274565b3480156200011157600080fd5b50620001456200012336600462000372565b600280546001600160a01b0319166001600160a01b0392909216919091179055565b005b3480156200015457600080fd5b50620001456200016636600462000372565b600480546001600160a01b0319166001600160a01b0392909216919091179055565b3480156200019557600080fd5b50600454620000d0906001600160a01b031681565b348015620001b757600080fd5b50620001de620001c936600462000372565b60006020819052908152604090205460ff1681565b6040519015158152602001620000e4565b348015620001fc57600080fd5b50600254620000d0906001600160a01b031681565b3480156200021e57600080fd5b50600354620000d0906001600160a01b031681565b3480156200024057600080fd5b50620001456200025236600462000372565b600380546001600160a01b0319166001600160a01b0392909216919091179055565b3260009081526020819052604081205460ff1615620002d95760405162461bcd60e51b815260206004820181905260248201527f596f7520616c72656164792068617665206120646f63746f72207265636f7264604482015260640160405180910390fd5b60008686868686604051620002ee9062000364565b620002fe95949392919062000555565b604051809103906000f0801580156200031b573d6000803e3d6000fd5b50326000908152602081815260408083208054600160ff199091168117909155909152902080546001600160a01b0319166001600160a01b038316179055979650505050505050565b612a6080620005cd83390190565b6000602082840312156200038557600080fd5b81356001600160a01b03811681146200039d57600080fd5b9392505050565b634e487b7160e01b600052604160045260246000fd5b600082601f830112620003cc57600080fd5b813567ffffffffffffffff80821115620003ea57620003ea620003a4565b604051601f8301601f19908116603f01168101908282118183101715620004155762000415620003a4565b816040528381528660208588010111156200042f57600080fd5b836020870160208301376000602085830101528094505050505092915050565b600080600080600060a086880312156200046857600080fd5b853567ffffffffffffffff808211156200048157600080fd5b6200048f89838a01620003ba565b96506020880135915080821115620004a657600080fd5b620004b489838a01620003ba565b95506040880135915080821115620004cb57600080fd5b50620004da88828901620003ba565b93505060608601359150608086013560028110620004f757600080fd5b809150509295509295909350565b6000815180845260005b818110156200052d576020818501810151868301820152016200050f565b8181111562000540576000602083870101525b50601f01601f19169290920160200192915050565b60a0815260006200056a60a083018862000505565b82810360208401526200057e818862000505565b9050828103604084015262000594818762000505565b91505083606083015260028310620005bc57634e487b7160e01b600052602160045260246000fd5b826080830152969550505050505056fe60806040523480156200001157600080fd5b5060405162002a6038038062002a6083398101604081905262000034916200027f565b600080546001600160a01b031916321790558451859085908590859085906001906200006790829060208901906200010c565b5084516200007d9060029060208801906200010c565b508351620000939060039060208701906200010c565b5060048390556005805483919060ff191660018381811115620000ba57620000ba62000334565b02179055506005805482919061ff001916610100836002811115620000e357620000e362000334565b021790555050600880546001600160a01b03191633179055506200038798505050505050505050565b8280546200011a906200034a565b90600052602060002090601f0160209004810192826200013e576000855562000189565b82601f106200015957805160ff191683800117855562000189565b8280016001018555821562000189579182015b82811115620001895782518255916020019190600101906200016c565b50620001979291506200019b565b5090565b5b808211156200019757600081556001016200019c565b634e487b7160e01b600052604160045260246000fd5b600082601f830112620001da57600080fd5b81516001600160401b0380821115620001f757620001f7620001b2565b604051601f8301601f19908116603f01168101908282118183101715620002225762000222620001b2565b816040528381526020925086838588010111156200023f57600080fd5b600091505b8382101562000263578582018301518183018401529082019062000244565b83821115620002755760008385830101525b9695505050505050565b600080600080600060a086880312156200029857600080fd5b85516001600160401b0380821115620002b057600080fd5b620002be89838a01620001c8565b96506020880151915080821115620002d557600080fd5b620002e389838a01620001c8565b95506040880151915080821115620002fa57600080fd5b506200030988828901620001c8565b935050606086015191506080860151600281106200032657600080fd5b809150509295509295909350565b634e487b7160e01b600052602160045260246000fd5b600181811c908216806200035f57607f821691505b602082108114156200038157634e487b7160e01b600052602260045260246000fd5b50919050565b6126c980620003976000396000f3fe608060405260043610620000b55760003560e01c8063aa2fedde116200006c578063aa2fedde14620001bb578063b9b89f5914620001fc578063dec1c9041462000232578063e40252031462000249578063f59f16031462000260578063fcc8c203146200028b57600080fd5b806312ad1c3714620000ba57806357a5369714620000eb5780636ceb79cd146200011f5780638908e67f14620001575780639be1d2e4146200017e578063a505612b14620001a3575b600080fd5b348015620000c757600080fd5b50620000d2620002a3565b604051620000e29291906200111a565b60405180910390f35b348015620000f857600080fd5b50620001106200010a36600462001157565b62000411565b604051620000e2919062001177565b3480156200012c57600080fd5b50620001446200013e36600462001157565b620004c3565b604051620000e2959493929190620011a2565b3480156200016457600080fd5b506200017c62000176366004620012de565b620005fa565b005b3480156200018b57600080fd5b506200017c6200019d366004620013b1565b6200069b565b348015620001b057600080fd5b506200017c620007b5565b348015620001c857600080fd5b50600554620001e3906201000090046001600160a01b031681565b6040516001600160a01b039091168152602001620000e2565b3480156200020957600080fd5b50620002216200021b36600462001157565b6200095e565b604051620000e2939291906200148b565b6200017c6200024336600462001157565b62000a1f565b620001e36200025a366004620015bc565b62000b63565b3480156200026d57600080fd5b506200027862000cce565b604051620000e295949392919062001705565b3480156200029857600080fd5b506200017c62000ebc565b60008054606091906001600160a01b03163214620002de5760405162461bcd60e51b8152600401620002d59062001770565b60405180910390fd5b60075460009067ffffffffffffffff811115620002ff57620002ff620011e1565b60405190808252806020026020018201604052801562000329578160200160208202803683370190505b5090506000805b600754811015620004075760066000600783815481106200035557620003556200179f565b60009182526020808320909101546001600160a01b0316835282019290925260400190205460ff1615620003f457600781815481106200039957620003996200179f565b9060005260206000200160009054906101000a90046001600160a01b0316838381518110620003cc57620003cc6200179f565b6001600160a01b039092166020928302919091019091015281620003f081620017b5565b9250505b620003ff81620017b5565b905062000330565b5090925090509091565b6000546060906001600160a01b03163214620004415760405162461bcd60e51b8152600401620002d59062001770565b6000826001600160a01b031663c682f5d46040518163ffffffff1660e01b815260040160006040518083038186803b1580156200047d57600080fd5b505afa15801562000492573d6000803e3d6000fd5b505050506040513d6000823e601f3d908101601f19168201604052620004bc9190810190620017df565b9392505050565b6000805481908190819081906001600160a01b03163214620004f95760405162461bcd60e51b8152600401620002d59062001770565b6000866001600160a01b031663d9ef76c26040518163ffffffff1660e01b815260040160206040518083038186803b1580156200053557600080fd5b505afa1580156200054a573d6000803e3d6000fd5b505050506040513d601f19601f8201168201806040525081019062000570919062001884565b9050806001600160a01b031663919932d26040518163ffffffff1660e01b815260040160a06040518083038186803b158015620005ac57600080fd5b505afa158015620005c1573d6000803e3d6000fd5b505050506040513d601f19601f82011682018060405250810190620005e79190620018a4565b939b929a50909850965090945092505050565b6000546001600160a01b03163214620006275760405162461bcd60e51b8152600401620002d59062001770565b84516200063c90600190602088019062001020565b5083516200065290600290602087019062001020565b5082516200066890600390602086019062001020565b5060048290556005805482919060ff1916600183818111156200068f576200068f6200118c565b02179055505050505050565b6000546001600160a01b03163214620006c85760405162461bcd60e51b8152600401620002d59062001770565b6000866001600160a01b031663d9ef76c26040518163ffffffff1660e01b815260040160206040518083038186803b1580156200070457600080fd5b505afa15801562000719573d6000803e3d6000fd5b505050506040513d601f19601f820116820180604052508101906200073f919062001884565b604051633b942b6960e21b81529091506001600160a01b0382169063ee50ada490620007789089908990899089908990600401620011a2565b600060405180830381600087803b1580156200079357600080fd5b505af1158015620007a8573d6000803e3d6000fd5b5050505050505050505050565b60085460408051639de62ef760e01b815290516000926001600160a01b031691639de62ef7916004808301926020929190829003018186803b158015620007fb57600080fd5b505afa15801562000810573d6000803e3d6000fd5b505050506040513d601f19601f8201168201806040525081019062000836919062001884565b6040516314dfd8a160e01b81523260048201529091506001600160a01b038216906314dfd8a19060240160206040518083038186803b1580156200087957600080fd5b505afa1580156200088e573d6000803e3d6000fd5b505050506040513d601f19601f82011682018060405250810190620008b49190620018fe565b1515600114620008ff5760405162461bcd60e51b8152602060048201526015602482015274165bdd48185c99481b9bdd0818481c185d1a595b9d605a1b6044820152606401620002d5565b50336000818152600660205260408120805460ff191660019081179091556007805491820181559091527fa66cc928b5edb82af9bd49922954155ab7b0942694bea4ce44661d9a8736c6880180546001600160a01b0319169091179055565b6000805460609081906001600160a01b03163214620009915760405162461bcd60e51b8152600401620002d59062001770565b6000806000866001600160a01b031663cc797fd56040518163ffffffff1660e01b815260040160006040518083038186803b158015620009d057600080fd5b505afa158015620009e5573d6000803e3d6000fd5b505050506040513d6000823e601f3d908101601f1916820160405262000a0f919081019062001972565b9199909850909650945050505050565b6000546001600160a01b0316321462000a4c5760405162461bcd60e51b8152600401620002d59062001770565b6005546201000090046001600160a01b03161562000acf57600560029054906101000a90046001600160a01b03166001600160a01b031663c48722386040518163ffffffff1660e01b8152600401600060405180830381600087803b15801562000ab557600080fd5b505af115801562000aca573d6000803e3d6000fd5b505050505b80600560026101000a8154816001600160a01b0302191690836001600160a01b03160217905550600560029054906101000a90046001600160a01b03166001600160a01b03166375a3f4e36040518163ffffffff1660e01b8152600401600060405180830381600087803b15801562000b4757600080fd5b505af115801562000b5c573d6000803e3d6000fd5b5050505050565b600080546001600160a01b0316321462000b915760405162461bcd60e51b8152600401620002d59062001770565b6001600160a01b038616600090815260066020526040902054869060ff16151560011462000c1c5760405162461bcd60e51b815260206004820152603160248201527f596f7520646f6e277420686176652061636365737320746f2070617469656e7460448201527009dcc81b59591a58d85b081c995c1bdc9d607a1b6064820152608401620002d5565b6000878787878760405162000c3190620010af565b62000c4195949392919062001ae2565b604051809103906000f08015801562000c5e573d6000803e3d6000fd5b50604051631de7604160e31b81526001600160a01b03808316600483015291925082918a169063ef3b020890602401600060405180830381600087803b15801562000ca857600080fd5b505af115801562000cbd573d6000803e3d6000fd5b50929b9a5050505050505050505050565b6060806060600080600160026003600454600560009054906101000a900460ff1684805462000cfd9062001b97565b80601f016020809104026020016040519081016040528092919081815260200182805462000d2b9062001b97565b801562000d7c5780601f1062000d505761010080835404028352916020019162000d7c565b820191906000526020600020905b81548152906001019060200180831162000d5e57829003601f168201915b5050505050945083805462000d919062001b97565b80601f016020809104026020016040519081016040528092919081815260200182805462000dbf9062001b97565b801562000e105780601f1062000de45761010080835404028352916020019162000e10565b820191906000526020600020905b81548152906001019060200180831162000df257829003601f168201915b5050505050935082805462000e259062001b97565b80601f016020809104026020016040519081016040528092919081815260200182805462000e539062001b97565b801562000ea45780601f1062000e785761010080835404028352916020019162000ea4565b820191906000526020600020905b81548152906001019060200180831162000e8657829003601f168201915b50505050509250945094509450945094509091929394565b60085460408051639de62ef760e01b815290516000926001600160a01b031691639de62ef7916004808301926020929190829003018186803b15801562000f0257600080fd5b505afa15801562000f17573d6000803e3d6000fd5b505050506040513d601f19601f8201168201806040525081019062000f3d919062001884565b6040516314dfd8a160e01b81523260048201529091506001600160a01b038216906314dfd8a19060240160206040518083038186803b15801562000f8057600080fd5b505afa15801562000f95573d6000803e3d6000fd5b505050506040513d601f19601f8201168201806040525081019062000fbb9190620018fe565b1515600114620010065760405162461bcd60e51b8152602060048201526015602482015274165bdd48185c99481b9bdd0818481c185d1a595b9d605a1b6044820152606401620002d5565b50336000908152600660205260409020805460ff19169055565b8280546200102e9062001b97565b90600052602060002090601f0160209004810192826200105257600085556200109d565b82601f106200106d57805160ff19168380011785556200109d565b828001600101855582156200109d579182015b828111156200109d57825182559160200191906001019062001080565b50620010ab929150620010bd565b5090565b610abf8062001bd583390190565b5b80821115620010ab5760008155600101620010be565b600081518084526020808501945080840160005b838110156200110f5781516001600160a01b031687529582019590820190600101620010e8565b509495945050505050565b6040815260006200112f6040830185620010d4565b90508260208301529392505050565b6001600160a01b03811681146200115457600080fd5b50565b6000602082840312156200116a57600080fd5b8135620004bc816200113e565b602081526000620004bc6020830184620010d4565b634e487b7160e01b600052602160045260246000fd5b8581526020810185905260a0810160048510620011c357620011c36200118c565b60408201949094529115156060830152151560809091015292915050565b634e487b7160e01b600052604160045260246000fd5b6040516060810167ffffffffffffffff811182821017156200121d576200121d620011e1565b60405290565b604051601f8201601f1916810167ffffffffffffffff811182821017156200124f576200124f620011e1565b604052919050565b600067ffffffffffffffff821115620012745762001274620011e1565b50601f01601f191660200190565b600082601f8301126200129457600080fd5b8135620012ab620012a58262001257565b62001223565b818152846020838601011115620012c157600080fd5b816020850160208301376000918101602001919091529392505050565b600080600080600060a08688031215620012f757600080fd5b853567ffffffffffffffff808211156200131057600080fd5b6200131e89838a0162001282565b965060208801359150808211156200133557600080fd5b6200134389838a0162001282565b955060408801359150808211156200135a57600080fd5b50620013698882890162001282565b935050606086013591506080860135600281106200138657600080fd5b809150509295509295909350565b600481106200115457600080fd5b80151581146200115457600080fd5b60008060008060008060c08789031215620013cb57600080fd5b8635620013d8816200113e565b955060208701359450604087013593506060870135620013f88162001394565b925060808701356200140a81620013a2565b915060a08701356200141c81620013a2565b809150509295509295509295565b60005b83811015620014475781810151838201526020016200142d565b8381111562001457576000848401525b50505050565b60008151808452620014778160208601602086016200142a565b601f01601f19169290920160200192915050565b6000606085835260208181850152620014a7828501876200145d565b6040858203818701528187518084528484019150848160051b850101858a0160005b838110156200151657868303601f19018552815180518a8552620014f08b8601826200145d565b828b0151868c0152918801519488019490945294880194925090870190600101620014c9565b50909c9b505050505050505050505050565b600067ffffffffffffffff821115620015455762001545620011e1565b5060051b60200190565b600082601f8301126200156157600080fd5b8135602062001574620012a58362001528565b82815260059290921b840181019181810190868411156200159457600080fd5b8286015b84811015620015b1578035835291830191830162001598565b509695505050505050565b600080600080600060a08688031215620015d557600080fd5b8535620015e2816200113e565b945060208681013567ffffffffffffffff808211156200160157600080fd5b6200160f8a838b0162001282565b965060408901359150808211156200162657600080fd5b818901915089601f8301126200163b57600080fd5b81356200164c620012a58262001528565b81815260059190911b8301840190848101908c8311156200166c57600080fd5b8585015b83811015620016a9578035858111156200168a5760008081fd5b6200169a8f89838a010162001282565b84525091860191860162001670565b50975050506060890135925080831115620016c357600080fd5b620016d18a848b016200154f565b94506080890135925080831115620016e857600080fd5b5050620016f8888289016200154f565b9150509295509295909350565b60a0815260006200171a60a08301886200145d565b82810360208401526200172e81886200145d565b905082810360408401526200174481876200145d565b915050836060830152600283106200176057620017606200118c565b8260808301529695505050505050565b6020808252601590820152742cb7ba9030b932903737ba103a34329037bbb732b960591b604082015260600190565b634e487b7160e01b600052603260045260246000fd5b6000600019821415620017d857634e487b7160e01b600052601160045260246000fd5b5060010190565b60006020808385031215620017f357600080fd5b825167ffffffffffffffff8111156200180b57600080fd5b8301601f810185136200181d57600080fd5b80516200182e620012a58262001528565b81815260059190911b820183019083810190878311156200184e57600080fd5b928401925b828410156200187957835162001869816200113e565b8252928401929084019062001853565b979650505050505050565b6000602082840312156200189757600080fd5b8151620004bc816200113e565b600080600080600060a08688031215620018bd57600080fd5b85519450602086015193506040860151620018d88162001394565b6060870151909350620018eb81620013a2565b60808701519092506200138681620013a2565b6000602082840312156200191157600080fd5b8151620004bc81620013a2565b600082601f8301126200193057600080fd5b815162001941620012a58262001257565b8181528460208386010111156200195757600080fd5b6200196a8260208301602087016200142a565b949350505050565b6000806000606084860312156200198857600080fd5b8351925060208085015167ffffffffffffffff80821115620019a957600080fd5b620019b7888389016200191e565b94506040870151915080821115620019ce57600080fd5b818701915087601f830112620019e357600080fd5b8151620019f4620012a58262001528565b81815260059190911b8301840190848101908a83111562001a1457600080fd5b8585015b8381101562001a9f5780518581111562001a325760008081fd5b86016060818e03601f1901121562001a4a5760008081fd5b62001a54620011f7565b888201518781111562001a675760008081fd5b62001a778f8b838601016200191e565b8252506040828101518a83015260609092015191810191909152835291860191860162001a18565b508096505050505050509250925092565b600081518084526020808501945080840160005b838110156200110f5781518752958201959082019060010162001ac4565b6001600160a01b038616815260a0602080830182905260009162001b09908401886200145d565b8381036040850152865180825282820190600581901b83018401848a0160005b8381101562001b5b57601f1986840301855262001b488383516200145d565b9487019492509086019060010162001b29565b5050868103606088015262001b71818a62001ab0565b945050505050828103608084015262001b8b818562001ab0565b98975050505050505050565b600181811c9082168062001bac57607f821691505b6020821081141562001bce57634e487b7160e01b600052602260045260246000fd5b5091905056fe60806040523480156200001157600080fd5b5060405162000abf38038062000abf833981016040819052620000349162000442565b60008054336001600160a01b031991821617909155600180549091166001600160a01b038716179055426002558351620000769060039060208701906200019c565b50815183511480156200008a575080518351145b15620001915760005b83518110156200018f5760006040518060600160405280868481518110620000bf57620000bf6200051c565b60200260200101518152602001858481518110620000e157620000e16200051c565b602002602001015181526020018484815181106200010357620001036200051c565b6020908102919091018101519091526004805460018101825560009190915282518051939450849360039092027f8a35acfbc15ff81a39ae7d344fd709f28e8600b4aa8c65c6b64bfe7fe36bd19b019262000164928492909101906200019c565b506020820151600182015560409091015160029091015550620001878162000532565b905062000093565b505b505050505062000599565b828054620001aa906200055c565b90600052602060002090601f016020900481019282620001ce576000855562000219565b82601f10620001e957805160ff191683800117855562000219565b8280016001018555821562000219579182015b8281111562000219578251825591602001919060010190620001fc565b50620002279291506200022b565b5090565b5b808211156200022757600081556001016200022c565b634e487b7160e01b600052604160045260246000fd5b604051601f8201601f191681016001600160401b038111828210171562000283576200028362000242565b604052919050565b600082601f8301126200029d57600080fd5b81516001600160401b03811115620002b957620002b962000242565b6020620002cf601f8301601f1916820162000258565b8281528582848701011115620002e457600080fd5b60005b8381101562000304578581018301518282018401528201620002e7565b83811115620003165760008385840101525b5095945050505050565b60006001600160401b038211156200033c576200033c62000242565b5060051b60200190565b600082601f8301126200035857600080fd5b81516020620003716200036b8362000320565b62000258565b82815260059290921b840181019181810190868411156200039157600080fd5b8286015b84811015620003d55780516001600160401b03811115620003b65760008081fd5b620003c68986838b01016200028b565b84525091830191830162000395565b509695505050505050565b600082601f830112620003f257600080fd5b81516020620004056200036b8362000320565b82815260059290921b840181019181810190868411156200042557600080fd5b8286015b84811015620003d5578051835291830191830162000429565b600080600080600060a086880312156200045b57600080fd5b85516001600160a01b03811681146200047357600080fd5b60208701519095506001600160401b03808211156200049157600080fd5b6200049f89838a016200028b565b95506040880151915080821115620004b657600080fd5b620004c489838a0162000346565b94506060880151915080821115620004db57600080fd5b620004e989838a01620003e0565b935060808801519150808211156200050057600080fd5b506200050f88828901620003e0565b9150509295509295909350565b634e487b7160e01b600052603260045260246000fd5b60006000198214156200055557634e487b7160e01b600052601160045260246000fd5b5060010190565b600181811c908216806200057157607f821691505b602082108114156200059357634e487b7160e01b600052602260045260246000fd5b50919050565b61051680620005a96000396000f3fe608060405234801561001057600080fd5b506004361061002b5760003560e01c8063cc797fd514610030575b600080fd5b610038610050565b604051610047939291906103bc565b60405180910390f35b60006060806000600160009054906101000a90046001600160a01b03166001600160a01b031663ab8c71c06040518163ffffffff1660e01b815260040160206040518083038186803b1580156100a557600080fd5b505afa1580156100b9573d6000803e3d6000fd5b505050506040513d601f19601f820116820180604052508101906100dd9190610453565b604051623d104160e31b81523360048201529091506001600160a01b038216906301e882089060240160206040518083038186803b15801561011e57600080fd5b505afa158015610132573d6000803e3d6000fd5b505050506040513d601f19601f820116820180604052508101906101569190610483565b15156001146101d15760405162461bcd60e51b815260206004820152603760248201527f596f7520646f6e27742068617665207065726d697373696f6e20746f2061636360448201527f6573732074686973206d65646963616c207265706f7274000000000000000000606482015260840160405180910390fd5b600254600360048180546101e4906104a5565b80601f0160208091040260200160405190810160405280929190818152602001828054610210906104a5565b801561025d5780601f106102325761010080835404028352916020019161025d565b820191906000526020600020905b81548152906001019060200180831161024057829003601f168201915b5050505050915080805480602002602001604051908101604052809291908181526020016000905b8282101561035d57838290600052602060002090600302016040518060600160405290816000820180546102b8906104a5565b80601f01602080910402602001604051908101604052809291908181526020018280546102e4906104a5565b80156103315780601f1061030657610100808354040283529160200191610331565b820191906000526020600020905b81548152906001019060200180831161031457829003601f168201915b505050505081526020016001820154815260200160028201548152505081526020019060010190610285565b50505050905093509350935050909192565b6000815180845260005b8181101561039557602081850181015186830182015201610379565b818111156103a7576000602083870101525b50601f01601f19169290920160200192915050565b60006060858352602081818501526103d68285018761036f565b6040858203818701528187518084528484019150848160051b850101858a0160005b8381101561044157868303601f19018552815180518a855261041c8b86018261036f565b828b0151868c01529188015194880194909452948801949250908701906001016103f8565b50909c9b505050505050505050505050565b60006020828403121561046557600080fd5b81516001600160a01b038116811461047c57600080fd5b9392505050565b60006020828403121561049557600080fd5b8151801515811461047c57600080fd5b600181811c908216806104b957607f821691505b602082108114156104da57634e487b7160e01b600052602260045260246000fd5b5091905056fea26469706673582212209c4dbddf4bbc49fe1f8f1fb00dbc4557f49c30898ac49174f6e024a84b6b6bed64736f6c63430008090033a26469706673582212205a9b25d30094885deef62213a384193970789a2c78a3c2f1ff6987cd9319b7f364736f6c63430008090033a26469706673582212205153a7e19b3c65b8931224b7bcf0a289101d130d8e15b25e9f8ae30c360e357d64736f6c63430008090033608060405234801561001057600080fd5b506125b1806100206000396000f3fe608060405260043610620000915760003560e01c80638d95f06411620000605780638d95f06414620001b65780639de62ef714620001d8578063a3e995cf14620001fa578063b416a2c6146200021c578063d54565da146200023357600080fd5b806314dfd8a114620000965780633bfb78a414620000df5780635221a71f1462000132578063736960cd1462000175575b600080fd5b348015620000a357600080fd5b50620000ca620000b53660046200037c565b60006020819052908152604090205460ff1681565b60405190151581526020015b60405180910390f35b348015620000ec57600080fd5b5062000119620000fe3660046200037c565b6001602052600090815260409020546001600160a01b031681565b6040516001600160a01b039091168152602001620000d6565b3480156200013f57600080fd5b5062000173620001513660046200037c565b600280546001600160a01b0319166001600160a01b0392909216919091179055565b005b3480156200018257600080fd5b5062000173620001943660046200037c565b600480546001600160a01b0319166001600160a01b0392909216919091179055565b348015620001c357600080fd5b5060045462000119906001600160a01b031681565b348015620001e557600080fd5b5060025462000119906001600160a01b031681565b3480156200020757600080fd5b5060035462000119906001600160a01b031681565b620001196200022d36600462000459565b62000274565b3480156200024057600080fd5b5062000173620002523660046200037c565b600380546001600160a01b0319166001600160a01b0392909216919091179055565b3260009081526020819052604081205460ff1615620002e35760405162461bcd60e51b815260206004820152602160248201527f596f7520616c7265616479206861766520612070617469656e74207265636f726044820152601960fa1b606482015260840160405180910390fd5b60008686868686604051620002f8906200036e565b620003089594939291906200055f565b604051809103906000f08015801562000325573d6000803e3d6000fd5b50326000908152602081815260408083208054600160ff199091168117909155909152902080546001600160a01b0319166001600160a01b038316179055979650505050505050565b611fa580620005d783390190565b6000602082840312156200038f57600080fd5b81356001600160a01b0381168114620003a757600080fd5b9392505050565b634e487b7160e01b600052604160045260246000fd5b600082601f830112620003d657600080fd5b813567ffffffffffffffff80821115620003f457620003f4620003ae565b604051601f8301601f19908116603f011681019082821181831017156200041f576200041f620003ae565b816040528381528660208588010111156200043957600080fd5b836020870160208301376000602085830101528094505050505092915050565b600080600080600060a086880312156200047257600080fd5b853567ffffffffffffffff808211156200048b57600080fd5b6200049989838a01620003c4565b96506020880135915080821115620004b057600080fd5b620004be89838a01620003c4565b95506040880135915080821115620004d557600080fd5b50620004e488828901620003c4565b935050606086013591506080860135600281106200050157600080fd5b809150509295509295909350565b6000815180845260005b81811015620005375760208185018101518683018201520162000519565b818111156200054a576000602083870101525b50601f01601f19169290920160200192915050565b60a0815260006200057460a08301886200050f565b82810360208401526200058881886200050f565b905082810360408401526200059e81876200050f565b91505083606083015260028310620005c657634e487b7160e01b600052602160045260246000fd5b826080830152969550505050505056fe60806040523480156200001157600080fd5b5060405162001fa538038062001fa5833981016040819052620000349162000335565b600080546001600160a01b031916321781558551869186918691869186919062000066906001906020890190620001a6565b5084516200007c906002906020880190620001a6565b50835162000092906003906020870190620001a6565b5060048390556005805483919060ff191660018381811115620000b957620000b9620003ea565b02179055506005805482919061ff001916610100836002811115620000e257620000e2620003ea565b02179055505050505050506000604051620000fd9062000235565b604051809103906000f0801580156200011a573d6000803e3d6000fd5b506005805462010000600160b01b031916620100006001600160a01b03841602179055604051909150600090620001519062000243565b604051809103906000f0801580156200016e573d6000803e3d6000fd5b50600780546001600160a01b039092166001600160a01b03199283161790556008805490911633179055506200043d95505050505050565b828054620001b49062000400565b90600052602060002090601f016020900481019282620001d8576000855562000223565b82601f10620001f357805160ff191683800117855562000223565b8280016001018555821562000223579182015b828111156200022357825182559160200191906001019062000206565b506200023192915062000251565b5090565b61056080620015fb83390190565b61044a8062001b5b83390190565b5b8082111562000231576000815560010162000252565b634e487b7160e01b600052604160045260246000fd5b600082601f8301126200029057600080fd5b81516001600160401b0380821115620002ad57620002ad62000268565b604051601f8301601f19908116603f01168101908282118183101715620002d857620002d862000268565b81604052838152602092508683858801011115620002f557600080fd5b600091505b83821015620003195785820183015181830184015290820190620002fa565b838211156200032b5760008385830101525b9695505050505050565b600080600080600060a086880312156200034e57600080fd5b85516001600160401b03808211156200036657600080fd5b6200037489838a016200027e565b965060208801519150808211156200038b57600080fd5b6200039989838a016200027e565b95506040880151915080821115620003b057600080fd5b50620003bf888289016200027e565b93505060608601519150608086015160028110620003dc57600080fd5b809150509295509295909350565b634e487b7160e01b600052602160045260246000fd5b600181811c908216806200041557607f821691505b602082108114156200043757634e487b7160e01b600052602260045260246000fd5b50919050565b6111ae806200044d6000396000f3fe6080604052600436106100915760003560e01c8063b9b89f5911610059578063b9b89f5914610145578063c682f5d414610174578063d9ef76c214610196578063ef3b0208146101bc578063f59f1603146101cf57600080fd5b80634780468f146100965780638908e67f146100ab578063919932d2146100cb57806398fc90e9146100fa578063ab8c71c01461010d575b600080fd5b6100a96100a4366004610b28565b6101f5565b005b3480156100b757600080fd5b506100a96100c6366004610c3a565b6102dd565b3480156100d757600080fd5b506100e0610372565b6040516100f1959493929190610cfb565b60405180910390f35b6100a9610108366004610b28565b61043c565b34801561011957600080fd5b5060075461012d906001600160a01b031681565b6040516001600160a01b0390911681526020016100f1565b34801561015157600080fd5b50610165610160366004610b28565b610500565b6040516100f193929190610d93565b34801561018057600080fd5b506101896105ba565b6040516100f19190610e2a565b3480156101a257600080fd5b5060055461012d906201000090046001600160a01b031681565b6100a96101ca366004610b28565b61061c565b3480156101db57600080fd5b506101e46108a1565b6040516100f1959493929190610e77565b6000546001600160a01b031632146102285760405162461bcd60e51b815260040161021f90610ed9565b60405180910390fd5b6007546040516305b1c64f60e31b81526001600160a01b03838116600483015290911690632d8e327890602401600060405180830381600087803b15801561026f57600080fd5b505af1158015610283573d6000803e3d6000fd5b50505050806001600160a01b031663a505612b6040518163ffffffff1660e01b8152600401600060405180830381600087803b1580156102c257600080fd5b505af11580156102d6573d6000803e3d6000fd5b5050505050565b6000546001600160a01b031632146103075760405162461bcd60e51b815260040161021f90610ed9565b845161031a906001906020880190610a77565b50835161032e906002906020870190610a77565b508251610342906003906020860190610a77565b5060048290556005805482919060ff19166001838181111561036657610366610ce5565b02179055505050505050565b6000805481908190819081906001600160a01b031632146103a55760405162461bcd60e51b815260040161021f90610ed9565b600560029054906101000a90046001600160a01b03166001600160a01b031663919932d26040518163ffffffff1660e01b815260040160a06040518083038186803b1580156103f357600080fd5b505afa158015610407573d6000803e3d6000fd5b505050506040513d601f19601f8201168201806040525081019061042b9190610f1d565b945094509450945094509091929394565b6000546001600160a01b031632146104665760405162461bcd60e51b815260040161021f90610ed9565b60075460405163e074bb4760e01b81526001600160a01b0383811660048301529091169063e074bb4790602401600060405180830381600087803b1580156104ad57600080fd5b505af11580156104c1573d6000803e3d6000fd5b50505050806001600160a01b031663fcc8c2036040518163ffffffff1660e01b8152600401600060405180830381600087803b1580156102c257600080fd5b6000805460609081906001600160a01b031632146105305760405162461bcd60e51b815260040161021f90610ed9565b6000806000866001600160a01b031663cc797fd56040518163ffffffff1660e01b815260040160006040518083038186803b15801561056e57600080fd5b505afa158015610582573d6000803e3d6000fd5b505050506040513d6000823e601f3d908101601f191682016040526105aa9190810190610fc7565b9199909850909650945050505050565b6060600680548060200260200160405190810160405280929190818152602001828054801561061257602002820191906000526020600020905b81546001600160a01b031681526001909101906020018083116105f4575b5050505050905090565b600754604051623d104160e31b81523360048201526001600160a01b03909116906301e882089060240160206040518083038186803b15801561065e57600080fd5b505afa158015610672573d6000803e3d6000fd5b505050506040513d601f19601f820116820180604052508101906106969190611105565b151560011461070f576040805162461bcd60e51b81526020600482015260248101919091527f596f7520646f6e27742068617665207065726d697373696f6e20746f2061636360448201527f657373206865616c746820646174612026206d65646963616c207265706f7274606482015260840161021f565b600854604080516323657c1960e21b815290516000926001600160a01b031691638d95f064916004808301926020929190829003018186803b15801561075457600080fd5b505afa158015610768573d6000803e3d6000fd5b505050506040513d601f19601f8201168201806040525081019061078c9190611120565b604051639840e1e560e01b81523260048201529091506001600160a01b03821690639840e1e59060240160206040518083038186803b1580156107ce57600080fd5b505afa1580156107e2573d6000803e3d6000fd5b505050506040513d601f19601f820116820180604052508101906108069190611105565b151560011461084e5760405162461bcd60e51b81526020600482015260146024820152732cb7ba9030b932903737ba1030903237b1ba37b960611b604482015260640161021f565b50600680546001810182556000919091527ff652222313e28459528d920b65115c16c04f3efc82aaedc97be59f3f377c0d3f0180546001600160a01b0319166001600160a01b0392909216919091179055565b6060806060600080600160026003600454600560009054906101000a900460ff168480546108ce9061113d565b80601f01602080910402602001604051908101604052809291908181526020018280546108fa9061113d565b80156109475780601f1061091c57610100808354040283529160200191610947565b820191906000526020600020905b81548152906001019060200180831161092a57829003601f168201915b5050505050945083805461095a9061113d565b80601f01602080910402602001604051908101604052809291908181526020018280546109869061113d565b80156109d35780601f106109a8576101008083540402835291602001916109d3565b820191906000526020600020905b8154815290600101906020018083116109b657829003601f168201915b505050505093508280546109e69061113d565b80601f0160208091040260200160405190810160405280929190818152602001828054610a129061113d565b8015610a5f5780601f10610a3457610100808354040283529160200191610a5f565b820191906000526020600020905b815481529060010190602001808311610a4257829003601f168201915b50505050509250945094509450945094509091929394565b828054610a839061113d565b90600052602060002090601f016020900481019282610aa55760008555610aeb565b82601f10610abe57805160ff1916838001178555610aeb565b82800160010185558215610aeb579182015b82811115610aeb578251825591602001919060010190610ad0565b50610af7929150610afb565b5090565b5b80821115610af75760008155600101610afc565b6001600160a01b0381168114610b2557600080fd5b50565b600060208284031215610b3a57600080fd5b8135610b4581610b10565b9392505050565b634e487b7160e01b600052604160045260246000fd5b6040516060810167ffffffffffffffff81118282101715610b8557610b85610b4c565b60405290565b604051601f8201601f1916810167ffffffffffffffff81118282101715610bb457610bb4610b4c565b604052919050565b600067ffffffffffffffff821115610bd657610bd6610b4c565b50601f01601f191660200190565b600082601f830112610bf557600080fd5b8135610c08610c0382610bbc565b610b8b565b818152846020838601011115610c1d57600080fd5b816020850160208301376000918101602001919091529392505050565b600080600080600060a08688031215610c5257600080fd5b853567ffffffffffffffff80821115610c6a57600080fd5b610c7689838a01610be4565b96506020880135915080821115610c8c57600080fd5b610c9889838a01610be4565b95506040880135915080821115610cae57600080fd5b50610cbb88828901610be4565b93505060608601359150608086013560028110610cd757600080fd5b809150509295509295909350565b634e487b7160e01b600052602160045260246000fd5b8581526020810185905260a0810160048510610d1957610d19610ce5565b60408201949094529115156060830152151560809091015292915050565b60005b83811015610d52578181015183820152602001610d3a565b83811115610d61576000848401525b50505050565b60008151808452610d7f816020860160208601610d37565b601f01601f19169290920160200192915050565b6000606085835260208181850152610dad82850187610d67565b6040858203818701528187518084528484019150848160051b850101858a0160005b83811015610e1857868303601f19018552815180518a8552610df38b860182610d67565b828b0151868c0152918801519488019490945294880194925090870190600101610dcf565b50909c9b505050505050505050505050565b6020808252825182820181905260009190848201906040850190845b81811015610e6b5783516001600160a01b031683529284019291840191600101610e46565b50909695505050505050565b60a081526000610e8a60a0830188610d67565b8281036020840152610e9c8188610d67565b90508281036040840152610eb08187610d67565b91505083606083015260028310610ec957610ec9610ce5565b8260808301529695505050505050565b6020808252601590820152742cb7ba9030b932903737ba103a34329037bbb732b960591b604082015260600190565b80518015158114610f1857600080fd5b919050565b600080600080600060a08688031215610f3557600080fd5b8551945060208601519350604086015160048110610f5257600080fd5b9250610f6060608701610f08565b9150610f6e60808701610f08565b90509295509295909350565b600082601f830112610f8b57600080fd5b8151610f99610c0382610bbc565b818152846020838601011115610fae57600080fd5b610fbf826020830160208701610d37565b949350505050565b600080600060608486031215610fdc57600080fd5b8351925060208085015167ffffffffffffffff80821115610ffc57600080fd5b61100888838901610f7a565b9450604087015191508082111561101e57600080fd5b818701915087601f83011261103257600080fd5b81518181111561104457611044610b4c565b8060051b611053858201610b8b565b918252838101850191858101908b84111561106d57600080fd5b86860192505b838310156110f45782518581111561108b5760008081fd5b86016060818e03601f190112156110a25760008081fd5b6110aa610b62565b88820151878111156110bc5760008081fd5b6110ca8f8b83860101610f7a565b82525060408201518982015260608201516040820152808452505086820191508683019250611073565b809750505050505050509250925092565b60006020828403121561111757600080fd5b610b4582610f08565b60006020828403121561113257600080fd5b8151610b4581610b10565b600181811c9082168061115157607f821691505b6020821081141561117257634e487b7160e01b600052602260045260246000fd5b5091905056fea26469706673582212206b213fdee6e6677143eb0124f3441ce6eb9b8af687146ce6d7a5bd98843c2dd164736f6c63430008090033608060405234801561001057600080fd5b50600080546001600160a01b0319163217905560038054630100000033026301000000600160b81b03199091161790556105118061004f6000396000f3fe608060405234801561001057600080fd5b50600436106100365760003560e01c8063919932d21461003b578063ee50ada41461005d575b600080fd5b610043610072565b604051610054959493929190610365565b60405180910390f35b61007061006b3660046103c0565b6101d0565b005b60008060008060008060038054906101000a90046001600160a01b03166001600160a01b031663ab8c71c06040518163ffffffff1660e01b815260040160206040518083038186803b1580156100c757600080fd5b505afa1580156100db573d6000803e3d6000fd5b505050506040513d601f19601f820116820180604052508101906100ff9190610423565b604051623d104160e31b81523360048201529091506001600160a01b038216906301e882089060240160206040518083038186803b15801561014057600080fd5b505afa158015610154573d6000803e3d6000fd5b505050506040513d601f19601f820116820180604052508101906101789190610453565b15156001146101a25760405162461bcd60e51b815260040161019990610470565b60405180910390fd5b5050600154600254600354919690955060ff8083169550610100830481169450620100009092049091169150565b600060038054906101000a90046001600160a01b03166001600160a01b031663ab8c71c06040518163ffffffff1660e01b815260040160206040518083038186803b15801561021e57600080fd5b505afa158015610232573d6000803e3d6000fd5b505050506040513d601f19601f820116820180604052508101906102569190610423565b604051623d104160e31b81523360048201529091506001600160a01b038216906301e882089060240160206040518083038186803b15801561029757600080fd5b505afa1580156102ab573d6000803e3d6000fd5b505050506040513d601f19601f820116820180604052508101906102cf9190610453565b15156001146102f05760405162461bcd60e51b815260040161019990610470565b6001868155600286905560038054869260ff199091169083838111156103185761031861034f565b0217905550506003805462ffff0019166101009315159390930262ff00001916929092176201000091151591909102179055505050565b634e487b7160e01b600052602160045260246000fd5b8581526020810185905260a081016004851061039157634e487b7160e01b600052602160045260246000fd5b60408201949094529115156060830152151560809091015292915050565b80151581146103bd57600080fd5b50565b600080600080600060a086880312156103d857600080fd5b85359450602086013593506040860135600481106103f557600080fd5b92506060860135610405816103af565b91506080860135610415816103af565b809150509295509295909350565b60006020828403121561043557600080fd5b81516001600160a01b038116811461044c57600080fd5b9392505050565b60006020828403121561046557600080fd5b815161044c816103af565b60208082526045908201527f596f7520646f6e27742068617665207065726d697373696f6e20746f2061646460408201527f206f722076696577206865616c746820646174612026206d65646963616c2072606082015264195c1bdc9d60da1b608082015260a0019056fea2646970667358221220a2bbdb0dbfcb1e1bc360ff3c43af12d254b481c4a1d2ed04681e7ea0dc1000ca64736f6c63430008090033608060405234801561001057600080fd5b50600080546001600160a01b03191632178155338152600160208190526040909120805460ff191690911790556103fe8061004c6000396000f3fe608060405234801561001057600080fd5b506004361061004c5760003560e01c806301e88208146100515780632d8e327814610089578063660ac62a1461009e578063e074bb47146100b4575b600080fd5b61007461005f3660046102c3565b60016020526000908152604090205460ff1681565b60405190151581526020015b60405180910390f35b61009c6100973660046102c3565b6100c7565b005b6100a6610156565b6040516100809291906102f3565b61009c6100c23660046102c3565b610278565b6000546001600160a01b031632146100fa5760405162461bcd60e51b81526004016100f190610344565b60405180910390fd5b6001600160a01b0381166000818152600160208181526040808420805460ff1916909317909255600380548452600290915290822080546001600160a01b0319169093179092558154919061014e83610373565b919050555050565b60008054606091906001600160a01b031632146101855760405162461bcd60e51b81526004016100f190610344565b600060035467ffffffffffffffff8111156101a2576101a261039c565b6040519080825280602002602001820160405280156101cb578160200160208202803683370190505b5090506000805b60035481101561026e576000818152600260209081526040808320546001600160a01b03168352600190915290205460ff161561025e5760008181526002602052604090205483516001600160a01b0390911690849084908110610238576102386103b2565b6001600160a01b03909216602092830291909101909101528161025a81610373565b9250505b61026781610373565b90506101d2565b5090925090509091565b6000546001600160a01b031632146102a25760405162461bcd60e51b81526004016100f190610344565b6001600160a01b03166000908152600160205260409020805460ff19169055565b6000602082840312156102d557600080fd5b81356001600160a01b03811681146102ec57600080fd5b9392505050565b604080825283519082018190526000906020906060840190828701845b828110156103355781516001600160a01b031684529284019290840190600101610310565b50505092019290925292915050565b6020808252601590820152742cb7ba9030b932903737ba103a34329037bbb732b960591b604082015260600190565b600060001982141561039557634e487b7160e01b600052601160045260246000fd5b5060010190565b634e487b7160e01b600052604160045260246000fd5b634e487b7160e01b600052603260045260246000fdfea2646970667358221220175a7db1543daff51082bc25cbd3957390d588f145abe618e90cc70b5fce823264736f6c63430008090033a26469706673582212201bd1feefafab6849f4c6fc740c8e0a0d53fb8481c8353b96d526fa68f5841e6964736f6c63430008090033608060405234801561001057600080fd5b506117b2806100206000396000f3fe608060405260043610620000b55760003560e01c80638d95f064116200006c5780638d95f06414620002185780639de62ef7146200023a578063a3e995cf146200025c578063a87d942c146200027e578063d54565da1462000295578063d8639fbf14620002d657600080fd5b806306661abd14620000ba57806332138b1014620000e55780635221a71f146200012a5780635d9db495146200016d578063736960cd14620001c0578063897360491462000201575b600080fd5b348015620000c757600080fd5b50620000d260035481565b6040519081526020015b60405180910390f35b348015620000f257600080fd5b50620001196200010436600462000445565b60006020819052908152604090205460ff1681565b6040519015158152602001620000dc565b3480156200013757600080fd5b506200016b6200014936600462000445565b600480546001600160a01b0319166001600160a01b0392909216919091179055565b005b3480156200017a57600080fd5b50620001a76200018c36600462000477565b6002602052600090815260409020546001600160a01b031681565b6040516001600160a01b039091168152602001620000dc565b348015620001cd57600080fd5b506200016b620001df36600462000445565b600680546001600160a01b0319166001600160a01b0392909216919091179055565b620001a7620002123660046200053c565b62000310565b3480156200022557600080fd5b50600654620001a7906001600160a01b031681565b3480156200024757600080fd5b50600454620001a7906001600160a01b031681565b3480156200026957600080fd5b50600554620001a7906001600160a01b031681565b3480156200028b57600080fd5b50600354620000d2565b348015620002a257600080fd5b506200016b620002b436600462000445565b600580546001600160a01b0319166001600160a01b0392909216919091179055565b348015620002e357600080fd5b50620001a7620002f536600462000445565b6001602052600090815260409020546001600160a01b031681565b3260009081526020819052604081205460ff1615620003805760405162461bcd60e51b815260206004820152602260248201527f596f7520616c72656164792068617665206120686f73706974616c207265636f6044820152611c9960f21b606482015260840160405180910390fd5b6000848484604051620003939062000437565b620003a1939291906200061e565b604051809103906000f080158015620003be573d6000803e3d6000fd5b5032600090815260208181526040808320805460ff19166001908117909155825280832080546001600160a01b0386166001600160a01b03199182168117909255600380548652600290945291842080549092161790558054929350839291620004288362000667565b90915550909695505050505050565b6110eb806200069283390190565b6000602082840312156200045857600080fd5b81356001600160a01b03811681146200047057600080fd5b9392505050565b6000602082840312156200048a57600080fd5b5035919050565b634e487b7160e01b600052604160045260246000fd5b600082601f830112620004b957600080fd5b813567ffffffffffffffff80821115620004d757620004d762000491565b604051601f8301601f19908116603f0116810190828211818310171562000502576200050262000491565b816040528381528660208588010111156200051c57600080fd5b836020870160208301376000602085830101528094505050505092915050565b6000806000606084860312156200055257600080fd5b833567ffffffffffffffff808211156200056b57600080fd5b6200057987838801620004a7565b945060208601359150808211156200059057600080fd5b6200059e87838801620004a7565b93506040860135915080821115620005b557600080fd5b50620005c486828701620004a7565b9150509250925092565b6000815180845260005b81811015620005f657602081850181015186830182015201620005d8565b8181111562000609576000602083870101525b50601f01601f19169290920160200192915050565b606081526000620006336060830186620005ce565b8281036020840152620006478186620005ce565b905082810360408401526200065d8185620005ce565b9695505050505050565b60006000198214156200068a57634e487b7160e01b600052601160045260246000fd5b506001019056fe60806040523480156200001157600080fd5b50604051620010eb380380620010eb833981016040819052620000349162000217565b600080546001600160a01b0319163217905582516200005b906001906020860190620000a4565b50815162000071906002906020850190620000a4565b50805162000087906003906020840190620000a4565b5050600680546001600160a01b0319163317905550620002e59050565b828054620000b290620002a8565b90600052602060002090601f016020900481019282620000d6576000855562000121565b82601f10620000f157805160ff191683800117855562000121565b8280016001018555821562000121579182015b828111156200012157825182559160200191906001019062000104565b506200012f92915062000133565b5090565b5b808211156200012f576000815560010162000134565b634e487b7160e01b600052604160045260246000fd5b600082601f8301126200017257600080fd5b81516001600160401b03808211156200018f576200018f6200014a565b604051601f8301601f19908116603f01168101908282118183101715620001ba57620001ba6200014a565b81604052838152602092508683858801011115620001d757600080fd5b600091505b83821015620001fb5785820183015181830184015290820190620001dc565b838211156200020d5760008385830101525b9695505050505050565b6000806000606084860312156200022d57600080fd5b83516001600160401b03808211156200024557600080fd5b620002538783880162000160565b945060208601519150808211156200026a57600080fd5b620002788783880162000160565b935060408601519150808211156200028f57600080fd5b506200029e8682870162000160565b9150509250925092565b600181811c90821680620002bd57607f821691505b60208210811415620002df57634e487b7160e01b600052602260045260246000fd5b50919050565b610df680620002f56000396000f3fe608060405234801561001057600080fd5b506004361061007d5760003560e01c8063c48722381161005b578063c4872238146100be578063e4977440146100c6578063eb056845146100d9578063f59f1603146100e157600080fd5b80636160a5c21461008257806375a3f4e31461009757806399faaa481461009f575b600080fd5b610095610090366004610ac1565b6100f8565b005b61009561017c565b6100a7610317565b6040516100b5929190610ae5565b60405180910390f35b61009561044f565b6100956100d4366004610bd9565b610695565b6100a7610728565b6100e9610856565b6040516100b593929190610cae565b6000546001600160a01b0316321461014f5760405162461bcd60e51b81526020600482015260156024820152742cb7ba9030b932903737ba103a34329037bbb732b960591b60448201526064015b60405180910390fd5b6001600160a01b038116600090815260046020526040902080546001919060ff191682805b021790555050565b600654604080516323657c1960e21b815290516000926001600160a01b031691638d95f064916004808301926020929190829003018186803b1580156101c157600080fd5b505afa1580156101d5573d6000803e3d6000fd5b505050506040513d601f19601f820116820180604052508101906101f99190610d07565b604051639840e1e560e01b81523260048201529091506001600160a01b03821690639840e1e59060240160206040518083038186803b15801561023b57600080fd5b505afa15801561024f573d6000803e3d6000fd5b505050506040513d601f19601f820116820180604052508101906102739190610d24565b15156001146102bb5760405162461bcd60e51b81526020600482015260146024820152732cb7ba9030b932903737ba1030903237b1ba37b960611b6044820152606401610146565b50336000818152600460205260408120805460ff191660021790556005805460018101825591527f036b6384b5eca791c62761152d0c79bb0604c104a5fb6f4eb0703f3154bb3db00180546001600160a01b0319169091179055565b606060008060058054905067ffffffffffffffff81111561033a5761033a610b36565b604051908082528060200260200182016040528015610363578160200160208202803683370190505b5090506000805b600554811015610445576002600460006005848154811061038d5761038d610d46565b60009182526020808320909101546001600160a01b0316835282019290925260400190205460ff1660038111156103c6576103c6610cf1565b141561043557600581815481106103df576103df610d46565b9060005260206000200160009054906101000a90046001600160a01b031683838151811061040f5761040f610d46565b6001600160a01b03909216602092830291909101909101528161043181610d5c565b9250505b61043e81610d5c565b905061036a565b5090939092509050565b600654604080516323657c1960e21b815290516000926001600160a01b031691638d95f064916004808301926020929190829003018186803b15801561049457600080fd5b505afa1580156104a8573d6000803e3d6000fd5b505050506040513d601f19601f820116820180604052508101906104cc9190610d07565b604051639840e1e560e01b81523260048201529091506001600160a01b03821690639840e1e59060240160206040518083038186803b15801561050e57600080fd5b505afa158015610522573d6000803e3d6000fd5b505050506040513d601f19601f820116820180604052508101906105469190610d24565b151560011461058e5760405162461bcd60e51b81526020600482015260146024820152732cb7ba9030b932903737ba1030903237b1ba37b960611b6044820152606401610146565b3360009081526004602052604081205460ff1660038111156105b2576105b2610cf1565b14156106005760405162461bcd60e51b815260206004820152601e60248201527f446f63746f72206973206e6f742061646465642070726576696f75736c7900006044820152606401610146565b60033360009081526004602052604090205460ff16600381111561062657610626610cf1565b14156106745760405162461bcd60e51b815260206004820152601960248201527f446f63746f7220697320616c72656164792072656d6f766564000000000000006044820152606401610146565b33600090815260046020526040902080546003919060ff1916600183610174565b6000546001600160a01b031632146106e75760405162461bcd60e51b81526020600482015260156024820152742cb7ba9030b932903737ba103a34329037bbb732b960591b6044820152606401610146565b82516106fa906001906020860190610a10565b50815161070e906002906020850190610a10565b508051610722906003906020840190610a10565b50505050565b606060008060058054905067ffffffffffffffff81111561074b5761074b610b36565b604051908082528060200260200182016040528015610774578160200160208202803683370190505b5090506000805b600554811015610445576001600460006005848154811061079e5761079e610d46565b60009182526020808320909101546001600160a01b0316835282019290925260400190205460ff1660038111156107d7576107d7610cf1565b141561084657600581815481106107f0576107f0610d46565b9060005260206000200160009054906101000a90046001600160a01b031683838151811061082057610820610d46565b6001600160a01b03909216602092830291909101909101528161084281610d5c565b9250505b61084f81610d5c565b905061077b565b606080606060016002600382805461086d90610d85565b80601f016020809104026020016040519081016040528092919081815260200182805461089990610d85565b80156108e65780601f106108bb576101008083540402835291602001916108e6565b820191906000526020600020905b8154815290600101906020018083116108c957829003601f168201915b505050505092508180546108f990610d85565b80601f016020809104026020016040519081016040528092919081815260200182805461092590610d85565b80156109725780601f1061094757610100808354040283529160200191610972565b820191906000526020600020905b81548152906001019060200180831161095557829003601f168201915b5050505050915080805461098590610d85565b80601f01602080910402602001604051908101604052809291908181526020018280546109b190610d85565b80156109fe5780601f106109d3576101008083540402835291602001916109fe565b820191906000526020600020905b8154815290600101906020018083116109e157829003601f168201915b50505050509050925092509250909192565b828054610a1c90610d85565b90600052602060002090601f016020900481019282610a3e5760008555610a84565b82601f10610a5757805160ff1916838001178555610a84565b82800160010185558215610a84579182015b82811115610a84578251825591602001919060010190610a69565b50610a90929150610a94565b5090565b5b80821115610a905760008155600101610a95565b6001600160a01b0381168114610abe57600080fd5b50565b600060208284031215610ad357600080fd5b8135610ade81610aa9565b9392505050565b604080825283519082018190526000906020906060840190828701845b82811015610b275781516001600160a01b031684529284019290840190600101610b02565b50505092019290925292915050565b634e487b7160e01b600052604160045260246000fd5b600082601f830112610b5d57600080fd5b813567ffffffffffffffff80821115610b7857610b78610b36565b604051601f8301601f19908116603f01168101908282118183101715610ba057610ba0610b36565b81604052838152866020858801011115610bb957600080fd5b836020870160208301376000602085830101528094505050505092915050565b600080600060608486031215610bee57600080fd5b833567ffffffffffffffff80821115610c0657600080fd5b610c1287838801610b4c565b94506020860135915080821115610c2857600080fd5b610c3487838801610b4c565b93506040860135915080821115610c4a57600080fd5b50610c5786828701610b4c565b9150509250925092565b6000815180845260005b81811015610c8757602081850181015186830182015201610c6b565b81811115610c99576000602083870101525b50601f01601f19169290920160200192915050565b606081526000610cc16060830186610c61565b8281036020840152610cd38186610c61565b90508281036040840152610ce78185610c61565b9695505050505050565b634e487b7160e01b600052602160045260246000fd5b600060208284031215610d1957600080fd5b8151610ade81610aa9565b600060208284031215610d3657600080fd5b81518015158114610ade57600080fd5b634e487b7160e01b600052603260045260246000fd5b6000600019821415610d7e57634e487b7160e01b600052601160045260246000fd5b5060010190565b600181811c90821680610d9957607f821691505b60208210811415610dba57634e487b7160e01b600052602260045260246000fd5b5091905056fea26469706673582212200e35bb11b67b069b7a98ce504eaeef9d5c3f97c4b835254501789201b7810e0e64736f6c63430008090033a26469706673582212209ac5aa533216d0f60dbbdb0822d15d101cfea7c5657f5e79d480fdda9bebab4064736f6c63430008090033",
  "immutableReferences": {},
  "source": "// SPDX-License-Identifier: MIT\r\npragma solidity ^0.8.0;\r\nimport \"./12_DoctorEHR.sol\";\r\nimport \"./13_PatientEHR.sol\";\r\nimport \"./11_HospitalEHR.sol\";\r\n\r\ncontract EHR {\r\n    address public doctorEhr;\r\n    address public hospitalEhr;\r\n    address public patientEhr;\r\n\r\n    constructor() {\r\n        DoctorEHR _doctorEhr = new DoctorEHR();\r\n        PatientEHR _patientEhr = new PatientEHR();\r\n        HospitalEHR _hospitalEhr = new HospitalEHR();\r\n\r\n        doctorEhr = address(_doctorEhr);\r\n        patientEhr = address(_patientEhr);\r\n        hospitalEhr = address(_hospitalEhr);\r\n\r\n        _doctorEhr.setHospitalEhr(hospitalEhr);\r\n        _doctorEhr.setPatientEhr(patientEhr);\r\n        _doctorEhr.setDoctorEhr(doctorEhr);\r\n\r\n        _patientEhr.setHospitalEhr(hospitalEhr);\r\n        _patientEhr.setDoctorEhr(doctorEhr);\r\n        _patientEhr.setPatientEhr(patientEhr);\r\n\r\n        _hospitalEhr.setDoctorEhr(doctorEhr);\r\n        _hospitalEhr.setPatientEhr(patientEhr);\r\n        _hospitalEhr.setHospitalEhr(hospitalEhr);\r\n    }\r\n}",
  "sourcePath": "D:\\Blockchain\\dapp_ehr_1\\truffle\\contracts\\3_EHR.sol",
  "compiler": {
    "name": "solc",
    "version": "0.8.9+commit.e5eed63a.Emscripten.clang"
  },
  "schemaVersion": "3.4.3",
  "updatedAt": "2023-02-01T09:12:20.388Z",
  "networkType": "ethereum",
  "devdoc": {
    "kind": "dev",
    "methods": {},
    "version": 1
  },
  "userdoc": {
    "kind": "user",
    "methods": {},
    "version": 1
  }
}