{
  "contractName": "HospitalEHR",
  "abi": [
    {
      "inputs": [],
      "name": "count",
      "outputs": [
        {
          "internalType": "uint256",
          "name": "",
          "type": "uint256"
        }
      ],
      "stateMutability": "view",
      "type": "function"
    },
    {
      "inputs": [],
      "name": "doctorEhr",
      "outputs": [
        {
          "internalType": "address",
          "name": "",
          "type": "address"
        }
      ],
      "stateMutability": "view",
      "type": "function"
    },
    {
      "inputs": [
        {
          "internalType": "address",
          "name": "",
          "type": "address"
        }
      ],
      "name": "hasHospitalRecord",
      "outputs": [
        {
          "internalType": "bool",
          "name": "",
          "type": "bool"
        }
      ],
      "stateMutability": "view",
      "type": "function"
    },
    {
      "inputs": [],
      "name": "hospitalEhr",
      "outputs": [
        {
          "internalType": "address",
          "name": "",
          "type": "address"
        }
      ],
      "stateMutability": "view",
      "type": "function"
    },
    {
      "inputs": [
        {
          "internalType": "address",
          "name": "",
          "type": "address"
        }
      ],
      "name": "hospitalRecord",
      "outputs": [
        {
          "internalType": "address",
          "name": "",
          "type": "address"
        }
      ],
      "stateMutability": "view",
      "type": "function"
    },
    {
      "inputs": [
        {
          "internalType": "uint256",
          "name": "",
          "type": "uint256"
        }
      ],
      "name": "hospitalRecords",
      "outputs": [
        {
          "internalType": "address",
          "name": "",
          "type": "address"
        }
      ],
      "stateMutability": "view",
      "type": "function"
    },
    {
      "inputs": [],
      "name": "patientEhr",
      "outputs": [
        {
          "internalType": "address",
          "name": "",
          "type": "address"
        }
      ],
      "stateMutability": "view",
      "type": "function"
    },
    {
      "inputs": [],
      "name": "getCount",
      "outputs": [
        {
          "internalType": "uint256",
          "name": "",
          "type": "uint256"
        }
      ],
      "stateMutability": "view",
      "type": "function"
    },
    {
      "inputs": [
        {
          "internalType": "address",
          "name": "_addr",
          "type": "address"
        }
      ],
      "name": "setPatientEhr",
      "outputs": [],
      "stateMutability": "nonpayable",
      "type": "function"
    },
    {
      "inputs": [
        {
          "internalType": "address",
          "name": "_addr",
          "type": "address"
        }
      ],
      "name": "setHospitalEhr",
      "outputs": [],
      "stateMutability": "nonpayable",
      "type": "function"
    },
    {
      "inputs": [
        {
          "internalType": "address",
          "name": "_addr",
          "type": "address"
        }
      ],
      "name": "setDoctorEhr",
      "outputs": [],
      "stateMutability": "nonpayable",
      "type": "function"
    },
    {
      "inputs": [
        {
          "internalType": "string",
          "name": "_name",
          "type": "string"
        },
        {
          "internalType": "string",
          "name": "_location",
          "type": "string"
        },
        {
          "internalType": "string",
          "name": "_id",
          "type": "string"
        }
      ],
      "name": "addHospitalRecord",
      "outputs": [
        {
          "internalType": "address",
          "name": "",
          "type": "address"
        }
      ],
      "stateMutability": "payable",
      "type": "function"
    }
  ],
  "bytecode": "0x608060405234801561001057600080fd5b506117b2806100206000396000f3fe608060405260043610620000b55760003560e01c80638d95f064116200006c5780638d95f06414620002185780639de62ef7146200023a578063a3e995cf146200025c578063a87d942c146200027e578063d54565da1462000295578063d8639fbf14620002d657600080fd5b806306661abd14620000ba57806332138b1014620000e55780635221a71f146200012a5780635d9db495146200016d578063736960cd14620001c0578063897360491462000201575b600080fd5b348015620000c757600080fd5b50620000d260035481565b6040519081526020015b60405180910390f35b348015620000f257600080fd5b50620001196200010436600462000445565b60006020819052908152604090205460ff1681565b6040519015158152602001620000dc565b3480156200013757600080fd5b506200016b6200014936600462000445565b600480546001600160a01b0319166001600160a01b0392909216919091179055565b005b3480156200017a57600080fd5b50620001a76200018c36600462000477565b6002602052600090815260409020546001600160a01b031681565b6040516001600160a01b039091168152602001620000dc565b348015620001cd57600080fd5b506200016b620001df36600462000445565b600680546001600160a01b0319166001600160a01b0392909216919091179055565b620001a7620002123660046200053c565b62000310565b3480156200022557600080fd5b50600654620001a7906001600160a01b031681565b3480156200024757600080fd5b50600454620001a7906001600160a01b031681565b3480156200026957600080fd5b50600554620001a7906001600160a01b031681565b3480156200028b57600080fd5b50600354620000d2565b348015620002a257600080fd5b506200016b620002b436600462000445565b600580546001600160a01b0319166001600160a01b0392909216919091179055565b348015620002e357600080fd5b50620001a7620002f536600462000445565b6001602052600090815260409020546001600160a01b031681565b3260009081526020819052604081205460ff1615620003805760405162461bcd60e51b815260206004820152602260248201527f596f7520616c72656164792068617665206120686f73706974616c207265636f6044820152611c9960f21b606482015260840160405180910390fd5b6000848484604051620003939062000437565b620003a1939291906200061e565b604051809103906000f080158015620003be573d6000803e3d6000fd5b5032600090815260208181526040808320805460ff19166001908117909155825280832080546001600160a01b0386166001600160a01b03199182168117909255600380548652600290945291842080549092161790558054929350839291620004288362000667565b90915550909695505050505050565b6110eb806200069283390190565b6000602082840312156200045857600080fd5b81356001600160a01b03811681146200047057600080fd5b9392505050565b6000602082840312156200048a57600080fd5b5035919050565b634e487b7160e01b600052604160045260246000fd5b600082601f830112620004b957600080fd5b813567ffffffffffffffff80821115620004d757620004d762000491565b604051601f8301601f19908116603f0116810190828211818310171562000502576200050262000491565b816040528381528660208588010111156200051c57600080fd5b836020870160208301376000602085830101528094505050505092915050565b6000806000606084860312156200055257600080fd5b833567ffffffffffffffff808211156200056b57600080fd5b6200057987838801620004a7565b945060208601359150808211156200059057600080fd5b6200059e87838801620004a7565b93506040860135915080821115620005b557600080fd5b50620005c486828701620004a7565b9150509250925092565b6000815180845260005b81811015620005f657602081850181015186830182015201620005d8565b8181111562000609576000602083870101525b50601f01601f19169290920160200192915050565b606081526000620006336060830186620005ce565b8281036020840152620006478186620005ce565b905082810360408401526200065d8185620005ce565b9695505050505050565b60006000198214156200068a57634e487b7160e01b600052601160045260246000fd5b506001019056fe60806040523480156200001157600080fd5b50604051620010eb380380620010eb833981016040819052620000349162000217565b600080546001600160a01b0319163217905582516200005b906001906020860190620000a4565b50815162000071906002906020850190620000a4565b50805162000087906003906020840190620000a4565b5050600680546001600160a01b0319163317905550620002e59050565b828054620000b290620002a8565b90600052602060002090601f016020900481019282620000d6576000855562000121565b82601f10620000f157805160ff191683800117855562000121565b8280016001018555821562000121579182015b828111156200012157825182559160200191906001019062000104565b506200012f92915062000133565b5090565b5b808211156200012f576000815560010162000134565b634e487b7160e01b600052604160045260246000fd5b600082601f8301126200017257600080fd5b81516001600160401b03808211156200018f576200018f6200014a565b604051601f8301601f19908116603f01168101908282118183101715620001ba57620001ba6200014a565b81604052838152602092508683858801011115620001d757600080fd5b600091505b83821015620001fb5785820183015181830184015290820190620001dc565b838211156200020d5760008385830101525b9695505050505050565b6000806000606084860312156200022d57600080fd5b83516001600160401b03808211156200024557600080fd5b620002538783880162000160565b945060208601519150808211156200026a57600080fd5b620002788783880162000160565b935060408601519150808211156200028f57600080fd5b506200029e8682870162000160565b9150509250925092565b600181811c90821680620002bd57607f821691505b60208210811415620002df57634e487b7160e01b600052602260045260246000fd5b50919050565b610df680620002f56000396000f3fe608060405234801561001057600080fd5b506004361061007d5760003560e01c8063c48722381161005b578063c4872238146100be578063e4977440146100c6578063eb056845146100d9578063f59f1603146100e157600080fd5b80636160a5c21461008257806375a3f4e31461009757806399faaa481461009f575b600080fd5b610095610090366004610ac1565b6100f8565b005b61009561017c565b6100a7610317565b6040516100b5929190610ae5565b60405180910390f35b61009561044f565b6100956100d4366004610bd9565b610695565b6100a7610728565b6100e9610856565b6040516100b593929190610cae565b6000546001600160a01b0316321461014f5760405162461bcd60e51b81526020600482015260156024820152742cb7ba9030b932903737ba103a34329037bbb732b960591b60448201526064015b60405180910390fd5b6001600160a01b038116600090815260046020526040902080546001919060ff191682805b021790555050565b600654604080516323657c1960e21b815290516000926001600160a01b031691638d95f064916004808301926020929190829003018186803b1580156101c157600080fd5b505afa1580156101d5573d6000803e3d6000fd5b505050506040513d601f19601f820116820180604052508101906101f99190610d07565b604051639840e1e560e01b81523260048201529091506001600160a01b03821690639840e1e59060240160206040518083038186803b15801561023b57600080fd5b505afa15801561024f573d6000803e3d6000fd5b505050506040513d601f19601f820116820180604052508101906102739190610d24565b15156001146102bb5760405162461bcd60e51b81526020600482015260146024820152732cb7ba9030b932903737ba1030903237b1ba37b960611b6044820152606401610146565b50336000818152600460205260408120805460ff191660021790556005805460018101825591527f036b6384b5eca791c62761152d0c79bb0604c104a5fb6f4eb0703f3154bb3db00180546001600160a01b0319169091179055565b606060008060058054905067ffffffffffffffff81111561033a5761033a610b36565b604051908082528060200260200182016040528015610363578160200160208202803683370190505b5090506000805b600554811015610445576002600460006005848154811061038d5761038d610d46565b60009182526020808320909101546001600160a01b0316835282019290925260400190205460ff1660038111156103c6576103c6610cf1565b141561043557600581815481106103df576103df610d46565b9060005260206000200160009054906101000a90046001600160a01b031683838151811061040f5761040f610d46565b6001600160a01b03909216602092830291909101909101528161043181610d5c565b9250505b61043e81610d5c565b905061036a565b5090939092509050565b600654604080516323657c1960e21b815290516000926001600160a01b031691638d95f064916004808301926020929190829003018186803b15801561049457600080fd5b505afa1580156104a8573d6000803e3d6000fd5b505050506040513d601f19601f820116820180604052508101906104cc9190610d07565b604051639840e1e560e01b81523260048201529091506001600160a01b03821690639840e1e59060240160206040518083038186803b15801561050e57600080fd5b505afa158015610522573d6000803e3d6000fd5b505050506040513d601f19601f820116820180604052508101906105469190610d24565b151560011461058e5760405162461bcd60e51b81526020600482015260146024820152732cb7ba9030b932903737ba1030903237b1ba37b960611b6044820152606401610146565b3360009081526004602052604081205460ff1660038111156105b2576105b2610cf1565b14156106005760405162461bcd60e51b815260206004820152601e60248201527f446f63746f72206973206e6f742061646465642070726576696f75736c7900006044820152606401610146565b60033360009081526004602052604090205460ff16600381111561062657610626610cf1565b14156106745760405162461bcd60e51b815260206004820152601960248201527f446f63746f7220697320616c72656164792072656d6f766564000000000000006044820152606401610146565b33600090815260046020526040902080546003919060ff1916600183610174565b6000546001600160a01b031632146106e75760405162461bcd60e51b81526020600482015260156024820152742cb7ba9030b932903737ba103a34329037bbb732b960591b6044820152606401610146565b82516106fa906001906020860190610a10565b50815161070e906002906020850190610a10565b508051610722906003906020840190610a10565b50505050565b606060008060058054905067ffffffffffffffff81111561074b5761074b610b36565b604051908082528060200260200182016040528015610774578160200160208202803683370190505b5090506000805b600554811015610445576001600460006005848154811061079e5761079e610d46565b60009182526020808320909101546001600160a01b0316835282019290925260400190205460ff1660038111156107d7576107d7610cf1565b141561084657600581815481106107f0576107f0610d46565b9060005260206000200160009054906101000a90046001600160a01b031683838151811061082057610820610d46565b6001600160a01b03909216602092830291909101909101528161084281610d5c565b9250505b61084f81610d5c565b905061077b565b606080606060016002600382805461086d90610d85565b80601f016020809104026020016040519081016040528092919081815260200182805461089990610d85565b80156108e65780601f106108bb576101008083540402835291602001916108e6565b820191906000526020600020905b8154815290600101906020018083116108c957829003601f168201915b505050505092508180546108f990610d85565b80601f016020809104026020016040519081016040528092919081815260200182805461092590610d85565b80156109725780601f1061094757610100808354040283529160200191610972565b820191906000526020600020905b81548152906001019060200180831161095557829003601f168201915b5050505050915080805461098590610d85565b80601f01602080910402602001604051908101604052809291908181526020018280546109b190610d85565b80156109fe5780601f106109d3576101008083540402835291602001916109fe565b820191906000526020600020905b8154815290600101906020018083116109e157829003601f168201915b50505050509050925092509250909192565b828054610a1c90610d85565b90600052602060002090601f016020900481019282610a3e5760008555610a84565b82601f10610a5757805160ff1916838001178555610a84565b82800160010185558215610a84579182015b82811115610a84578251825591602001919060010190610a69565b50610a90929150610a94565b5090565b5b80821115610a905760008155600101610a95565b6001600160a01b0381168114610abe57600080fd5b50565b600060208284031215610ad357600080fd5b8135610ade81610aa9565b9392505050565b604080825283519082018190526000906020906060840190828701845b82811015610b275781516001600160a01b031684529284019290840190600101610b02565b50505092019290925292915050565b634e487b7160e01b600052604160045260246000fd5b600082601f830112610b5d57600080fd5b813567ffffffffffffffff80821115610b7857610b78610b36565b604051601f8301601f19908116603f01168101908282118183101715610ba057610ba0610b36565b81604052838152866020858801011115610bb957600080fd5b836020870160208301376000602085830101528094505050505092915050565b600080600060608486031215610bee57600080fd5b833567ffffffffffffffff80821115610c0657600080fd5b610c1287838801610b4c565b94506020860135915080821115610c2857600080fd5b610c3487838801610b4c565b93506040860135915080821115610c4a57600080fd5b50610c5786828701610b4c565b9150509250925092565b6000815180845260005b81811015610c8757602081850181015186830182015201610c6b565b81811115610c99576000602083870101525b50601f01601f19169290920160200192915050565b606081526000610cc16060830186610c61565b8281036020840152610cd38186610c61565b90508281036040840152610ce78185610c61565b9695505050505050565b634e487b7160e01b600052602160045260246000fd5b600060208284031215610d1957600080fd5b8151610ade81610aa9565b600060208284031215610d3657600080fd5b81518015158114610ade57600080fd5b634e487b7160e01b600052603260045260246000fd5b6000600019821415610d7e57634e487b7160e01b600052601160045260246000fd5b5060010190565b600181811c90821680610d9957607f821691505b60208210811415610dba57634e487b7160e01b600052602260045260246000fd5b5091905056fea26469706673582212200e35bb11b67b069b7a98ce504eaeef9d5c3f97c4b835254501789201b7810e0e64736f6c63430008090033a26469706673582212209ac5aa533216d0f60dbbdb0822d15d101cfea7c5657f5e79d480fdda9bebab4064736f6c63430008090033",
  "immutableReferences": {},
  "source": "// SPDX-License-Identifier: MIT\r\npragma solidity ^0.8.0;\r\nimport \"./1_Library.sol\";\r\nimport \"./4_Hospital.sol\";\r\n// import \"./5_Doctor.sol\";\r\n// import \"./6_Patient.sol\";\r\n\r\ncontract HospitalEHR {\r\n    // STATE VARIABLES\r\n    mapping(address => bool) public hasHospitalRecord; // address is hospital?\r\n    mapping(address => address) public hospitalRecord; // address of associated hospital record\r\n    mapping(uint => address) public hospitalRecords;\r\n    uint public count;\r\n\r\n    function getCount() public view returns(uint) {\r\n        return count;\r\n    }\r\n\r\n    address public patientEhr;\r\n    address public hospitalEhr;\r\n    address public doctorEhr;\r\n\r\n    function setPatientEhr(address _addr) public {\r\n        patientEhr = _addr;\r\n    }\r\n\r\n    function setHospitalEhr(address _addr) public {\r\n        hospitalEhr = _addr;\r\n    }\r\n\r\n    function setDoctorEhr(address _addr) public {\r\n        doctorEhr = _addr;\r\n    }\r\n\r\n    // CONSTRUCTOR\r\n\r\n    // MODIFIERS\r\n    modifier notHospital() {\r\n        require(hasHospitalRecord[tx.origin] == false, \r\n            \"You already have a hospital record\");\r\n        _;\r\n    }\r\n\r\n    // FUNCTIONS\r\n    function addHospitalRecord(\r\n        string memory _name,\r\n        string memory _location,\r\n        string memory _id\r\n    ) public payable notHospital returns(address) {\r\n        Hospital _hospital = new Hospital(_name, _location, _id);\r\n        address hospitalAddress = address(_hospital);\r\n\r\n        hasHospitalRecord[tx.origin] = true;\r\n        hospitalRecord[tx.origin] = hospitalAddress;\r\n\r\n        hospitalRecords[count] = hospitalAddress;\r\n        count++;\r\n\r\n        return hospitalAddress;\r\n    }\r\n\r\n}\r\n",
  "sourcePath": "D:\\Blockchain\\dapp_ehr_1\\truffle\\contracts\\11_HospitalEHR.sol",
  "compiler": {
    "name": "solc",
    "version": "0.8.9+commit.e5eed63a.Emscripten.clang"
  },
  "schemaVersion": "3.4.3",
  "updatedAt": "2023-02-01T09:12:10.538Z",
  "devdoc": {
    "kind": "dev",
    "methods": {},
    "version": 1
  },
  "userdoc": {
    "kind": "user",
    "methods": {},
    "version": 1
  }
}