{
  "contractName": "MedicalReport",
  "abi": [
    {
      "inputs": [
        {
          "internalType": "address",
          "name": "_patient",
          "type": "address"
        },
        {
          "internalType": "string",
          "name": "_diagnostic",
          "type": "string"
        },
        {
          "internalType": "string[]",
          "name": "_medicine",
          "type": "string[]"
        },
        {
          "internalType": "uint256[]",
          "name": "_numDays",
          "type": "uint256[]"
        },
        {
          "internalType": "uint256[]",
          "name": "_perDay",
          "type": "uint256[]"
        }
      ],
      "stateMutability": "nonpayable",
      "type": "constructor"
    },
    {
      "inputs": [],
      "name": "getMedicalReportDetails",
      "outputs": [
        {
          "internalType": "uint256",
          "name": "",
          "type": "uint256"
        },
        {
          "internalType": "string",
          "name": "",
          "type": "string"
        },
        {
          "components": [
            {
              "internalType": "string",
              "name": "medicine",
              "type": "string"
            },
            {
              "internalType": "uint256",
              "name": "numDays",
              "type": "uint256"
            },
            {
              "internalType": "uint256",
              "name": "perDay",
              "type": "uint256"
            }
          ],
          "internalType": "struct Library.Prescription[]",
          "name": "",
          "type": "tuple[]"
        }
      ],
      "stateMutability": "view",
      "type": "function"
    }
  ],
  "bytecode": "0x60806040523480156200001157600080fd5b5060405162000abf38038062000abf833981016040819052620000349162000442565b60008054336001600160a01b031991821617909155600180549091166001600160a01b038716179055426002558351620000769060039060208701906200019c565b50815183511480156200008a575080518351145b15620001915760005b83518110156200018f5760006040518060600160405280868481518110620000bf57620000bf6200051c565b60200260200101518152602001858481518110620000e157620000e16200051c565b602002602001015181526020018484815181106200010357620001036200051c565b6020908102919091018101519091526004805460018101825560009190915282518051939450849360039092027f8a35acfbc15ff81a39ae7d344fd709f28e8600b4aa8c65c6b64bfe7fe36bd19b019262000164928492909101906200019c565b506020820151600182015560409091015160029091015550620001878162000532565b905062000093565b505b505050505062000599565b828054620001aa906200055c565b90600052602060002090601f016020900481019282620001ce576000855562000219565b82601f10620001e957805160ff191683800117855562000219565b8280016001018555821562000219579182015b8281111562000219578251825591602001919060010190620001fc565b50620002279291506200022b565b5090565b5b808211156200022757600081556001016200022c565b634e487b7160e01b600052604160045260246000fd5b604051601f8201601f191681016001600160401b038111828210171562000283576200028362000242565b604052919050565b600082601f8301126200029d57600080fd5b81516001600160401b03811115620002b957620002b962000242565b6020620002cf601f8301601f1916820162000258565b8281528582848701011115620002e457600080fd5b60005b8381101562000304578581018301518282018401528201620002e7565b83811115620003165760008385840101525b5095945050505050565b60006001600160401b038211156200033c576200033c62000242565b5060051b60200190565b600082601f8301126200035857600080fd5b81516020620003716200036b8362000320565b62000258565b82815260059290921b840181019181810190868411156200039157600080fd5b8286015b84811015620003d55780516001600160401b03811115620003b65760008081fd5b620003c68986838b01016200028b565b84525091830191830162000395565b509695505050505050565b600082601f830112620003f257600080fd5b81516020620004056200036b8362000320565b82815260059290921b840181019181810190868411156200042557600080fd5b8286015b84811015620003d5578051835291830191830162000429565b600080600080600060a086880312156200045b57600080fd5b85516001600160a01b03811681146200047357600080fd5b60208701519095506001600160401b03808211156200049157600080fd5b6200049f89838a016200028b565b95506040880151915080821115620004b657600080fd5b620004c489838a0162000346565b94506060880151915080821115620004db57600080fd5b620004e989838a01620003e0565b935060808801519150808211156200050057600080fd5b506200050f88828901620003e0565b9150509295509295909350565b634e487b7160e01b600052603260045260246000fd5b60006000198214156200055557634e487b7160e01b600052601160045260246000fd5b5060010190565b600181811c908216806200057157607f821691505b602082108114156200059357634e487b7160e01b600052602260045260246000fd5b50919050565b61051680620005a96000396000f3fe608060405234801561001057600080fd5b506004361061002b5760003560e01c8063cc797fd514610030575b600080fd5b610038610050565b604051610047939291906103bc565b60405180910390f35b60006060806000600160009054906101000a90046001600160a01b03166001600160a01b031663ab8c71c06040518163ffffffff1660e01b815260040160206040518083038186803b1580156100a557600080fd5b505afa1580156100b9573d6000803e3d6000fd5b505050506040513d601f19601f820116820180604052508101906100dd9190610453565b604051623d104160e31b81523360048201529091506001600160a01b038216906301e882089060240160206040518083038186803b15801561011e57600080fd5b505afa158015610132573d6000803e3d6000fd5b505050506040513d601f19601f820116820180604052508101906101569190610483565b15156001146101d15760405162461bcd60e51b815260206004820152603760248201527f596f7520646f6e27742068617665207065726d697373696f6e20746f2061636360448201527f6573732074686973206d65646963616c207265706f7274000000000000000000606482015260840160405180910390fd5b600254600360048180546101e4906104a5565b80601f0160208091040260200160405190810160405280929190818152602001828054610210906104a5565b801561025d5780601f106102325761010080835404028352916020019161025d565b820191906000526020600020905b81548152906001019060200180831161024057829003601f168201915b5050505050915080805480602002602001604051908101604052809291908181526020016000905b8282101561035d57838290600052602060002090600302016040518060600160405290816000820180546102b8906104a5565b80601f01602080910402602001604051908101604052809291908181526020018280546102e4906104a5565b80156103315780601f1061030657610100808354040283529160200191610331565b820191906000526020600020905b81548152906001019060200180831161031457829003601f168201915b505050505081526020016001820154815260200160028201548152505081526020019060010190610285565b50505050905093509350935050909192565b6000815180845260005b8181101561039557602081850181015186830182015201610379565b818111156103a7576000602083870101525b50601f01601f19169290920160200192915050565b60006060858352602081818501526103d68285018761036f565b6040858203818701528187518084528484019150848160051b850101858a0160005b8381101561044157868303601f19018552815180518a855261041c8b86018261036f565b828b0151868c01529188015194880194909452948801949250908701906001016103f8565b50909c9b505050505050505050505050565b60006020828403121561046557600080fd5b81516001600160a01b038116811461047c57600080fd5b9392505050565b60006020828403121561049557600080fd5b8151801515811461047c57600080fd5b600181811c908216806104b957607f821691505b602082108114156104da57634e487b7160e01b600052602260045260246000fd5b5091905056fea26469706673582212209c4dbddf4bbc49fe1f8f1fb00dbc4557f49c30898ac49174f6e024a84b6b6bed64736f6c63430008090033",
  "immutableReferences": {},
  "source": "// SPDX-License-Identifier: MIT\r\npragma solidity ^0.8.0;\r\nimport \"./1_Library.sol\";\r\nimport \"./6_Patient.sol\";\r\nimport \"./9_Permissions.sol\";\r\n\r\ncontract MedicalReport {\r\n    // STATE VARIABLES\r\n    // doctor & patient\r\n    address doctor;\r\n    address patient;\r\n    // medical report data\r\n    uint dateTime;\r\n    string diagnostic;\r\n    Library.Prescription[] prescriptions;\r\n\r\n    // CONSTRUCTOR\r\n    constructor(\r\n        address _patient, \r\n        string memory _diagnostic, \r\n        string[] memory _medicine, \r\n        uint[] memory _numDays, \r\n        uint[] memory _perDay\r\n    ) {\r\n        // doctor = tx.origin;\r\n        // msg.sender -> doctor contract\r\n        doctor = msg.sender;\r\n        patient = _patient;\r\n\r\n        dateTime = block.timestamp;\r\n        diagnostic = _diagnostic;\r\n\r\n        if(_medicine.length == _numDays.length \r\n            && _medicine.length == _perDay.length) {\r\n                for (uint i = 0; i < _medicine.length; ++i) {\r\n                    Library.Prescription memory _prescription = \r\n                        Library.Prescription(_medicine[i], _numDays[i], _perDay[i]);\r\n                    prescriptions.push(_prescription);\r\n                }\r\n            }\r\n    }\r\n\r\n    // MODIFIERS\r\n    modifier permittedAccess() {\r\n        address permissions = Patient(patient).permissions();\r\n        // msg.sender -> doctor or patient contract\r\n        require(Permissions(permissions).permissions(msg.sender) == true, \r\n            \"You don't have permission to access this medical report\");\r\n        _;\r\n    }\r\n\r\n    // FUNCTIONS\r\n    function getMedicalReportDetails() public view permittedAccess returns(\r\n        uint,\r\n        string memory,\r\n        Library.Prescription[] memory\r\n    ) {\r\n        return (dateTime, diagnostic, prescriptions);\r\n    }\r\n\r\n}\r\n",
  "sourcePath": "D:\\Blockchain\\dapp_ehr_1\\truffle\\contracts\\8_MedicalReport.sol",
  "compiler": {
    "name": "solc",
    "version": "0.8.9+commit.e5eed63a.Emscripten.clang"
  },
  "schemaVersion": "3.4.3",
  "updatedAt": "2023-02-01T09:12:10.796Z",
  "devdoc": {
    "kind": "dev",
    "methods": {},
    "version": 1
  },
  "userdoc": {
    "kind": "user",
    "methods": {},
    "version": 1
  }
}