{
  "contractName": "PatientEHR",
  "abi": [
    {
      "inputs": [],
      "name": "doctorEhr",
      "outputs": [
        {
          "internalType": "address",
          "name": "",
          "type": "address"
        }
      ],
      "stateMutability": "view",
      "type": "function"
    },
    {
      "inputs": [
        {
          "internalType": "address",
          "name": "",
          "type": "address"
        }
      ],
      "name": "hasPatientRecord",
      "outputs": [
        {
          "internalType": "bool",
          "name": "",
          "type": "bool"
        }
      ],
      "stateMutability": "view",
      "type": "function"
    },
    {
      "inputs": [],
      "name": "hospitalEhr",
      "outputs": [
        {
          "internalType": "address",
          "name": "",
          "type": "address"
        }
      ],
      "stateMutability": "view",
      "type": "function"
    },
    {
      "inputs": [],
      "name": "patientEhr",
      "outputs": [
        {
          "internalType": "address",
          "name": "",
          "type": "address"
        }
      ],
      "stateMutability": "view",
      "type": "function"
    },
    {
      "inputs": [
        {
          "internalType": "address",
          "name": "",
          "type": "address"
        }
      ],
      "name": "patientRecord",
      "outputs": [
        {
          "internalType": "address",
          "name": "",
          "type": "address"
        }
      ],
      "stateMutability": "view",
      "type": "function"
    },
    {
      "inputs": [
        {
          "internalType": "address",
          "name": "_addr",
          "type": "address"
        }
      ],
      "name": "setPatientEhr",
      "outputs": [],
      "stateMutability": "nonpayable",
      "type": "function"
    },
    {
      "inputs": [
        {
          "internalType": "address",
          "name": "_addr",
          "type": "address"
        }
      ],
      "name": "setHospitalEhr",
      "outputs": [],
      "stateMutability": "nonpayable",
      "type": "function"
    },
    {
      "inputs": [
        {
          "internalType": "address",
          "name": "_addr",
          "type": "address"
        }
      ],
      "name": "setDoctorEhr",
      "outputs": [],
      "stateMutability": "nonpayable",
      "type": "function"
    },
    {
      "inputs": [
        {
          "internalType": "string",
          "name": "_firstName",
          "type": "string"
        },
        {
          "internalType": "string",
          "name": "_lastName",
          "type": "string"
        },
        {
          "internalType": "string",
          "name": "_id",
          "type": "string"
        },
        {
          "internalType": "uint256",
          "name": "_dateOfBirth",
          "type": "uint256"
        },
        {
          "internalType": "enum Library.Sex",
          "name": "_sex",
          "type": "uint8"
        }
      ],
      "name": "addPatientRecord",
      "outputs": [
        {
          "internalType": "address",
          "name": "",
          "type": "address"
        }
      ],
      "stateMutability": "payable",
      "type": "function"
    }
  ],
  "bytecode": "0x608060405234801561001057600080fd5b506125b1806100206000396000f3fe608060405260043610620000915760003560e01c80638d95f06411620000605780638d95f06414620001b65780639de62ef714620001d8578063a3e995cf14620001fa578063b416a2c6146200021c578063d54565da146200023357600080fd5b806314dfd8a114620000965780633bfb78a414620000df5780635221a71f1462000132578063736960cd1462000175575b600080fd5b348015620000a357600080fd5b50620000ca620000b53660046200037c565b60006020819052908152604090205460ff1681565b60405190151581526020015b60405180910390f35b348015620000ec57600080fd5b5062000119620000fe3660046200037c565b6001602052600090815260409020546001600160a01b031681565b6040516001600160a01b039091168152602001620000d6565b3480156200013f57600080fd5b5062000173620001513660046200037c565b600280546001600160a01b0319166001600160a01b0392909216919091179055565b005b3480156200018257600080fd5b5062000173620001943660046200037c565b600480546001600160a01b0319166001600160a01b0392909216919091179055565b348015620001c357600080fd5b5060045462000119906001600160a01b031681565b348015620001e557600080fd5b5060025462000119906001600160a01b031681565b3480156200020757600080fd5b5060035462000119906001600160a01b031681565b620001196200022d36600462000459565b62000274565b3480156200024057600080fd5b5062000173620002523660046200037c565b600380546001600160a01b0319166001600160a01b0392909216919091179055565b3260009081526020819052604081205460ff1615620002e35760405162461bcd60e51b815260206004820152602160248201527f596f7520616c7265616479206861766520612070617469656e74207265636f726044820152601960fa1b606482015260840160405180910390fd5b60008686868686604051620002f8906200036e565b620003089594939291906200055f565b604051809103906000f08015801562000325573d6000803e3d6000fd5b50326000908152602081815260408083208054600160ff199091168117909155909152902080546001600160a01b0319166001600160a01b038316179055979650505050505050565b611fa580620005d783390190565b6000602082840312156200038f57600080fd5b81356001600160a01b0381168114620003a757600080fd5b9392505050565b634e487b7160e01b600052604160045260246000fd5b600082601f830112620003d657600080fd5b813567ffffffffffffffff80821115620003f457620003f4620003ae565b604051601f8301601f19908116603f011681019082821181831017156200041f576200041f620003ae565b816040528381528660208588010111156200043957600080fd5b836020870160208301376000602085830101528094505050505092915050565b600080600080600060a086880312156200047257600080fd5b853567ffffffffffffffff808211156200048b57600080fd5b6200049989838a01620003c4565b96506020880135915080821115620004b057600080fd5b620004be89838a01620003c4565b95506040880135915080821115620004d557600080fd5b50620004e488828901620003c4565b935050606086013591506080860135600281106200050157600080fd5b809150509295509295909350565b6000815180845260005b81811015620005375760208185018101518683018201520162000519565b818111156200054a576000602083870101525b50601f01601f19169290920160200192915050565b60a0815260006200057460a08301886200050f565b82810360208401526200058881886200050f565b905082810360408401526200059e81876200050f565b91505083606083015260028310620005c657634e487b7160e01b600052602160045260246000fd5b826080830152969550505050505056fe60806040523480156200001157600080fd5b5060405162001fa538038062001fa5833981016040819052620000349162000335565b600080546001600160a01b031916321781558551869186918691869186919062000066906001906020890190620001a6565b5084516200007c906002906020880190620001a6565b50835162000092906003906020870190620001a6565b5060048390556005805483919060ff191660018381811115620000b957620000b9620003ea565b02179055506005805482919061ff001916610100836002811115620000e257620000e2620003ea565b02179055505050505050506000604051620000fd9062000235565b604051809103906000f0801580156200011a573d6000803e3d6000fd5b506005805462010000600160b01b031916620100006001600160a01b03841602179055604051909150600090620001519062000243565b604051809103906000f0801580156200016e573d6000803e3d6000fd5b50600780546001600160a01b039092166001600160a01b03199283161790556008805490911633179055506200043d95505050505050565b828054620001b49062000400565b90600052602060002090601f016020900481019282620001d8576000855562000223565b82601f10620001f357805160ff191683800117855562000223565b8280016001018555821562000223579182015b828111156200022357825182559160200191906001019062000206565b506200023192915062000251565b5090565b61056080620015fb83390190565b61044a8062001b5b83390190565b5b8082111562000231576000815560010162000252565b634e487b7160e01b600052604160045260246000fd5b600082601f8301126200029057600080fd5b81516001600160401b0380821115620002ad57620002ad62000268565b604051601f8301601f19908116603f01168101908282118183101715620002d857620002d862000268565b81604052838152602092508683858801011115620002f557600080fd5b600091505b83821015620003195785820183015181830184015290820190620002fa565b838211156200032b5760008385830101525b9695505050505050565b600080600080600060a086880312156200034e57600080fd5b85516001600160401b03808211156200036657600080fd5b6200037489838a016200027e565b965060208801519150808211156200038b57600080fd5b6200039989838a016200027e565b95506040880151915080821115620003b057600080fd5b50620003bf888289016200027e565b93505060608601519150608086015160028110620003dc57600080fd5b809150509295509295909350565b634e487b7160e01b600052602160045260246000fd5b600181811c908216806200041557607f821691505b602082108114156200043757634e487b7160e01b600052602260045260246000fd5b50919050565b6111ae806200044d6000396000f3fe6080604052600436106100915760003560e01c8063b9b89f5911610059578063b9b89f5914610145578063c682f5d414610174578063d9ef76c214610196578063ef3b0208146101bc578063f59f1603146101cf57600080fd5b80634780468f146100965780638908e67f146100ab578063919932d2146100cb57806398fc90e9146100fa578063ab8c71c01461010d575b600080fd5b6100a96100a4366004610b28565b6101f5565b005b3480156100b757600080fd5b506100a96100c6366004610c3a565b6102dd565b3480156100d757600080fd5b506100e0610372565b6040516100f1959493929190610cfb565b60405180910390f35b6100a9610108366004610b28565b61043c565b34801561011957600080fd5b5060075461012d906001600160a01b031681565b6040516001600160a01b0390911681526020016100f1565b34801561015157600080fd5b50610165610160366004610b28565b610500565b6040516100f193929190610d93565b34801561018057600080fd5b506101896105ba565b6040516100f19190610e2a565b3480156101a257600080fd5b5060055461012d906201000090046001600160a01b031681565b6100a96101ca366004610b28565b61061c565b3480156101db57600080fd5b506101e46108a1565b6040516100f1959493929190610e77565b6000546001600160a01b031632146102285760405162461bcd60e51b815260040161021f90610ed9565b60405180910390fd5b6007546040516305b1c64f60e31b81526001600160a01b03838116600483015290911690632d8e327890602401600060405180830381600087803b15801561026f57600080fd5b505af1158015610283573d6000803e3d6000fd5b50505050806001600160a01b031663a505612b6040518163ffffffff1660e01b8152600401600060405180830381600087803b1580156102c257600080fd5b505af11580156102d6573d6000803e3d6000fd5b5050505050565b6000546001600160a01b031632146103075760405162461bcd60e51b815260040161021f90610ed9565b845161031a906001906020880190610a77565b50835161032e906002906020870190610a77565b508251610342906003906020860190610a77565b5060048290556005805482919060ff19166001838181111561036657610366610ce5565b02179055505050505050565b6000805481908190819081906001600160a01b031632146103a55760405162461bcd60e51b815260040161021f90610ed9565b600560029054906101000a90046001600160a01b03166001600160a01b031663919932d26040518163ffffffff1660e01b815260040160a06040518083038186803b1580156103f357600080fd5b505afa158015610407573d6000803e3d6000fd5b505050506040513d601f19601f8201168201806040525081019061042b9190610f1d565b945094509450945094509091929394565b6000546001600160a01b031632146104665760405162461bcd60e51b815260040161021f90610ed9565b60075460405163e074bb4760e01b81526001600160a01b0383811660048301529091169063e074bb4790602401600060405180830381600087803b1580156104ad57600080fd5b505af11580156104c1573d6000803e3d6000fd5b50505050806001600160a01b031663fcc8c2036040518163ffffffff1660e01b8152600401600060405180830381600087803b1580156102c257600080fd5b6000805460609081906001600160a01b031632146105305760405162461bcd60e51b815260040161021f90610ed9565b6000806000866001600160a01b031663cc797fd56040518163ffffffff1660e01b815260040160006040518083038186803b15801561056e57600080fd5b505afa158015610582573d6000803e3d6000fd5b505050506040513d6000823e601f3d908101601f191682016040526105aa9190810190610fc7565b9199909850909650945050505050565b6060600680548060200260200160405190810160405280929190818152602001828054801561061257602002820191906000526020600020905b81546001600160a01b031681526001909101906020018083116105f4575b5050505050905090565b600754604051623d104160e31b81523360048201526001600160a01b03909116906301e882089060240160206040518083038186803b15801561065e57600080fd5b505afa158015610672573d6000803e3d6000fd5b505050506040513d601f19601f820116820180604052508101906106969190611105565b151560011461070f576040805162461bcd60e51b81526020600482015260248101919091527f596f7520646f6e27742068617665207065726d697373696f6e20746f2061636360448201527f657373206865616c746820646174612026206d65646963616c207265706f7274606482015260840161021f565b600854604080516323657c1960e21b815290516000926001600160a01b031691638d95f064916004808301926020929190829003018186803b15801561075457600080fd5b505afa158015610768573d6000803e3d6000fd5b505050506040513d601f19601f8201168201806040525081019061078c9190611120565b604051639840e1e560e01b81523260048201529091506001600160a01b03821690639840e1e59060240160206040518083038186803b1580156107ce57600080fd5b505afa1580156107e2573d6000803e3d6000fd5b505050506040513d601f19601f820116820180604052508101906108069190611105565b151560011461084e5760405162461bcd60e51b81526020600482015260146024820152732cb7ba9030b932903737ba1030903237b1ba37b960611b604482015260640161021f565b50600680546001810182556000919091527ff652222313e28459528d920b65115c16c04f3efc82aaedc97be59f3f377c0d3f0180546001600160a01b0319166001600160a01b0392909216919091179055565b6060806060600080600160026003600454600560009054906101000a900460ff168480546108ce9061113d565b80601f01602080910402602001604051908101604052809291908181526020018280546108fa9061113d565b80156109475780601f1061091c57610100808354040283529160200191610947565b820191906000526020600020905b81548152906001019060200180831161092a57829003601f168201915b5050505050945083805461095a9061113d565b80601f01602080910402602001604051908101604052809291908181526020018280546109869061113d565b80156109d35780601f106109a8576101008083540402835291602001916109d3565b820191906000526020600020905b8154815290600101906020018083116109b657829003601f168201915b505050505093508280546109e69061113d565b80601f0160208091040260200160405190810160405280929190818152602001828054610a129061113d565b8015610a5f5780601f10610a3457610100808354040283529160200191610a5f565b820191906000526020600020905b815481529060010190602001808311610a4257829003601f168201915b50505050509250945094509450945094509091929394565b828054610a839061113d565b90600052602060002090601f016020900481019282610aa55760008555610aeb565b82601f10610abe57805160ff1916838001178555610aeb565b82800160010185558215610aeb579182015b82811115610aeb578251825591602001919060010190610ad0565b50610af7929150610afb565b5090565b5b80821115610af75760008155600101610afc565b6001600160a01b0381168114610b2557600080fd5b50565b600060208284031215610b3a57600080fd5b8135610b4581610b10565b9392505050565b634e487b7160e01b600052604160045260246000fd5b6040516060810167ffffffffffffffff81118282101715610b8557610b85610b4c565b60405290565b604051601f8201601f1916810167ffffffffffffffff81118282101715610bb457610bb4610b4c565b604052919050565b600067ffffffffffffffff821115610bd657610bd6610b4c565b50601f01601f191660200190565b600082601f830112610bf557600080fd5b8135610c08610c0382610bbc565b610b8b565b818152846020838601011115610c1d57600080fd5b816020850160208301376000918101602001919091529392505050565b600080600080600060a08688031215610c5257600080fd5b853567ffffffffffffffff80821115610c6a57600080fd5b610c7689838a01610be4565b96506020880135915080821115610c8c57600080fd5b610c9889838a01610be4565b95506040880135915080821115610cae57600080fd5b50610cbb88828901610be4565b93505060608601359150608086013560028110610cd757600080fd5b809150509295509295909350565b634e487b7160e01b600052602160045260246000fd5b8581526020810185905260a0810160048510610d1957610d19610ce5565b60408201949094529115156060830152151560809091015292915050565b60005b83811015610d52578181015183820152602001610d3a565b83811115610d61576000848401525b50505050565b60008151808452610d7f816020860160208601610d37565b601f01601f19169290920160200192915050565b6000606085835260208181850152610dad82850187610d67565b6040858203818701528187518084528484019150848160051b850101858a0160005b83811015610e1857868303601f19018552815180518a8552610df38b860182610d67565b828b0151868c0152918801519488019490945294880194925090870190600101610dcf565b50909c9b505050505050505050505050565b6020808252825182820181905260009190848201906040850190845b81811015610e6b5783516001600160a01b031683529284019291840191600101610e46565b50909695505050505050565b60a081526000610e8a60a0830188610d67565b8281036020840152610e9c8188610d67565b90508281036040840152610eb08187610d67565b91505083606083015260028310610ec957610ec9610ce5565b8260808301529695505050505050565b6020808252601590820152742cb7ba9030b932903737ba103a34329037bbb732b960591b604082015260600190565b80518015158114610f1857600080fd5b919050565b600080600080600060a08688031215610f3557600080fd5b8551945060208601519350604086015160048110610f5257600080fd5b9250610f6060608701610f08565b9150610f6e60808701610f08565b90509295509295909350565b600082601f830112610f8b57600080fd5b8151610f99610c0382610bbc565b818152846020838601011115610fae57600080fd5b610fbf826020830160208701610d37565b949350505050565b600080600060608486031215610fdc57600080fd5b8351925060208085015167ffffffffffffffff80821115610ffc57600080fd5b61100888838901610f7a565b9450604087015191508082111561101e57600080fd5b818701915087601f83011261103257600080fd5b81518181111561104457611044610b4c565b8060051b611053858201610b8b565b918252838101850191858101908b84111561106d57600080fd5b86860192505b838310156110f45782518581111561108b5760008081fd5b86016060818e03601f190112156110a25760008081fd5b6110aa610b62565b88820151878111156110bc5760008081fd5b6110ca8f8b83860101610f7a565b82525060408201518982015260608201516040820152808452505086820191508683019250611073565b809750505050505050509250925092565b60006020828403121561111757600080fd5b610b4582610f08565b60006020828403121561113257600080fd5b8151610b4581610b10565b600181811c9082168061115157607f821691505b6020821081141561117257634e487b7160e01b600052602260045260246000fd5b5091905056fea26469706673582212206b213fdee6e6677143eb0124f3441ce6eb9b8af687146ce6d7a5bd98843c2dd164736f6c63430008090033608060405234801561001057600080fd5b50600080546001600160a01b0319163217905560038054630100000033026301000000600160b81b03199091161790556105118061004f6000396000f3fe608060405234801561001057600080fd5b50600436106100365760003560e01c8063919932d21461003b578063ee50ada41461005d575b600080fd5b610043610072565b604051610054959493929190610365565b60405180910390f35b61007061006b3660046103c0565b6101d0565b005b60008060008060008060038054906101000a90046001600160a01b03166001600160a01b031663ab8c71c06040518163ffffffff1660e01b815260040160206040518083038186803b1580156100c757600080fd5b505afa1580156100db573d6000803e3d6000fd5b505050506040513d601f19601f820116820180604052508101906100ff9190610423565b604051623d104160e31b81523360048201529091506001600160a01b038216906301e882089060240160206040518083038186803b15801561014057600080fd5b505afa158015610154573d6000803e3d6000fd5b505050506040513d601f19601f820116820180604052508101906101789190610453565b15156001146101a25760405162461bcd60e51b815260040161019990610470565b60405180910390fd5b5050600154600254600354919690955060ff8083169550610100830481169450620100009092049091169150565b600060038054906101000a90046001600160a01b03166001600160a01b031663ab8c71c06040518163ffffffff1660e01b815260040160206040518083038186803b15801561021e57600080fd5b505afa158015610232573d6000803e3d6000fd5b505050506040513d601f19601f820116820180604052508101906102569190610423565b604051623d104160e31b81523360048201529091506001600160a01b038216906301e882089060240160206040518083038186803b15801561029757600080fd5b505afa1580156102ab573d6000803e3d6000fd5b505050506040513d601f19601f820116820180604052508101906102cf9190610453565b15156001146102f05760405162461bcd60e51b815260040161019990610470565b6001868155600286905560038054869260ff199091169083838111156103185761031861034f565b0217905550506003805462ffff0019166101009315159390930262ff00001916929092176201000091151591909102179055505050565b634e487b7160e01b600052602160045260246000fd5b8581526020810185905260a081016004851061039157634e487b7160e01b600052602160045260246000fd5b60408201949094529115156060830152151560809091015292915050565b80151581146103bd57600080fd5b50565b600080600080600060a086880312156103d857600080fd5b85359450602086013593506040860135600481106103f557600080fd5b92506060860135610405816103af565b91506080860135610415816103af565b809150509295509295909350565b60006020828403121561043557600080fd5b81516001600160a01b038116811461044c57600080fd5b9392505050565b60006020828403121561046557600080fd5b815161044c816103af565b60208082526045908201527f596f7520646f6e27742068617665207065726d697373696f6e20746f2061646460408201527f206f722076696577206865616c746820646174612026206d65646963616c2072606082015264195c1bdc9d60da1b608082015260a0019056fea2646970667358221220a2bbdb0dbfcb1e1bc360ff3c43af12d254b481c4a1d2ed04681e7ea0dc1000ca64736f6c63430008090033608060405234801561001057600080fd5b50600080546001600160a01b03191632178155338152600160208190526040909120805460ff191690911790556103fe8061004c6000396000f3fe608060405234801561001057600080fd5b506004361061004c5760003560e01c806301e88208146100515780632d8e327814610089578063660ac62a1461009e578063e074bb47146100b4575b600080fd5b61007461005f3660046102c3565b60016020526000908152604090205460ff1681565b60405190151581526020015b60405180910390f35b61009c6100973660046102c3565b6100c7565b005b6100a6610156565b6040516100809291906102f3565b61009c6100c23660046102c3565b610278565b6000546001600160a01b031632146100fa5760405162461bcd60e51b81526004016100f190610344565b60405180910390fd5b6001600160a01b0381166000818152600160208181526040808420805460ff1916909317909255600380548452600290915290822080546001600160a01b0319169093179092558154919061014e83610373565b919050555050565b60008054606091906001600160a01b031632146101855760405162461bcd60e51b81526004016100f190610344565b600060035467ffffffffffffffff8111156101a2576101a261039c565b6040519080825280602002602001820160405280156101cb578160200160208202803683370190505b5090506000805b60035481101561026e576000818152600260209081526040808320546001600160a01b03168352600190915290205460ff161561025e5760008181526002602052604090205483516001600160a01b0390911690849084908110610238576102386103b2565b6001600160a01b03909216602092830291909101909101528161025a81610373565b9250505b61026781610373565b90506101d2565b5090925090509091565b6000546001600160a01b031632146102a25760405162461bcd60e51b81526004016100f190610344565b6001600160a01b03166000908152600160205260409020805460ff19169055565b6000602082840312156102d557600080fd5b81356001600160a01b03811681146102ec57600080fd5b9392505050565b604080825283519082018190526000906020906060840190828701845b828110156103355781516001600160a01b031684529284019290840190600101610310565b50505092019290925292915050565b6020808252601590820152742cb7ba9030b932903737ba103a34329037bbb732b960591b604082015260600190565b600060001982141561039557634e487b7160e01b600052601160045260246000fd5b5060010190565b634e487b7160e01b600052604160045260246000fd5b634e487b7160e01b600052603260045260246000fdfea2646970667358221220175a7db1543daff51082bc25cbd3957390d588f145abe618e90cc70b5fce823264736f6c63430008090033a26469706673582212201bd1feefafab6849f4c6fc740c8e0a0d53fb8481c8353b96d526fa68f5841e6964736f6c63430008090033",
  "immutableReferences": {},
  "source": "// SPDX-License-Identifier: MIT\r\npragma solidity ^0.8.0;\r\nimport \"./1_Library.sol\";\r\nimport \"./6_Patient.sol\";\r\n\r\ncontract PatientEHR {\r\n    // STATE VARIABLES\r\n    mapping(address => bool) public hasPatientRecord;\r\n    mapping(address => address) public patientRecord;\r\n\r\n    address public patientEhr;\r\n    address public hospitalEhr;\r\n    address public doctorEhr;\r\n\r\n    function setPatientEhr(address _addr) public {\r\n        patientEhr = _addr;\r\n    }\r\n\r\n    function setHospitalEhr(address _addr) public {\r\n        hospitalEhr = _addr;\r\n    }\r\n\r\n    function setDoctorEhr(address _addr) public {\r\n        doctorEhr = _addr;\r\n    }\r\n\r\n    // CONSTRUCTOR\r\n\r\n    // MODIFIERS\r\n    // modifier notHospital() {\r\n    //     require(hasHospitalRecord[tx.origin] == false, \r\n    //         \"You already have a hospital record\");\r\n    //     _;\r\n    // }\r\n\r\n    // modifier notDoctor() {\r\n    //     require(hasDoctorRecord[tx.origin] == false, \r\n    //         \"You already have a doctor record\");\r\n    //     _;\r\n    // }\r\n\r\n     modifier notPatient() {\r\n        require(hasPatientRecord[tx.origin] == false, \r\n            \"You already have a patient record\");\r\n        _;\r\n    }\r\n\r\n    // FUNCTIONS\r\n    function addPatientRecord(\r\n        string memory _firstName, \r\n        string memory _lastName, \r\n        string memory _id, \r\n        uint _dateOfBirth, \r\n        Library.Sex _sex\r\n    ) public payable notPatient returns(address) {\r\n        Patient _patient = new Patient(_firstName, _lastName, _id, _dateOfBirth, _sex);\r\n        address patientAddress = address(_patient);\r\n\r\n        hasPatientRecord[tx.origin] = true;\r\n        patientRecord[tx.origin] = patientAddress;\r\n\r\n        return patientAddress;\r\n    }\r\n\r\n}\r\n",
  "sourcePath": "D:\\Blockchain\\dapp_ehr_1\\truffle\\contracts\\13_PatientEHR.sol",
  "compiler": {
    "name": "solc",
    "version": "0.8.9+commit.e5eed63a.Emscripten.clang"
  },
  "schemaVersion": "3.4.3",
  "updatedAt": "2023-02-01T09:12:10.586Z",
  "devdoc": {
    "kind": "dev",
    "methods": {},
    "version": 1
  },
  "userdoc": {
    "kind": "user",
    "methods": {},
    "version": 1
  }
}