{
  "contractName": "Permissions",
  "abi": [
    {
      "inputs": [],
      "stateMutability": "nonpayable",
      "type": "constructor"
    },
    {
      "inputs": [
        {
          "internalType": "address",
          "name": "",
          "type": "address"
        }
      ],
      "name": "permissions",
      "outputs": [
        {
          "internalType": "bool",
          "name": "",
          "type": "bool"
        }
      ],
      "stateMutability": "view",
      "type": "function"
    },
    {
      "inputs": [
        {
          "internalType": "address",
          "name": "_permitted",
          "type": "address"
        }
      ],
      "name": "grantPermission",
      "outputs": [],
      "stateMutability": "nonpayable",
      "type": "function"
    },
    {
      "inputs": [
        {
          "internalType": "address",
          "name": "_permitted",
          "type": "address"
        }
      ],
      "name": "removePermission",
      "outputs": [],
      "stateMutability": "nonpayable",
      "type": "function"
    },
    {
      "inputs": [],
      "name": "getPermittedDoctors",
      "outputs": [
        {
          "internalType": "address[]",
          "name": "",
          "type": "address[]"
        },
        {
          "internalType": "uint256",
          "name": "",
          "type": "uint256"
        }
      ],
      "stateMutability": "view",
      "type": "function"
    }
  ],
  "bytecode": "0x608060405234801561001057600080fd5b50600080546001600160a01b03191632178155338152600160208190526040909120805460ff191690911790556103fe8061004c6000396000f3fe608060405234801561001057600080fd5b506004361061004c5760003560e01c806301e88208146100515780632d8e327814610089578063660ac62a1461009e578063e074bb47146100b4575b600080fd5b61007461005f3660046102c3565b60016020526000908152604090205460ff1681565b60405190151581526020015b60405180910390f35b61009c6100973660046102c3565b6100c7565b005b6100a6610156565b6040516100809291906102f3565b61009c6100c23660046102c3565b610278565b6000546001600160a01b031632146100fa5760405162461bcd60e51b81526004016100f190610344565b60405180910390fd5b6001600160a01b0381166000818152600160208181526040808420805460ff1916909317909255600380548452600290915290822080546001600160a01b0319169093179092558154919061014e83610373565b919050555050565b60008054606091906001600160a01b031632146101855760405162461bcd60e51b81526004016100f190610344565b600060035467ffffffffffffffff8111156101a2576101a261039c565b6040519080825280602002602001820160405280156101cb578160200160208202803683370190505b5090506000805b60035481101561026e576000818152600260209081526040808320546001600160a01b03168352600190915290205460ff161561025e5760008181526002602052604090205483516001600160a01b0390911690849084908110610238576102386103b2565b6001600160a01b03909216602092830291909101909101528161025a81610373565b9250505b61026781610373565b90506101d2565b5090925090509091565b6000546001600160a01b031632146102a25760405162461bcd60e51b81526004016100f190610344565b6001600160a01b03166000908152600160205260409020805460ff19169055565b6000602082840312156102d557600080fd5b81356001600160a01b03811681146102ec57600080fd5b9392505050565b604080825283519082018190526000906020906060840190828701845b828110156103355781516001600160a01b031684529284019290840190600101610310565b50505092019290925292915050565b6020808252601590820152742cb7ba9030b932903737ba103a34329037bbb732b960591b604082015260600190565b600060001982141561039557634e487b7160e01b600052601160045260246000fd5b5060010190565b634e487b7160e01b600052604160045260246000fd5b634e487b7160e01b600052603260045260246000fdfea2646970667358221220175a7db1543daff51082bc25cbd3957390d588f145abe618e90cc70b5fce823264736f6c63430008090033",
  "immutableReferences": {},
  "source": "// SPDX-License-Identifier: MIT\r\npragma solidity ^0.8.0;\r\nimport \"./2_Ownable.sol\";\r\n\r\ncontract Permissions is Ownable {\r\n    // STATE VARIABLES\r\n    mapping(address => bool) public permissions;\r\n    mapping(uint => address) permitted;\r\n    uint count;\r\n\r\n    // CONSTRUCTOR\r\n    constructor() {\r\n        super;\r\n        permissions[msg.sender] = true;\r\n    }\r\n\r\n    // MODIFIERS\r\n\r\n\r\n    // FUNCTIONS\r\n    function grantPermission(address _permitted) public isOwner {\r\n        permissions[_permitted] = true;\r\n        permitted[count] = _permitted;\r\n        count++;\r\n    }\r\n\r\n    function removePermission(address _permitted) public isOwner {\r\n        permissions[_permitted] = false;\r\n    }\r\n\r\n    function getPermittedDoctors() public view isOwner returns(address[] memory, uint){\r\n        address[] memory _permitted = new address[](count);\r\n        uint counter = 0;\r\n        for (uint i = 0; i < count; ++i) {\r\n            if (permissions[permitted[i]]) {\r\n                _permitted[counter] = permitted[i];\r\n                counter++;\r\n            }\r\n        }\r\n        return (_permitted, counter);\r\n    }\r\n\r\n}\r\n",
  "sourcePath": "D:\\Blockchain\\dapp_ehr_1\\truffle\\contracts\\9_Permissions.sol",
  "compiler": {
    "name": "solc",
    "version": "0.8.9+commit.e5eed63a.Emscripten.clang"
  },
  "schemaVersion": "3.4.3",
  "updatedAt": "2023-02-01T09:12:10.842Z",
  "devdoc": {
    "kind": "dev",
    "methods": {},
    "version": 1
  },
  "userdoc": {
    "kind": "user",
    "methods": {},
    "version": 1
  }
}