{
  "contractName": "User",
  "abi": [
    {
      "inputs": [
        {
          "internalType": "string",
          "name": "_firstName",
          "type": "string"
        },
        {
          "internalType": "string",
          "name": "_lastName",
          "type": "string"
        },
        {
          "internalType": "string",
          "name": "_id",
          "type": "string"
        },
        {
          "internalType": "uint256",
          "name": "_dateOfBirth",
          "type": "uint256"
        },
        {
          "internalType": "enum Library.Sex",
          "name": "_sex",
          "type": "uint8"
        },
        {
          "internalType": "enum Library.User",
          "name": "_user",
          "type": "uint8"
        }
      ],
      "stateMutability": "nonpayable",
      "type": "constructor"
    },
    {
      "inputs": [],
      "name": "getBiodata",
      "outputs": [
        {
          "internalType": "string",
          "name": "",
          "type": "string"
        },
        {
          "internalType": "string",
          "name": "",
          "type": "string"
        },
        {
          "internalType": "string",
          "name": "",
          "type": "string"
        },
        {
          "internalType": "uint256",
          "name": "",
          "type": "uint256"
        },
        {
          "internalType": "enum Library.Sex",
          "name": "",
          "type": "uint8"
        }
      ],
      "stateMutability": "view",
      "type": "function"
    },
    {
      "inputs": [
        {
          "internalType": "string",
          "name": "_firstName",
          "type": "string"
        },
        {
          "internalType": "string",
          "name": "_lastName",
          "type": "string"
        },
        {
          "internalType": "string",
          "name": "_id",
          "type": "string"
        },
        {
          "internalType": "uint256",
          "name": "_dateOfBirth",
          "type": "uint256"
        },
        {
          "internalType": "enum Library.Sex",
          "name": "_sex",
          "type": "uint8"
        }
      ],
      "name": "setBiodata",
      "outputs": [],
      "stateMutability": "nonpayable",
      "type": "function"
    }
  ],
  "bytecode": "0x60806040523480156200001157600080fd5b50604051620009cb380380620009cb833981016040819052620000349162000270565b600080546001600160a01b0319163217905585516200005b906001906020890190620000e8565b50845162000071906002906020880190620000e8565b50835162000087906003906020870190620000e8565b5060048390556005805483919060ff191660018381811115620000ae57620000ae62000334565b02179055506005805482919061ff001916610100836002811115620000d757620000d762000334565b021790555050505050505062000387565b828054620000f6906200034a565b90600052602060002090601f0160209004810192826200011a576000855562000165565b82601f106200013557805160ff191683800117855562000165565b8280016001018555821562000165579182015b828111156200016557825182559160200191906001019062000148565b506200017392915062000177565b5090565b5b8082111562000173576000815560010162000178565b634e487b7160e01b600052604160045260246000fd5b600082601f830112620001b657600080fd5b81516001600160401b0380821115620001d357620001d36200018e565b604051601f8301601f19908116603f01168101908282118183101715620001fe57620001fe6200018e565b816040528381526020925086838588010111156200021b57600080fd5b600091505b838210156200023f578582018301518183018401529082019062000220565b83821115620002515760008385830101525b9695505050505050565b8051600381106200026b57600080fd5b919050565b60008060008060008060c087890312156200028a57600080fd5b86516001600160401b0380821115620002a257600080fd5b620002b08a838b01620001a4565b97506020890151915080821115620002c757600080fd5b620002d58a838b01620001a4565b96506040890151915080821115620002ec57600080fd5b50620002fb89828a01620001a4565b945050606087015192506080870151600281106200031857600080fd5b91506200032860a088016200025b565b90509295509295509295565b634e487b7160e01b600052602160045260246000fd5b600181811c908216806200035f57607f821691505b602082108114156200038157634e487b7160e01b600052602260045260246000fd5b50919050565b61063480620003976000396000f3fe608060405234801561001057600080fd5b50600436106100365760003560e01c80638908e67f1461003b578063f59f160314610050575b600080fd5b61004e610049366004610445565b610072565b005b610058610133565b604051610069959493929190610553565b60405180910390f35b6000546001600160a01b031632146100c85760405162461bcd60e51b81526020600482015260156024820152742cb7ba9030b932903737ba103a34329037bbb732b960591b604482015260640160405180910390fd5b84516100db906001906020880190610309565b5083516100ef906002906020870190610309565b508251610103906003906020860190610309565b5060048290556005805482919060ff1916600183818111156101275761012761053d565b02179055505050505050565b6060806060600080600160026003600454600560009054906101000a900460ff16848054610160906105c3565b80601f016020809104026020016040519081016040528092919081815260200182805461018c906105c3565b80156101d95780601f106101ae576101008083540402835291602001916101d9565b820191906000526020600020905b8154815290600101906020018083116101bc57829003601f168201915b505050505094508380546101ec906105c3565b80601f0160208091040260200160405190810160405280929190818152602001828054610218906105c3565b80156102655780601f1061023a57610100808354040283529160200191610265565b820191906000526020600020905b81548152906001019060200180831161024857829003601f168201915b50505050509350828054610278906105c3565b80601f01602080910402602001604051908101604052809291908181526020018280546102a4906105c3565b80156102f15780601f106102c6576101008083540402835291602001916102f1565b820191906000526020600020905b8154815290600101906020018083116102d457829003601f168201915b50505050509250945094509450945094509091929394565b828054610315906105c3565b90600052602060002090601f016020900481019282610337576000855561037d565b82601f1061035057805160ff191683800117855561037d565b8280016001018555821561037d579182015b8281111561037d578251825591602001919060010190610362565b5061038992915061038d565b5090565b5b80821115610389576000815560010161038e565b634e487b7160e01b600052604160045260246000fd5b600082601f8301126103c957600080fd5b813567ffffffffffffffff808211156103e4576103e46103a2565b604051601f8301601f19908116603f0116810190828211818310171561040c5761040c6103a2565b8160405283815286602085880101111561042557600080fd5b836020870160208301376000602085830101528094505050505092915050565b600080600080600060a0868803121561045d57600080fd5b853567ffffffffffffffff8082111561047557600080fd5b61048189838a016103b8565b9650602088013591508082111561049757600080fd5b6104a389838a016103b8565b955060408801359150808211156104b957600080fd5b506104c6888289016103b8565b935050606086013591506080860135600281106104e257600080fd5b809150509295509295909350565b6000815180845260005b81811015610516576020818501810151868301820152016104fa565b81811115610528576000602083870101525b50601f01601f19169290920160200192915050565b634e487b7160e01b600052602160045260246000fd5b60a08152600061056660a08301886104f0565b828103602084015261057881886104f0565b9050828103604084015261058c81876104f0565b915050836060830152600283106105b357634e487b7160e01b600052602160045260246000fd5b8260808301529695505050505050565b600181811c908216806105d757607f821691505b602082108114156105f857634e487b7160e01b600052602260045260246000fd5b5091905056fea2646970667358221220c3bc5ca8ccf504f165b0c30a4f8054535f53965f3ec50c13f4ec74a18d39c1df64736f6c63430008090033",
  "immutableReferences": {},
  "source": "// SPDX-License-Identifier: MIT\r\npragma solidity ^0.8.0;\r\nimport \"./1_Library.sol\";\r\nimport \"./2_Ownable.sol\";\r\n\r\ncontract User is Ownable {\r\n    string firstName;\r\n    string lastName;\r\n    string id;\r\n    uint dateOfBirth;\r\n    Library.Sex sex;\r\n    Library.User user;\r\n\r\n    constructor(\r\n        string memory _firstName,\r\n        string memory _lastName,\r\n        string memory _id,\r\n        uint _dateOfBirth,\r\n        Library.Sex _sex,\r\n        Library.User _user\r\n    ) {\r\n        firstName = _firstName;\r\n        lastName = _lastName;\r\n        id = _id;\r\n        dateOfBirth = _dateOfBirth;\r\n        sex = _sex;\r\n        user = _user;\r\n    }\r\n\r\n    function getBiodata() public view returns(\r\n        string memory, \r\n        string memory, \r\n        string memory, \r\n        uint, \r\n        Library.Sex\r\n    ) {\r\n        return (firstName, lastName, id, dateOfBirth, sex);\r\n    }\r\n\r\n    function setBiodata(\r\n        string memory _firstName,\r\n        string memory _lastName,\r\n        string memory _id,\r\n        uint _dateOfBirth,\r\n        Library.Sex _sex\r\n    ) public isOwner {\r\n        firstName = _firstName;\r\n        lastName = _lastName;\r\n        id = _id;\r\n        dateOfBirth = _dateOfBirth;\r\n        sex = _sex;\r\n    }\r\n\r\n}",
  "sourcePath": "D:\\Blockchain\\dapp_ehr_1\\truffle\\contracts\\10_User.sol",
  "compiler": {
    "name": "solc",
    "version": "0.8.9+commit.e5eed63a.Emscripten.clang"
  },
  "schemaVersion": "3.4.3",
  "updatedAt": "2023-02-01T09:12:10.515Z",
  "devdoc": {
    "kind": "dev",
    "methods": {},
    "version": 1
  },
  "userdoc": {
    "kind": "user",
    "methods": {},
    "version": 1
  }
}